{
	"CrowdFunding.sol": {
		"CrowdFunding": {
			"abi": [
				{
					"inputs": [
						{
							"internalType": "uint256",
							"name": "_target",
							"type": "uint256"
						},
						{
							"internalType": "uint256",
							"name": "_deadline",
							"type": "uint256"
						}
					],
					"stateMutability": "nonpayable",
					"type": "constructor"
				},
				{
					"inputs": [
						{
							"internalType": "address",
							"name": "",
							"type": "address"
						}
					],
					"name": "contributors",
					"outputs": [
						{
							"internalType": "uint256",
							"name": "",
							"type": "uint256"
						}
					],
					"stateMutability": "view",
					"type": "function"
				},
				{
					"inputs": [
						{
							"internalType": "string",
							"name": "_description",
							"type": "string"
						},
						{
							"internalType": "address payable",
							"name": "_recipient",
							"type": "address"
						},
						{
							"internalType": "uint256",
							"name": "_value",
							"type": "uint256"
						}
					],
					"name": "createRequests",
					"outputs": [],
					"stateMutability": "nonpayable",
					"type": "function"
				},
				{
					"inputs": [],
					"name": "deadline",
					"outputs": [
						{
							"internalType": "uint256",
							"name": "",
							"type": "uint256"
						}
					],
					"stateMutability": "view",
					"type": "function"
				},
				{
					"inputs": [],
					"name": "getContractBalance",
					"outputs": [
						{
							"internalType": "uint256",
							"name": "",
							"type": "uint256"
						}
					],
					"stateMutability": "view",
					"type": "function"
				},
				{
					"inputs": [
						{
							"internalType": "uint256",
							"name": "_requestNo",
							"type": "uint256"
						}
					],
					"name": "makePayment",
					"outputs": [],
					"stateMutability": "nonpayable",
					"type": "function"
				},
				{
					"inputs": [],
					"name": "manager",
					"outputs": [
						{
							"internalType": "address",
							"name": "",
							"type": "address"
						}
					],
					"stateMutability": "view",
					"type": "function"
				},
				{
					"inputs": [],
					"name": "minimumContribution",
					"outputs": [
						{
							"internalType": "uint256",
							"name": "",
							"type": "uint256"
						}
					],
					"stateMutability": "view",
					"type": "function"
				},
				{
					"inputs": [],
					"name": "noOfContributors",
					"outputs": [
						{
							"internalType": "uint256",
							"name": "",
							"type": "uint256"
						}
					],
					"stateMutability": "view",
					"type": "function"
				},
				{
					"inputs": [],
					"name": "numRequests",
					"outputs": [
						{
							"internalType": "uint256",
							"name": "",
							"type": "uint256"
						}
					],
					"stateMutability": "view",
					"type": "function"
				},
				{
					"inputs": [],
					"name": "raisedAmount",
					"outputs": [
						{
							"internalType": "uint256",
							"name": "",
							"type": "uint256"
						}
					],
					"stateMutability": "view",
					"type": "function"
				},
				{
					"inputs": [],
					"name": "refund",
					"outputs": [],
					"stateMutability": "nonpayable",
					"type": "function"
				},
				{
					"inputs": [
						{
							"internalType": "uint256",
							"name": "",
							"type": "uint256"
						}
					],
					"name": "requests",
					"outputs": [
						{
							"internalType": "string",
							"name": "description",
							"type": "string"
						},
						{
							"internalType": "address payable",
							"name": "recipient",
							"type": "address"
						},
						{
							"internalType": "uint256",
							"name": "value",
							"type": "uint256"
						},
						{
							"internalType": "bool",
							"name": "completed",
							"type": "bool"
						},
						{
							"internalType": "uint256",
							"name": "noOfVoters",
							"type": "uint256"
						}
					],
					"stateMutability": "view",
					"type": "function"
				},
				{
					"inputs": [],
					"name": "sendEth",
					"outputs": [],
					"stateMutability": "payable",
					"type": "function"
				},
				{
					"inputs": [],
					"name": "target",
					"outputs": [
						{
							"internalType": "uint256",
							"name": "",
							"type": "uint256"
						}
					],
					"stateMutability": "view",
					"type": "function"
				},
				{
					"inputs": [
						{
							"internalType": "uint256",
							"name": "_requestNo",
							"type": "uint256"
						}
					],
					"name": "voteRequest",
					"outputs": [],
					"stateMutability": "nonpayable",
					"type": "function"
				}
			],
			"devdoc": {
				"kind": "dev",
				"methods": {},
				"version": 1
			},
			"evm": {
				"assembly": "    /* \"CrowdFunding.sol\":77:3084  contract CrowdFunding{... */\n  mstore(0x40, 0x80)\n    /* \"CrowdFunding.sol\":550:746  constructor(uint _target, uint _deadline) {... */\n  callvalue\n  dup1\n  iszero\n  tag_1\n  jumpi\n  0x00\n  dup1\n  revert\ntag_1:\n  pop\n  mload(0x40)\n  sub(codesize, bytecodeSize)\n  dup1\n  bytecodeSize\n  dup4\n  codecopy\n  dup2\n  dup2\n  add\n  0x40\n  mstore\n  dup2\n  add\n  swap1\n  tag_2\n  swap2\n  swap1\n  tag_3\n  jump\t// in\ntag_2:\n    /* \"CrowdFunding.sol\":612:619  _target */\n  dup2\n    /* \"CrowdFunding.sol\":603:609  target */\n  0x04\n    /* \"CrowdFunding.sol\":603:619  target = _target */\n  dup2\n  swap1\n  sstore\n  pop\n    /* \"CrowdFunding.sol\":657:666  _deadline */\n  dup1\n    /* \"CrowdFunding.sol\":641:656  block.timestamp */\n  timestamp\n    /* \"CrowdFunding.sol\":641:666  block.timestamp+_deadline */\n  tag_6\n  swap2\n  swap1\n  tag_7\n  jump\t// in\ntag_6:\n    /* \"CrowdFunding.sol\":630:638  deadline */\n  0x03\n    /* \"CrowdFunding.sol\":630:666  deadline = block.timestamp+_deadline */\n  dup2\n  swap1\n  sstore\n  pop\n    /* \"CrowdFunding.sol\":700:707  100 wei */\n  0x64\n    /* \"CrowdFunding.sol\":678:697  minimumContribution */\n  0x02\n    /* \"CrowdFunding.sol\":678:707  minimumContribution = 100 wei */\n  dup2\n  swap1\n  sstore\n  pop\n    /* \"CrowdFunding.sol\":728:738  msg.sender */\n  caller\n    /* \"CrowdFunding.sol\":718:725  manager */\n  0x01\n  0x00\n    /* \"CrowdFunding.sol\":718:738  manager = msg.sender */\n  0x0100\n  exp\n  dup2\n  sload\n  dup2\n  0xffffffffffffffffffffffffffffffffffffffff\n  mul\n  not\n  and\n  swap1\n  dup4\n  0xffffffffffffffffffffffffffffffffffffffff\n  and\n  mul\n  or\n  swap1\n  sstore\n  pop\n    /* \"CrowdFunding.sol\":550:746  constructor(uint _target, uint _deadline) {... */\n  pop\n  pop\n    /* \"CrowdFunding.sol\":77:3084  contract CrowdFunding{... */\n  jump(tag_8)\n    /* \"#utility.yul\":88:205   */\ntag_10:\n    /* \"#utility.yul\":197:198   */\n  0x00\n    /* \"#utility.yul\":194:195   */\n  dup1\n    /* \"#utility.yul\":187:199   */\n  revert\n    /* \"#utility.yul\":334:411   */\ntag_12:\n    /* \"#utility.yul\":371:378   */\n  0x00\n    /* \"#utility.yul\":400:405   */\n  dup2\n    /* \"#utility.yul\":389:405   */\n  swap1\n  pop\n    /* \"#utility.yul\":334:411   */\n  swap2\n  swap1\n  pop\n  jump\t// out\n    /* \"#utility.yul\":417:539   */\ntag_13:\n    /* \"#utility.yul\":490:514   */\n  tag_22\n    /* \"#utility.yul\":508:513   */\n  dup2\n    /* \"#utility.yul\":490:514   */\n  tag_12\n  jump\t// in\ntag_22:\n    /* \"#utility.yul\":483:488   */\n  dup2\n    /* \"#utility.yul\":480:515   */\n  eq\n    /* \"#utility.yul\":470:533   */\n  tag_23\n  jumpi\n    /* \"#utility.yul\":529:530   */\n  0x00\n    /* \"#utility.yul\":526:527   */\n  dup1\n    /* \"#utility.yul\":519:531   */\n  revert\n    /* \"#utility.yul\":470:533   */\ntag_23:\n    /* \"#utility.yul\":417:539   */\n  pop\n  jump\t// out\n    /* \"#utility.yul\":545:688   */\ntag_14:\n    /* \"#utility.yul\":602:607   */\n  0x00\n    /* \"#utility.yul\":633:639   */\n  dup2\n    /* \"#utility.yul\":627:640   */\n  mload\n    /* \"#utility.yul\":618:640   */\n  swap1\n  pop\n    /* \"#utility.yul\":649:682   */\n  tag_25\n    /* \"#utility.yul\":676:681   */\n  dup2\n    /* \"#utility.yul\":649:682   */\n  tag_13\n  jump\t// in\ntag_25:\n    /* \"#utility.yul\":545:688   */\n  swap3\n  swap2\n  pop\n  pop\n  jump\t// out\n    /* \"#utility.yul\":694:1201   */\ntag_3:\n    /* \"#utility.yul\":773:779   */\n  0x00\n    /* \"#utility.yul\":781:787   */\n  dup1\n    /* \"#utility.yul\":830:832   */\n  0x40\n    /* \"#utility.yul\":818:827   */\n  dup4\n    /* \"#utility.yul\":809:816   */\n  dup6\n    /* \"#utility.yul\":805:828   */\n  sub\n    /* \"#utility.yul\":801:833   */\n  slt\n    /* \"#utility.yul\":798:917   */\n  iszero\n  tag_27\n  jumpi\n    /* \"#utility.yul\":836:915   */\n  tag_28\n  tag_10\n  jump\t// in\ntag_28:\n    /* \"#utility.yul\":798:917   */\ntag_27:\n    /* \"#utility.yul\":956:957   */\n  0x00\n    /* \"#utility.yul\":981:1045   */\n  tag_29\n    /* \"#utility.yul\":1037:1044   */\n  dup6\n    /* \"#utility.yul\":1028:1034   */\n  dup3\n    /* \"#utility.yul\":1017:1026   */\n  dup7\n    /* \"#utility.yul\":1013:1035   */\n  add\n    /* \"#utility.yul\":981:1045   */\n  tag_14\n  jump\t// in\ntag_29:\n    /* \"#utility.yul\":971:1045   */\n  swap3\n  pop\n    /* \"#utility.yul\":927:1055   */\n  pop\n    /* \"#utility.yul\":1094:1096   */\n  0x20\n    /* \"#utility.yul\":1120:1184   */\n  tag_30\n    /* \"#utility.yul\":1176:1183   */\n  dup6\n    /* \"#utility.yul\":1167:1173   */\n  dup3\n    /* \"#utility.yul\":1156:1165   */\n  dup7\n    /* \"#utility.yul\":1152:1174   */\n  add\n    /* \"#utility.yul\":1120:1184   */\n  tag_14\n  jump\t// in\ntag_30:\n    /* \"#utility.yul\":1110:1184   */\n  swap2\n  pop\n    /* \"#utility.yul\":1065:1194   */\n  pop\n    /* \"#utility.yul\":694:1201   */\n  swap3\n  pop\n  swap3\n  swap1\n  pop\n  jump\t// out\n    /* \"#utility.yul\":1207:1387   */\ntag_15:\n    /* \"#utility.yul\":1255:1332   */\n  0x4e487b7100000000000000000000000000000000000000000000000000000000\n    /* \"#utility.yul\":1252:1253   */\n  0x00\n    /* \"#utility.yul\":1245:1333   */\n  mstore\n    /* \"#utility.yul\":1352:1356   */\n  0x11\n    /* \"#utility.yul\":1349:1350   */\n  0x04\n    /* \"#utility.yul\":1342:1357   */\n  mstore\n    /* \"#utility.yul\":1376:1380   */\n  0x24\n    /* \"#utility.yul\":1373:1374   */\n  0x00\n    /* \"#utility.yul\":1366:1381   */\n  revert\n    /* \"#utility.yul\":1393:1584   */\ntag_7:\n    /* \"#utility.yul\":1433:1436   */\n  0x00\n    /* \"#utility.yul\":1452:1472   */\n  tag_33\n    /* \"#utility.yul\":1470:1471   */\n  dup3\n    /* \"#utility.yul\":1452:1472   */\n  tag_12\n  jump\t// in\ntag_33:\n    /* \"#utility.yul\":1447:1472   */\n  swap2\n  pop\n    /* \"#utility.yul\":1486:1506   */\n  tag_34\n    /* \"#utility.yul\":1504:1505   */\n  dup4\n    /* \"#utility.yul\":1486:1506   */\n  tag_12\n  jump\t// in\ntag_34:\n    /* \"#utility.yul\":1481:1506   */\n  swap3\n  pop\n    /* \"#utility.yul\":1529:1530   */\n  dup3\n    /* \"#utility.yul\":1526:1527   */\n  dup3\n    /* \"#utility.yul\":1522:1531   */\n  add\n    /* \"#utility.yul\":1515:1531   */\n  swap1\n  pop\n    /* \"#utility.yul\":1550:1553   */\n  dup1\n    /* \"#utility.yul\":1547:1548   */\n  dup3\n    /* \"#utility.yul\":1544:1554   */\n  gt\n    /* \"#utility.yul\":1541:1577   */\n  iszero\n  tag_35\n  jumpi\n    /* \"#utility.yul\":1557:1575   */\n  tag_36\n  tag_15\n  jump\t// in\ntag_36:\n    /* \"#utility.yul\":1541:1577   */\ntag_35:\n    /* \"#utility.yul\":1393:1584   */\n  swap3\n  swap2\n  pop\n  pop\n  jump\t// out\n    /* \"CrowdFunding.sol\":77:3084  contract CrowdFunding{... */\ntag_8:\n  dataSize(sub_0)\n  dup1\n  dataOffset(sub_0)\n  0x00\n  codecopy\n  0x00\n  return\nstop\n\nsub_0: assembly {\n        /* \"CrowdFunding.sol\":77:3084  contract CrowdFunding{... */\n      mstore(0x40, 0x80)\n      jumpi(tag_1, lt(calldatasize, 0x04))\n      shr(0xe0, calldataload(0x00))\n      dup1\n      0x5114cb52\n      gt\n      tag_17\n      jumpi\n      dup1\n      0x937e09b1\n      gt\n      tag_18\n      jumpi\n      dup1\n      0x937e09b1\n      eq\n      tag_13\n      jumpi\n      dup1\n      0x9fb42b1f\n      eq\n      tag_14\n      jumpi\n      dup1\n      0xc59ee1dc\n      eq\n      tag_15\n      jumpi\n      dup1\n      0xd4b83992\n      eq\n      tag_16\n      jumpi\n      jump(tag_1)\n    tag_18:\n      dup1\n      0x5114cb52\n      eq\n      tag_9\n      jumpi\n      dup1\n      0x590e1ae3\n      eq\n      tag_10\n      jumpi\n      dup1\n      0x6f9fb98a\n      eq\n      tag_11\n      jumpi\n      dup1\n      0x81d12c58\n      eq\n      tag_12\n      jumpi\n      jump(tag_1)\n    tag_17:\n      dup1\n      0x3eb7647b\n      gt\n      tag_19\n      jumpi\n      dup1\n      0x3eb7647b\n      eq\n      tag_5\n      jumpi\n      dup1\n      0x481c6a75\n      eq\n      tag_6\n      jumpi\n      dup1\n      0x4cb6f4a5\n      eq\n      tag_7\n      jumpi\n      dup1\n      0x4e260f6f\n      eq\n      tag_8\n      jumpi\n      jump(tag_1)\n    tag_19:\n      dup1\n      0x06e99fef\n      eq\n      tag_2\n      jumpi\n      dup1\n      0x1f6d4942\n      eq\n      tag_3\n      jumpi\n      dup1\n      0x29dcb0cf\n      eq\n      tag_4\n      jumpi\n    tag_1:\n      0x00\n      dup1\n      revert\n        /* \"CrowdFunding.sol\":834:1204  function sendEth() public payable {... */\n    tag_2:\n      tag_20\n      tag_21\n      jump\t// in\n    tag_20:\n      stop\n        /* \"CrowdFunding.sol\":105:147  mapping(address=>uint) public contributors */\n    tag_3:\n      callvalue\n      dup1\n      iszero\n      tag_22\n      jumpi\n      0x00\n      dup1\n      revert\n    tag_22:\n      pop\n      tag_23\n      0x04\n      dup1\n      calldatasize\n      sub\n      dup2\n      add\n      swap1\n      tag_24\n      swap2\n      swap1\n      tag_25\n      jump\t// in\n    tag_24:\n      tag_26\n      jump\t// in\n    tag_23:\n      mload(0x40)\n      tag_27\n      swap2\n      swap1\n      tag_28\n      jump\t// in\n    tag_27:\n      mload(0x40)\n      dup1\n      swap2\n      sub\n      swap1\n      return\n        /* \"CrowdFunding.sol\":221:241  uint public deadline */\n    tag_4:\n      callvalue\n      dup1\n      iszero\n      tag_29\n      jumpi\n      0x00\n      dup1\n      revert\n    tag_29:\n      pop\n      tag_30\n      tag_31\n      jump\t// in\n    tag_30:\n      mload(0x40)\n      tag_32\n      swap2\n      swap1\n      tag_28\n      jump\t// in\n    tag_32:\n      mload(0x40)\n      dup1\n      swap2\n      sub\n      swap1\n      return\n        /* \"CrowdFunding.sol\":1835:2203  function createRequests(string memory _description, address payable _recipient, uint _value) public onlyManager{... */\n    tag_5:\n      callvalue\n      dup1\n      iszero\n      tag_33\n      jumpi\n      0x00\n      dup1\n      revert\n    tag_33:\n      pop\n      tag_34\n      0x04\n      dup1\n      calldatasize\n      sub\n      dup2\n      add\n      swap1\n      tag_35\n      swap2\n      swap1\n      tag_36\n      jump\t// in\n    tag_35:\n      tag_37\n      jump\t// in\n    tag_34:\n      stop\n        /* \"CrowdFunding.sol\":154:176  address public manager */\n    tag_6:\n      callvalue\n      dup1\n      iszero\n      tag_38\n      jumpi\n      0x00\n      dup1\n      revert\n    tag_38:\n      pop\n      tag_39\n      tag_40\n      jump\t// in\n    tag_39:\n      mload(0x40)\n      tag_41\n      swap2\n      swap1\n      tag_42\n      jump\t// in\n    tag_41:\n      mload(0x40)\n      dup1\n      swap2\n      sub\n      swap1\n      return\n        /* \"CrowdFunding.sol\":2211:2576  function voteRequest(uint _requestNo) public{... */\n    tag_7:\n      callvalue\n      dup1\n      iszero\n      tag_43\n      jumpi\n      0x00\n      dup1\n      revert\n    tag_43:\n      pop\n      tag_44\n      0x04\n      dup1\n      calldatasize\n      sub\n      dup2\n      add\n      swap1\n      tag_45\n      swap2\n      swap1\n      tag_46\n      jump\t// in\n    tag_45:\n      tag_47\n      jump\t// in\n    tag_44:\n      stop\n        /* \"CrowdFunding.sol\":304:332  uint public noOfContributors */\n    tag_8:\n      callvalue\n      dup1\n      iszero\n      tag_48\n      jumpi\n      0x00\n      dup1\n      revert\n    tag_48:\n      pop\n      tag_49\n      tag_50\n      jump\t// in\n    tag_49:\n      mload(0x40)\n      tag_51\n      swap2\n      swap1\n      tag_28\n      jump\t// in\n    tag_51:\n      mload(0x40)\n      dup1\n      swap2\n      sub\n      swap1\n      return\n        /* \"CrowdFunding.sol\":2584:3081  function makePayment(uint _requestNo) public onlyManager{... */\n    tag_9:\n      callvalue\n      dup1\n      iszero\n      tag_52\n      jumpi\n      0x00\n      dup1\n      revert\n    tag_52:\n      pop\n      tag_53\n      0x04\n      dup1\n      calldatasize\n      sub\n      dup2\n      add\n      swap1\n      tag_54\n      swap2\n      swap1\n      tag_46\n      jump\t// in\n    tag_54:\n      tag_55\n      jump\t// in\n    tag_53:\n      stop\n        /* \"CrowdFunding.sol\":1323:1700  function refund() public {... */\n    tag_10:\n      callvalue\n      dup1\n      iszero\n      tag_56\n      jumpi\n      0x00\n      dup1\n      revert\n    tag_56:\n      pop\n      tag_57\n      tag_58\n      jump\t// in\n    tag_57:\n      stop\n        /* \"CrowdFunding.sol\":1212:1315  function getContractBalance() public view returns(uint) {... */\n    tag_11:\n      callvalue\n      dup1\n      iszero\n      tag_59\n      jumpi\n      0x00\n      dup1\n      revert\n    tag_59:\n      pop\n      tag_60\n      tag_61\n      jump\t// in\n    tag_60:\n      mload(0x40)\n      tag_62\n      swap2\n      swap1\n      tag_28\n      jump\t// in\n    tag_62:\n      mload(0x40)\n      dup1\n      swap2\n      sub\n      swap1\n      return\n        /* \"CrowdFunding.sol\":754:795  mapping (uint => Request) public requests */\n    tag_12:\n      callvalue\n      dup1\n      iszero\n      tag_63\n      jumpi\n      0x00\n      dup1\n      revert\n    tag_63:\n      pop\n      tag_64\n      0x04\n      dup1\n      calldatasize\n      sub\n      dup2\n      add\n      swap1\n      tag_65\n      swap2\n      swap1\n      tag_46\n      jump\t// in\n    tag_65:\n      tag_66\n      jump\t// in\n    tag_64:\n      mload(0x40)\n      tag_67\n      swap6\n      swap5\n      swap4\n      swap3\n      swap2\n      swap1\n      tag_68\n      jump\t// in\n    tag_67:\n      mload(0x40)\n      dup1\n      swap2\n      sub\n      swap1\n      return\n        /* \"CrowdFunding.sol\":183:214  uint public minimumContribution */\n    tag_13:\n      callvalue\n      dup1\n      iszero\n      tag_69\n      jumpi\n      0x00\n      dup1\n      revert\n    tag_69:\n      pop\n      tag_70\n      tag_71\n      jump\t// in\n    tag_70:\n      mload(0x40)\n      tag_72\n      swap2\n      swap1\n      tag_28\n      jump\t// in\n    tag_72:\n      mload(0x40)\n      dup1\n      swap2\n      sub\n      swap1\n      return\n        /* \"CrowdFunding.sol\":802:825  uint public numRequests */\n    tag_14:\n      callvalue\n      dup1\n      iszero\n      tag_73\n      jumpi\n      0x00\n      dup1\n      revert\n    tag_73:\n      pop\n      tag_74\n      tag_75\n      jump\t// in\n    tag_74:\n      mload(0x40)\n      tag_76\n      swap2\n      swap1\n      tag_28\n      jump\t// in\n    tag_76:\n      mload(0x40)\n      dup1\n      swap2\n      sub\n      swap1\n      return\n        /* \"CrowdFunding.sol\":273:297  uint public raisedAmount */\n    tag_15:\n      callvalue\n      dup1\n      iszero\n      tag_77\n      jumpi\n      0x00\n      dup1\n      revert\n    tag_77:\n      pop\n      tag_78\n      tag_79\n      jump\t// in\n    tag_78:\n      mload(0x40)\n      tag_80\n      swap2\n      swap1\n      tag_28\n      jump\t// in\n    tag_80:\n      mload(0x40)\n      dup1\n      swap2\n      sub\n      swap1\n      return\n        /* \"CrowdFunding.sol\":248:266  uint public target */\n    tag_16:\n      callvalue\n      dup1\n      iszero\n      tag_81\n      jumpi\n      0x00\n      dup1\n      revert\n    tag_81:\n      pop\n      tag_82\n      tag_83\n      jump\t// in\n    tag_82:\n      mload(0x40)\n      tag_84\n      swap2\n      swap1\n      tag_28\n      jump\t// in\n    tag_84:\n      mload(0x40)\n      dup1\n      swap2\n      sub\n      swap1\n      return\n        /* \"CrowdFunding.sol\":834:1204  function sendEth() public payable {... */\n    tag_21:\n        /* \"CrowdFunding.sol\":905:913  deadline */\n      sload(0x03)\n        /* \"CrowdFunding.sol\":887:902  block.timestamp */\n      timestamp\n        /* \"CrowdFunding.sol\":887:913  block.timestamp < deadline */\n      lt\n        /* \"CrowdFunding.sol\":879:937  require(block.timestamp < deadline, \"Deadline has passed\") */\n      tag_86\n      jumpi\n      mload(0x40)\n      0x08c379a000000000000000000000000000000000000000000000000000000000\n      dup2\n      mstore\n      0x04\n      add\n      tag_87\n      swap1\n      tag_88\n      jump\t// in\n    tag_87:\n      mload(0x40)\n      dup1\n      swap2\n      sub\n      swap1\n      revert\n    tag_86:\n        /* \"CrowdFunding.sol\":969:988  minimumContribution */\n      sload(0x02)\n        /* \"CrowdFunding.sol\":956:965  msg.value */\n      callvalue\n        /* \"CrowdFunding.sol\":956:988  msg.value >= minimumContribution */\n      lt\n      iszero\n        /* \"CrowdFunding.sol\":948:1025  require(msg.value >= minimumContribution, \"Minimum contribution is not met.\") */\n      tag_89\n      jumpi\n      mload(0x40)\n      0x08c379a000000000000000000000000000000000000000000000000000000000\n      dup2\n      mstore\n      0x04\n      add\n      tag_90\n      swap1\n      tag_91\n      jump\t// in\n    tag_90:\n      mload(0x40)\n      dup1\n      swap2\n      sub\n      swap1\n      revert\n    tag_89:\n        /* \"CrowdFunding.sol\":1067:1068  0 */\n      0x00\n        /* \"CrowdFunding.sol\":1039:1051  contributors */\n      dup1\n        /* \"CrowdFunding.sol\":1039:1063  contributors[msg.sender] */\n      0x00\n        /* \"CrowdFunding.sol\":1052:1062  msg.sender */\n      caller\n        /* \"CrowdFunding.sol\":1039:1063  contributors[msg.sender] */\n      0xffffffffffffffffffffffffffffffffffffffff\n      and\n      0xffffffffffffffffffffffffffffffffffffffff\n      and\n      dup2\n      mstore\n      0x20\n      add\n      swap1\n      dup2\n      mstore\n      0x20\n      add\n      0x00\n      keccak256\n      sload\n        /* \"CrowdFunding.sol\":1039:1068  contributors[msg.sender] == 0 */\n      sub\n        /* \"CrowdFunding.sol\":1036:1115  if(contributors[msg.sender] == 0) {... */\n      tag_92\n      jumpi\n        /* \"CrowdFunding.sol\":1085:1101  noOfContributors */\n      0x06\n      0x00\n        /* \"CrowdFunding.sol\":1085:1103  noOfContributors++ */\n      dup2\n      sload\n      dup1\n      swap3\n      swap2\n      swap1\n      tag_93\n      swap1\n      tag_94\n      jump\t// in\n    tag_93:\n      swap2\n      swap1\n      pop\n      sstore\n      pop\n        /* \"CrowdFunding.sol\":1036:1115  if(contributors[msg.sender] == 0) {... */\n    tag_92:\n        /* \"CrowdFunding.sol\":1153:1162  msg.value */\n      callvalue\n        /* \"CrowdFunding.sol\":1125:1137  contributors */\n      0x00\n        /* \"CrowdFunding.sol\":1125:1149  contributors[msg.sender] */\n      dup1\n        /* \"CrowdFunding.sol\":1138:1148  msg.sender */\n      caller\n        /* \"CrowdFunding.sol\":1125:1149  contributors[msg.sender] */\n      0xffffffffffffffffffffffffffffffffffffffff\n      and\n      0xffffffffffffffffffffffffffffffffffffffff\n      and\n      dup2\n      mstore\n      0x20\n      add\n      swap1\n      dup2\n      mstore\n      0x20\n      add\n      0x00\n      keccak256\n      0x00\n        /* \"CrowdFunding.sol\":1125:1162  contributors[msg.sender] += msg.value */\n      dup3\n      dup3\n      sload\n      tag_95\n      swap2\n      swap1\n      tag_96\n      jump\t// in\n    tag_95:\n      swap3\n      pop\n      pop\n      dup2\n      swap1\n      sstore\n      pop\n        /* \"CrowdFunding.sol\":1187:1196  msg.value */\n      callvalue\n        /* \"CrowdFunding.sol\":1173:1185  raisedAmount */\n      0x05\n      0x00\n        /* \"CrowdFunding.sol\":1173:1196  raisedAmount+=msg.value */\n      dup3\n      dup3\n      sload\n      tag_97\n      swap2\n      swap1\n      tag_96\n      jump\t// in\n    tag_97:\n      swap3\n      pop\n      pop\n      dup2\n      swap1\n      sstore\n      pop\n        /* \"CrowdFunding.sol\":834:1204  function sendEth() public payable {... */\n      jump\t// out\n        /* \"CrowdFunding.sol\":105:147  mapping(address=>uint) public contributors */\n    tag_26:\n      mstore(0x20, 0x00)\n      dup1\n      0x00\n      mstore\n      keccak256(0x00, 0x40)\n      0x00\n      swap2\n      pop\n      swap1\n      pop\n      sload\n      dup2\n      jump\t// out\n        /* \"CrowdFunding.sol\":221:241  uint public deadline */\n    tag_31:\n      sload(0x03)\n      dup2\n      jump\t// out\n        /* \"CrowdFunding.sol\":1835:2203  function createRequests(string memory _description, address payable _recipient, uint _value) public onlyManager{... */\n    tag_37:\n        /* \"CrowdFunding.sol\":1762:1769  manager */\n      0x01\n      0x00\n      swap1\n      sload\n      swap1\n      0x0100\n      exp\n      swap1\n      div\n      0xffffffffffffffffffffffffffffffffffffffff\n      and\n        /* \"CrowdFunding.sol\":1750:1769  msg.sender==manager */\n      0xffffffffffffffffffffffffffffffffffffffff\n      and\n        /* \"CrowdFunding.sol\":1750:1760  msg.sender */\n      caller\n        /* \"CrowdFunding.sol\":1750:1769  msg.sender==manager */\n      0xffffffffffffffffffffffffffffffffffffffff\n      and\n      eq\n        /* \"CrowdFunding.sol\":1742:1809  require(msg.sender==manager, \"Only manager can call this function\") */\n      tag_99\n      jumpi\n      mload(0x40)\n      0x08c379a000000000000000000000000000000000000000000000000000000000\n      dup2\n      mstore\n      0x04\n      add\n      tag_100\n      swap1\n      tag_101\n      jump\t// in\n    tag_100:\n      mload(0x40)\n      dup1\n      swap2\n      sub\n      swap1\n      revert\n    tag_99:\n        /* \"CrowdFunding.sol\":1957:1983  Request storage newRequest */\n      0x00\n        /* \"CrowdFunding.sol\":1986:1994  requests */\n      0x07\n        /* \"CrowdFunding.sol\":1986:2007  requests[numRequests] */\n      0x00\n        /* \"CrowdFunding.sol\":1995:2006  numRequests */\n      sload(0x08)\n        /* \"CrowdFunding.sol\":1986:2007  requests[numRequests] */\n      dup2\n      mstore\n      0x20\n      add\n      swap1\n      dup2\n      mstore\n      0x20\n      add\n      0x00\n      keccak256\n        /* \"CrowdFunding.sol\":1957:2007  Request storage newRequest = requests[numRequests] */\n      swap1\n      pop\n        /* \"CrowdFunding.sol\":2018:2029  numRequests */\n      0x08\n      0x00\n        /* \"CrowdFunding.sol\":2018:2031  numRequests++ */\n      dup2\n      sload\n      dup1\n      swap3\n      swap2\n      swap1\n      tag_103\n      swap1\n      tag_94\n      jump\t// in\n    tag_103:\n      swap2\n      swap1\n      pop\n      sstore\n      pop\n        /* \"CrowdFunding.sol\":2067:2079  _description */\n      dup4\n        /* \"CrowdFunding.sol\":2042:2052  newRequest */\n      dup2\n        /* \"CrowdFunding.sol\":2042:2064  newRequest.description */\n      0x00\n      add\n        /* \"CrowdFunding.sol\":2042:2079  newRequest.description = _description */\n      swap1\n      dup2\n      tag_104\n      swap2\n      swap1\n      tag_105\n      jump\t// in\n    tag_104:\n      pop\n        /* \"CrowdFunding.sol\":2113:2123  _recipient */\n      dup3\n        /* \"CrowdFunding.sol\":2090:2100  newRequest */\n      dup2\n        /* \"CrowdFunding.sol\":2090:2110  newRequest.recipient */\n      0x01\n      add\n      0x00\n        /* \"CrowdFunding.sol\":2090:2123  newRequest.recipient = _recipient */\n      0x0100\n      exp\n      dup2\n      sload\n      dup2\n      0xffffffffffffffffffffffffffffffffffffffff\n      mul\n      not\n      and\n      swap1\n      dup4\n      0xffffffffffffffffffffffffffffffffffffffff\n      and\n      mul\n      or\n      swap1\n      sstore\n      pop\n        /* \"CrowdFunding.sol\":2153:2159  _value */\n      dup2\n        /* \"CrowdFunding.sol\":2134:2144  newRequest */\n      dup2\n        /* \"CrowdFunding.sol\":2134:2150  newRequest.value */\n      0x02\n      add\n        /* \"CrowdFunding.sol\":2134:2159  newRequest.value = _value */\n      dup2\n      swap1\n      sstore\n      pop\n        /* \"CrowdFunding.sol\":2194:2195  0 */\n      0x00\n        /* \"CrowdFunding.sol\":2170:2180  newRequest */\n      dup2\n        /* \"CrowdFunding.sol\":2170:2191  newRequest.noOfVoters */\n      0x04\n      add\n        /* \"CrowdFunding.sol\":2170:2195  newRequest.noOfVoters = 0 */\n      dup2\n      swap1\n      sstore\n      pop\n        /* \"CrowdFunding.sol\":1946:2203  {... */\n      pop\n        /* \"CrowdFunding.sol\":1835:2203  function createRequests(string memory _description, address payable _recipient, uint _value) public onlyManager{... */\n      pop\n      pop\n      pop\n      jump\t// out\n        /* \"CrowdFunding.sol\":154:176  address public manager */\n    tag_40:\n      0x01\n      0x00\n      swap1\n      sload\n      swap1\n      0x0100\n      exp\n      swap1\n      div\n      0xffffffffffffffffffffffffffffffffffffffff\n      and\n      dup2\n      jump\t// out\n        /* \"CrowdFunding.sol\":2211:2576  function voteRequest(uint _requestNo) public{... */\n    tag_47:\n        /* \"CrowdFunding.sol\":2301:2302  0 */\n      0x00\n        /* \"CrowdFunding.sol\":2274:2286  contributors */\n      dup1\n        /* \"CrowdFunding.sol\":2274:2298  contributors[msg.sender] */\n      0x00\n        /* \"CrowdFunding.sol\":2287:2297  msg.sender */\n      caller\n        /* \"CrowdFunding.sol\":2274:2298  contributors[msg.sender] */\n      0xffffffffffffffffffffffffffffffffffffffff\n      and\n      0xffffffffffffffffffffffffffffffffffffffff\n      and\n      dup2\n      mstore\n      0x20\n      add\n      swap1\n      dup2\n      mstore\n      0x20\n      add\n      0x00\n      keccak256\n      sload\n        /* \"CrowdFunding.sol\":2274:2302  contributors[msg.sender] > 0 */\n      gt\n        /* \"CrowdFunding.sol\":2266:2340  require(contributors[msg.sender] > 0, \"You must be a contributor to vote\") */\n      tag_107\n      jumpi\n      mload(0x40)\n      0x08c379a000000000000000000000000000000000000000000000000000000000\n      dup2\n      mstore\n      0x04\n      add\n      tag_108\n      swap1\n      tag_109\n      jump\t// in\n    tag_108:\n      mload(0x40)\n      dup1\n      swap2\n      sub\n      swap1\n      revert\n    tag_107:\n        /* \"CrowdFunding.sol\":2351:2378  Request storage thisRequest */\n      0x00\n        /* \"CrowdFunding.sol\":2381:2389  requests */\n      0x07\n        /* \"CrowdFunding.sol\":2381:2401  requests[_requestNo] */\n      0x00\n        /* \"CrowdFunding.sol\":2390:2400  _requestNo */\n      dup4\n        /* \"CrowdFunding.sol\":2381:2401  requests[_requestNo] */\n      dup2\n      mstore\n      0x20\n      add\n      swap1\n      dup2\n      mstore\n      0x20\n      add\n      0x00\n      keccak256\n        /* \"CrowdFunding.sol\":2351:2401  Request storage thisRequest = requests[_requestNo] */\n      swap1\n      pop\n        /* \"CrowdFunding.sol\":2454:2459  false */\n      0x00\n        /* \"CrowdFunding.sol\":2420:2459  thisRequest.voters[msg.sender] == false */\n      iszero\n      iszero\n        /* \"CrowdFunding.sol\":2420:2431  thisRequest */\n      dup2\n        /* \"CrowdFunding.sol\":2420:2438  thisRequest.voters */\n      0x05\n      add\n        /* \"CrowdFunding.sol\":2420:2450  thisRequest.voters[msg.sender] */\n      0x00\n        /* \"CrowdFunding.sol\":2439:2449  msg.sender */\n      caller\n        /* \"CrowdFunding.sol\":2420:2450  thisRequest.voters[msg.sender] */\n      0xffffffffffffffffffffffffffffffffffffffff\n      and\n      0xffffffffffffffffffffffffffffffffffffffff\n      and\n      dup2\n      mstore\n      0x20\n      add\n      swap1\n      dup2\n      mstore\n      0x20\n      add\n      0x00\n      keccak256\n      0x00\n      swap1\n      sload\n      swap1\n      0x0100\n      exp\n      swap1\n      div\n      0xff\n      and\n        /* \"CrowdFunding.sol\":2420:2459  thisRequest.voters[msg.sender] == false */\n      iszero\n      iszero\n      eq\n        /* \"CrowdFunding.sol\":2412:2487  require(thisRequest.voters[msg.sender] == false, \"You have already voted.\") */\n      tag_110\n      jumpi\n      mload(0x40)\n      0x08c379a000000000000000000000000000000000000000000000000000000000\n      dup2\n      mstore\n      0x04\n      add\n      tag_111\n      swap1\n      tag_112\n      jump\t// in\n    tag_111:\n      mload(0x40)\n      dup1\n      swap2\n      sub\n      swap1\n      revert\n    tag_110:\n        /* \"CrowdFunding.sol\":2529:2533  true */\n      0x01\n        /* \"CrowdFunding.sol\":2498:2509  thisRequest */\n      dup2\n        /* \"CrowdFunding.sol\":2498:2516  thisRequest.voters */\n      0x05\n      add\n        /* \"CrowdFunding.sol\":2498:2528  thisRequest.voters[msg.sender] */\n      0x00\n        /* \"CrowdFunding.sol\":2517:2527  msg.sender */\n      caller\n        /* \"CrowdFunding.sol\":2498:2528  thisRequest.voters[msg.sender] */\n      0xffffffffffffffffffffffffffffffffffffffff\n      and\n      0xffffffffffffffffffffffffffffffffffffffff\n      and\n      dup2\n      mstore\n      0x20\n      add\n      swap1\n      dup2\n      mstore\n      0x20\n      add\n      0x00\n      keccak256\n      0x00\n        /* \"CrowdFunding.sol\":2498:2533  thisRequest.voters[msg.sender]=true */\n      0x0100\n      exp\n      dup2\n      sload\n      dup2\n      0xff\n      mul\n      not\n      and\n      swap1\n      dup4\n      iszero\n      iszero\n      mul\n      or\n      swap1\n      sstore\n      pop\n        /* \"CrowdFunding.sol\":2544:2555  thisRequest */\n      dup1\n        /* \"CrowdFunding.sol\":2544:2566  thisRequest.noOfVoters */\n      0x04\n      add\n      0x00\n        /* \"CrowdFunding.sol\":2544:2568  thisRequest.noOfVoters++ */\n      dup2\n      sload\n      dup1\n      swap3\n      swap2\n      swap1\n      tag_113\n      swap1\n      tag_94\n      jump\t// in\n    tag_113:\n      swap2\n      swap1\n      pop\n      sstore\n      pop\n        /* \"CrowdFunding.sol\":2255:2576  {... */\n      pop\n        /* \"CrowdFunding.sol\":2211:2576  function voteRequest(uint _requestNo) public{... */\n      pop\n      jump\t// out\n        /* \"CrowdFunding.sol\":304:332  uint public noOfContributors */\n    tag_50:\n      sload(0x06)\n      dup2\n      jump\t// out\n        /* \"CrowdFunding.sol\":2584:3081  function makePayment(uint _requestNo) public onlyManager{... */\n    tag_55:\n        /* \"CrowdFunding.sol\":1762:1769  manager */\n      0x01\n      0x00\n      swap1\n      sload\n      swap1\n      0x0100\n      exp\n      swap1\n      div\n      0xffffffffffffffffffffffffffffffffffffffff\n      and\n        /* \"CrowdFunding.sol\":1750:1769  msg.sender==manager */\n      0xffffffffffffffffffffffffffffffffffffffff\n      and\n        /* \"CrowdFunding.sol\":1750:1760  msg.sender */\n      caller\n        /* \"CrowdFunding.sol\":1750:1769  msg.sender==manager */\n      0xffffffffffffffffffffffffffffffffffffffff\n      and\n      eq\n        /* \"CrowdFunding.sol\":1742:1809  require(msg.sender==manager, \"Only manager can call this function\") */\n      tag_115\n      jumpi\n      mload(0x40)\n      0x08c379a000000000000000000000000000000000000000000000000000000000\n      dup2\n      mstore\n      0x04\n      add\n      tag_116\n      swap1\n      tag_101\n      jump\t// in\n    tag_116:\n      mload(0x40)\n      dup1\n      swap2\n      sub\n      swap1\n      revert\n    tag_115:\n        /* \"CrowdFunding.sol\":2675:2681  target */\n      sload(0x04)\n        /* \"CrowdFunding.sol\":2659:2671  raisedAmount */\n      sload(0x05)\n        /* \"CrowdFunding.sol\":2659:2681  raisedAmount >= target */\n      lt\n      iszero\n        /* \"CrowdFunding.sol\":2651:2737  require(raisedAmount >= target, \"You can't perform this action, not sufficient funds\") */\n      tag_118\n      jumpi\n      mload(0x40)\n      0x08c379a000000000000000000000000000000000000000000000000000000000\n      dup2\n      mstore\n      0x04\n      add\n      tag_119\n      swap1\n      tag_120\n      jump\t// in\n    tag_119:\n      mload(0x40)\n      dup1\n      swap2\n      sub\n      swap1\n      revert\n    tag_118:\n        /* \"CrowdFunding.sol\":2748:2775  Request storage thisRequest */\n      0x00\n        /* \"CrowdFunding.sol\":2778:2786  requests */\n      0x07\n        /* \"CrowdFunding.sol\":2778:2798  requests[_requestNo] */\n      0x00\n        /* \"CrowdFunding.sol\":2787:2797  _requestNo */\n      dup4\n        /* \"CrowdFunding.sol\":2778:2798  requests[_requestNo] */\n      dup2\n      mstore\n      0x20\n      add\n      swap1\n      dup2\n      mstore\n      0x20\n      add\n      0x00\n      keccak256\n        /* \"CrowdFunding.sol\":2748:2798  Request storage thisRequest = requests[_requestNo] */\n      swap1\n      pop\n        /* \"CrowdFunding.sol\":2840:2845  false */\n      0x00\n        /* \"CrowdFunding.sol\":2817:2845  thisRequest.completed==false */\n      iszero\n      iszero\n        /* \"CrowdFunding.sol\":2817:2828  thisRequest */\n      dup2\n        /* \"CrowdFunding.sol\":2817:2838  thisRequest.completed */\n      0x03\n      add\n      0x00\n      swap1\n      sload\n      swap1\n      0x0100\n      exp\n      swap1\n      div\n      0xff\n      and\n        /* \"CrowdFunding.sol\":2817:2845  thisRequest.completed==false */\n      iszero\n      iszero\n      eq\n        /* \"CrowdFunding.sol\":2809:2882  require(thisRequest.completed==false, \"This request has been completed.\") */\n      tag_121\n      jumpi\n      mload(0x40)\n      0x08c379a000000000000000000000000000000000000000000000000000000000\n      dup2\n      mstore\n      0x04\n      add\n      tag_122\n      swap1\n      tag_123\n      jump\t// in\n    tag_122:\n      mload(0x40)\n      dup1\n      swap2\n      sub\n      swap1\n      revert\n    tag_121:\n        /* \"CrowdFunding.sol\":2945:2946  2 */\n      0x02\n        /* \"CrowdFunding.sol\":2926:2942  noOfContributors */\n      sload(0x06)\n        /* \"CrowdFunding.sol\":2926:2946  noOfContributors / 2 */\n      tag_124\n      swap2\n      swap1\n      tag_125\n      jump\t// in\n    tag_124:\n        /* \"CrowdFunding.sol\":2901:2912  thisRequest */\n      dup2\n        /* \"CrowdFunding.sol\":2901:2923  thisRequest.noOfVoters */\n      0x04\n      add\n      sload\n        /* \"CrowdFunding.sol\":2901:2946  thisRequest.noOfVoters > noOfContributors / 2 */\n      gt\n        /* \"CrowdFunding.sol\":2893:2973  require(thisRequest.noOfVoters > noOfContributors / 2, \"Majority donot support\") */\n      tag_126\n      jumpi\n      mload(0x40)\n      0x08c379a000000000000000000000000000000000000000000000000000000000\n      dup2\n      mstore\n      0x04\n      add\n      tag_127\n      swap1\n      tag_128\n      jump\t// in\n    tag_127:\n      mload(0x40)\n      dup1\n      swap2\n      sub\n      swap1\n      revert\n    tag_126:\n        /* \"CrowdFunding.sol\":2984:2995  thisRequest */\n      dup1\n        /* \"CrowdFunding.sol\":2984:3005  thisRequest.recipient */\n      0x01\n      add\n      0x00\n      swap1\n      sload\n      swap1\n      0x0100\n      exp\n      swap1\n      div\n      0xffffffffffffffffffffffffffffffffffffffff\n      and\n        /* \"CrowdFunding.sol\":2984:3014  thisRequest.recipient.transfer */\n      0xffffffffffffffffffffffffffffffffffffffff\n      and\n        /* \"CrowdFunding.sol\":2984:3033  thisRequest.recipient.transfer(thisRequest.value) */\n      0x08fc\n        /* \"CrowdFunding.sol\":3015:3026  thisRequest */\n      dup3\n        /* \"CrowdFunding.sol\":3015:3032  thisRequest.value */\n      0x02\n      add\n      sload\n        /* \"CrowdFunding.sol\":2984:3033  thisRequest.recipient.transfer(thisRequest.value) */\n      swap1\n      dup2\n      iszero\n      mul\n      swap1\n      mload(0x40)\n      0x00\n      mload(0x40)\n      dup1\n      dup4\n      sub\n      dup2\n      dup6\n      dup9\n      dup9\n      call\n      swap4\n      pop\n      pop\n      pop\n      pop\n      iszero\n      dup1\n      iszero\n      tag_130\n      jumpi\n      returndatasize\n      0x00\n      dup1\n      returndatacopy\n      revert(0x00, returndatasize)\n    tag_130:\n      pop\n        /* \"CrowdFunding.sol\":3069:3073  true */\n      0x01\n        /* \"CrowdFunding.sol\":3044:3073  thisRequest.completed == true */\n      iszero\n      iszero\n        /* \"CrowdFunding.sol\":3044:3055  thisRequest */\n      dup2\n        /* \"CrowdFunding.sol\":3044:3065  thisRequest.completed */\n      0x03\n      add\n      0x00\n      swap1\n      sload\n      swap1\n      0x0100\n      exp\n      swap1\n      pop\n      pop\n        /* \"CrowdFunding.sol\":3044:3073  thisRequest.completed == true */\n      pop\n        /* \"CrowdFunding.sol\":2640:3081  {... */\n      pop\n        /* \"CrowdFunding.sol\":2584:3081  function makePayment(uint _requestNo) public onlyManager{... */\n      pop\n      jump\t// out\n        /* \"CrowdFunding.sol\":1323:1700  function refund() public {... */\n    tag_58:\n        /* \"CrowdFunding.sol\":1385:1393  deadline */\n      sload(0x03)\n        /* \"CrowdFunding.sol\":1367:1382  block.timestamp */\n      timestamp\n        /* \"CrowdFunding.sol\":1367:1393  block.timestamp > deadline */\n      gt\n        /* \"CrowdFunding.sol\":1367:1418  block.timestamp > deadline && raisedAmount < target */\n      dup1\n      iszero\n      tag_132\n      jumpi\n      pop\n        /* \"CrowdFunding.sol\":1412:1418  target */\n      sload(0x04)\n        /* \"CrowdFunding.sol\":1397:1409  raisedAmount */\n      sload(0x05)\n        /* \"CrowdFunding.sol\":1397:1418  raisedAmount < target */\n      lt\n        /* \"CrowdFunding.sol\":1367:1418  block.timestamp > deadline && raisedAmount < target */\n    tag_132:\n        /* \"CrowdFunding.sol\":1359:1459  require(block.timestamp > deadline && raisedAmount < target, \"You are not eligible to get a refund\") */\n      tag_133\n      jumpi\n      mload(0x40)\n      0x08c379a000000000000000000000000000000000000000000000000000000000\n      dup2\n      mstore\n      0x04\n      add\n      tag_134\n      swap1\n      tag_135\n      jump\t// in\n    tag_134:\n      mload(0x40)\n      dup1\n      swap2\n      sub\n      swap1\n      revert\n    tag_133:\n        /* \"CrowdFunding.sol\":1505:1506  0 */\n      0x00\n        /* \"CrowdFunding.sol\":1478:1490  contributors */\n      dup1\n        /* \"CrowdFunding.sol\":1478:1502  contributors[msg.sender] */\n      0x00\n        /* \"CrowdFunding.sol\":1491:1501  msg.sender */\n      caller\n        /* \"CrowdFunding.sol\":1478:1502  contributors[msg.sender] */\n      0xffffffffffffffffffffffffffffffffffffffff\n      and\n      0xffffffffffffffffffffffffffffffffffffffff\n      and\n      dup2\n      mstore\n      0x20\n      add\n      swap1\n      dup2\n      mstore\n      0x20\n      add\n      0x00\n      keccak256\n      sload\n        /* \"CrowdFunding.sol\":1478:1506  contributors[msg.sender] > 0 */\n      gt\n        /* \"CrowdFunding.sol\":1470:1549  require(contributors[msg.sender] > 0, \"You are have not contributed anything.\") */\n      tag_136\n      jumpi\n      mload(0x40)\n      0x08c379a000000000000000000000000000000000000000000000000000000000\n      dup2\n      mstore\n      0x04\n      add\n      tag_137\n      swap1\n      tag_138\n      jump\t// in\n    tag_137:\n      mload(0x40)\n      dup1\n      swap2\n      sub\n      swap1\n      revert\n    tag_136:\n        /* \"CrowdFunding.sol\":1560:1580  address payable user */\n      0x00\n        /* \"CrowdFunding.sol\":1592:1602  msg.sender */\n      caller\n        /* \"CrowdFunding.sol\":1560:1603  address payable user = payable (msg.sender) */\n      swap1\n      pop\n        /* \"CrowdFunding.sol\":1614:1618  user */\n      dup1\n        /* \"CrowdFunding.sol\":1614:1627  user.transfer */\n      0xffffffffffffffffffffffffffffffffffffffff\n      and\n        /* \"CrowdFunding.sol\":1614:1653  user.transfer(contributors[msg.sender]) */\n      0x08fc\n        /* \"CrowdFunding.sol\":1628:1640  contributors */\n      0x00\n        /* \"CrowdFunding.sol\":1628:1652  contributors[msg.sender] */\n      dup1\n        /* \"CrowdFunding.sol\":1641:1651  msg.sender */\n      caller\n        /* \"CrowdFunding.sol\":1628:1652  contributors[msg.sender] */\n      0xffffffffffffffffffffffffffffffffffffffff\n      and\n      0xffffffffffffffffffffffffffffffffffffffff\n      and\n      dup2\n      mstore\n      0x20\n      add\n      swap1\n      dup2\n      mstore\n      0x20\n      add\n      0x00\n      keccak256\n      sload\n        /* \"CrowdFunding.sol\":1614:1653  user.transfer(contributors[msg.sender]) */\n      swap1\n      dup2\n      iszero\n      mul\n      swap1\n      mload(0x40)\n      0x00\n      mload(0x40)\n      dup1\n      dup4\n      sub\n      dup2\n      dup6\n      dup9\n      dup9\n      call\n      swap4\n      pop\n      pop\n      pop\n      pop\n      iszero\n      dup1\n      iszero\n      tag_140\n      jumpi\n      returndatasize\n      0x00\n      dup1\n      returndatacopy\n      revert(0x00, returndatasize)\n    tag_140:\n      pop\n        /* \"CrowdFunding.sol\":1691:1692  0 */\n      0x00\n        /* \"CrowdFunding.sol\":1664:1676  contributors */\n      dup1\n        /* \"CrowdFunding.sol\":1664:1688  contributors[msg.sender] */\n      0x00\n        /* \"CrowdFunding.sol\":1677:1687  msg.sender */\n      caller\n        /* \"CrowdFunding.sol\":1664:1688  contributors[msg.sender] */\n      0xffffffffffffffffffffffffffffffffffffffff\n      and\n      0xffffffffffffffffffffffffffffffffffffffff\n      and\n      dup2\n      mstore\n      0x20\n      add\n      swap1\n      dup2\n      mstore\n      0x20\n      add\n      0x00\n      keccak256\n        /* \"CrowdFunding.sol\":1664:1692  contributors[msg.sender] = 0 */\n      dup2\n      swap1\n      sstore\n      pop\n        /* \"CrowdFunding.sol\":1348:1700  {... */\n      pop\n        /* \"CrowdFunding.sol\":1323:1700  function refund() public {... */\n      jump\t// out\n        /* \"CrowdFunding.sol\":1212:1315  function getContractBalance() public view returns(uint) {... */\n    tag_61:\n        /* \"CrowdFunding.sol\":1262:1266  uint */\n      0x00\n        /* \"CrowdFunding.sol\":1286:1307  address(this).balance */\n      selfbalance\n        /* \"CrowdFunding.sol\":1279:1307  return address(this).balance */\n      swap1\n      pop\n        /* \"CrowdFunding.sol\":1212:1315  function getContractBalance() public view returns(uint) {... */\n      swap1\n      jump\t// out\n        /* \"CrowdFunding.sol\":754:795  mapping (uint => Request) public requests */\n    tag_66:\n      mstore(0x20, 0x07)\n      dup1\n      0x00\n      mstore\n      keccak256(0x00, 0x40)\n      0x00\n      swap2\n      pop\n      swap1\n      pop\n      dup1\n      0x00\n      add\n      dup1\n      sload\n      tag_142\n      swap1\n      tag_143\n      jump\t// in\n    tag_142:\n      dup1\n      0x1f\n      add\n      0x20\n      dup1\n      swap2\n      div\n      mul\n      0x20\n      add\n      mload(0x40)\n      swap1\n      dup2\n      add\n      0x40\n      mstore\n      dup1\n      swap3\n      swap2\n      swap1\n      dup2\n      dup2\n      mstore\n      0x20\n      add\n      dup3\n      dup1\n      sload\n      tag_144\n      swap1\n      tag_143\n      jump\t// in\n    tag_144:\n      dup1\n      iszero\n      tag_145\n      jumpi\n      dup1\n      0x1f\n      lt\n      tag_146\n      jumpi\n      0x0100\n      dup1\n      dup4\n      sload\n      div\n      mul\n      dup4\n      mstore\n      swap2\n      0x20\n      add\n      swap2\n      jump(tag_145)\n    tag_146:\n      dup3\n      add\n      swap2\n      swap1\n      0x00\n      mstore\n      keccak256(0x00, 0x20)\n      swap1\n    tag_147:\n      dup2\n      sload\n      dup2\n      mstore\n      swap1\n      0x01\n      add\n      swap1\n      0x20\n      add\n      dup1\n      dup4\n      gt\n      tag_147\n      jumpi\n      dup3\n      swap1\n      sub\n      0x1f\n      and\n      dup3\n      add\n      swap2\n    tag_145:\n      pop\n      pop\n      pop\n      pop\n      pop\n      swap1\n      dup1\n      0x01\n      add\n      0x00\n      swap1\n      sload\n      swap1\n      0x0100\n      exp\n      swap1\n      div\n      0xffffffffffffffffffffffffffffffffffffffff\n      and\n      swap1\n      dup1\n      0x02\n      add\n      sload\n      swap1\n      dup1\n      0x03\n      add\n      0x00\n      swap1\n      sload\n      swap1\n      0x0100\n      exp\n      swap1\n      div\n      0xff\n      and\n      swap1\n      dup1\n      0x04\n      add\n      sload\n      swap1\n      pop\n      dup6\n      jump\t// out\n        /* \"CrowdFunding.sol\":183:214  uint public minimumContribution */\n    tag_71:\n      sload(0x02)\n      dup2\n      jump\t// out\n        /* \"CrowdFunding.sol\":802:825  uint public numRequests */\n    tag_75:\n      sload(0x08)\n      dup2\n      jump\t// out\n        /* \"CrowdFunding.sol\":273:297  uint public raisedAmount */\n    tag_79:\n      sload(0x05)\n      dup2\n      jump\t// out\n        /* \"CrowdFunding.sol\":248:266  uint public target */\n    tag_83:\n      sload(0x04)\n      dup2\n      jump\t// out\n        /* \"#utility.yul\":7:82   */\n    tag_148:\n        /* \"#utility.yul\":40:46   */\n      0x00\n        /* \"#utility.yul\":73:75   */\n      0x40\n        /* \"#utility.yul\":67:76   */\n      mload\n        /* \"#utility.yul\":57:76   */\n      swap1\n      pop\n        /* \"#utility.yul\":7:82   */\n      swap1\n      jump\t// out\n        /* \"#utility.yul\":88:205   */\n    tag_149:\n        /* \"#utility.yul\":197:198   */\n      0x00\n        /* \"#utility.yul\":194:195   */\n      dup1\n        /* \"#utility.yul\":187:199   */\n      revert\n        /* \"#utility.yul\":211:328   */\n    tag_150:\n        /* \"#utility.yul\":320:321   */\n      0x00\n        /* \"#utility.yul\":317:318   */\n      dup1\n        /* \"#utility.yul\":310:322   */\n      revert\n        /* \"#utility.yul\":334:460   */\n    tag_151:\n        /* \"#utility.yul\":371:378   */\n      0x00\n        /* \"#utility.yul\":411:453   */\n      0xffffffffffffffffffffffffffffffffffffffff\n        /* \"#utility.yul\":404:409   */\n      dup3\n        /* \"#utility.yul\":400:454   */\n      and\n        /* \"#utility.yul\":389:454   */\n      swap1\n      pop\n        /* \"#utility.yul\":334:460   */\n      swap2\n      swap1\n      pop\n      jump\t// out\n        /* \"#utility.yul\":466:562   */\n    tag_152:\n        /* \"#utility.yul\":503:510   */\n      0x00\n        /* \"#utility.yul\":532:556   */\n      tag_224\n        /* \"#utility.yul\":550:555   */\n      dup3\n        /* \"#utility.yul\":532:556   */\n      tag_151\n      jump\t// in\n    tag_224:\n        /* \"#utility.yul\":521:556   */\n      swap1\n      pop\n        /* \"#utility.yul\":466:562   */\n      swap2\n      swap1\n      pop\n      jump\t// out\n        /* \"#utility.yul\":568:690   */\n    tag_153:\n        /* \"#utility.yul\":641:665   */\n      tag_226\n        /* \"#utility.yul\":659:664   */\n      dup2\n        /* \"#utility.yul\":641:665   */\n      tag_152\n      jump\t// in\n    tag_226:\n        /* \"#utility.yul\":634:639   */\n      dup2\n        /* \"#utility.yul\":631:666   */\n      eq\n        /* \"#utility.yul\":621:684   */\n      tag_227\n      jumpi\n        /* \"#utility.yul\":680:681   */\n      0x00\n        /* \"#utility.yul\":677:678   */\n      dup1\n        /* \"#utility.yul\":670:682   */\n      revert\n        /* \"#utility.yul\":621:684   */\n    tag_227:\n        /* \"#utility.yul\":568:690   */\n      pop\n      jump\t// out\n        /* \"#utility.yul\":696:835   */\n    tag_154:\n        /* \"#utility.yul\":742:747   */\n      0x00\n        /* \"#utility.yul\":780:786   */\n      dup2\n        /* \"#utility.yul\":767:787   */\n      calldataload\n        /* \"#utility.yul\":758:787   */\n      swap1\n      pop\n        /* \"#utility.yul\":796:829   */\n      tag_229\n        /* \"#utility.yul\":823:828   */\n      dup2\n        /* \"#utility.yul\":796:829   */\n      tag_153\n      jump\t// in\n    tag_229:\n        /* \"#utility.yul\":696:835   */\n      swap3\n      swap2\n      pop\n      pop\n      jump\t// out\n        /* \"#utility.yul\":841:1170   */\n    tag_25:\n        /* \"#utility.yul\":900:906   */\n      0x00\n        /* \"#utility.yul\":949:951   */\n      0x20\n        /* \"#utility.yul\":937:946   */\n      dup3\n        /* \"#utility.yul\":928:935   */\n      dup5\n        /* \"#utility.yul\":924:947   */\n      sub\n        /* \"#utility.yul\":920:952   */\n      slt\n        /* \"#utility.yul\":917:1036   */\n      iszero\n      tag_231\n      jumpi\n        /* \"#utility.yul\":955:1034   */\n      tag_232\n      tag_149\n      jump\t// in\n    tag_232:\n        /* \"#utility.yul\":917:1036   */\n    tag_231:\n        /* \"#utility.yul\":1075:1076   */\n      0x00\n        /* \"#utility.yul\":1100:1153   */\n      tag_233\n        /* \"#utility.yul\":1145:1152   */\n      dup5\n        /* \"#utility.yul\":1136:1142   */\n      dup3\n        /* \"#utility.yul\":1125:1134   */\n      dup6\n        /* \"#utility.yul\":1121:1143   */\n      add\n        /* \"#utility.yul\":1100:1153   */\n      tag_154\n      jump\t// in\n    tag_233:\n        /* \"#utility.yul\":1090:1153   */\n      swap2\n      pop\n        /* \"#utility.yul\":1046:1163   */\n      pop\n        /* \"#utility.yul\":841:1170   */\n      swap3\n      swap2\n      pop\n      pop\n      jump\t// out\n        /* \"#utility.yul\":1176:1253   */\n    tag_155:\n        /* \"#utility.yul\":1213:1220   */\n      0x00\n        /* \"#utility.yul\":1242:1247   */\n      dup2\n        /* \"#utility.yul\":1231:1247   */\n      swap1\n      pop\n        /* \"#utility.yul\":1176:1253   */\n      swap2\n      swap1\n      pop\n      jump\t// out\n        /* \"#utility.yul\":1259:1377   */\n    tag_156:\n        /* \"#utility.yul\":1346:1370   */\n      tag_236\n        /* \"#utility.yul\":1364:1369   */\n      dup2\n        /* \"#utility.yul\":1346:1370   */\n      tag_155\n      jump\t// in\n    tag_236:\n        /* \"#utility.yul\":1341:1344   */\n      dup3\n        /* \"#utility.yul\":1334:1371   */\n      mstore\n        /* \"#utility.yul\":1259:1377   */\n      pop\n      pop\n      jump\t// out\n        /* \"#utility.yul\":1383:1605   */\n    tag_28:\n        /* \"#utility.yul\":1476:1480   */\n      0x00\n        /* \"#utility.yul\":1514:1516   */\n      0x20\n        /* \"#utility.yul\":1503:1512   */\n      dup3\n        /* \"#utility.yul\":1499:1517   */\n      add\n        /* \"#utility.yul\":1491:1517   */\n      swap1\n      pop\n        /* \"#utility.yul\":1527:1598   */\n      tag_238\n        /* \"#utility.yul\":1595:1596   */\n      0x00\n        /* \"#utility.yul\":1584:1593   */\n      dup4\n        /* \"#utility.yul\":1580:1597   */\n      add\n        /* \"#utility.yul\":1571:1577   */\n      dup5\n        /* \"#utility.yul\":1527:1598   */\n      tag_156\n      jump\t// in\n    tag_238:\n        /* \"#utility.yul\":1383:1605   */\n      swap3\n      swap2\n      pop\n      pop\n      jump\t// out\n        /* \"#utility.yul\":1611:1728   */\n    tag_157:\n        /* \"#utility.yul\":1720:1721   */\n      0x00\n        /* \"#utility.yul\":1717:1718   */\n      dup1\n        /* \"#utility.yul\":1710:1722   */\n      revert\n        /* \"#utility.yul\":1734:1851   */\n    tag_158:\n        /* \"#utility.yul\":1843:1844   */\n      0x00\n        /* \"#utility.yul\":1840:1841   */\n      dup1\n        /* \"#utility.yul\":1833:1845   */\n      revert\n        /* \"#utility.yul\":1857:1959   */\n    tag_159:\n        /* \"#utility.yul\":1898:1904   */\n      0x00\n        /* \"#utility.yul\":1949:1951   */\n      0x1f\n        /* \"#utility.yul\":1945:1952   */\n      not\n        /* \"#utility.yul\":1940:1942   */\n      0x1f\n        /* \"#utility.yul\":1933:1938   */\n      dup4\n        /* \"#utility.yul\":1929:1943   */\n      add\n        /* \"#utility.yul\":1925:1953   */\n      and\n        /* \"#utility.yul\":1915:1953   */\n      swap1\n      pop\n        /* \"#utility.yul\":1857:1959   */\n      swap2\n      swap1\n      pop\n      jump\t// out\n        /* \"#utility.yul\":1965:2145   */\n    tag_160:\n        /* \"#utility.yul\":2013:2090   */\n      0x4e487b7100000000000000000000000000000000000000000000000000000000\n        /* \"#utility.yul\":2010:2011   */\n      0x00\n        /* \"#utility.yul\":2003:2091   */\n      mstore\n        /* \"#utility.yul\":2110:2114   */\n      0x41\n        /* \"#utility.yul\":2107:2108   */\n      0x04\n        /* \"#utility.yul\":2100:2115   */\n      mstore\n        /* \"#utility.yul\":2134:2138   */\n      0x24\n        /* \"#utility.yul\":2131:2132   */\n      0x00\n        /* \"#utility.yul\":2124:2139   */\n      revert\n        /* \"#utility.yul\":2151:2432   */\n    tag_161:\n        /* \"#utility.yul\":2234:2261   */\n      tag_244\n        /* \"#utility.yul\":2256:2260   */\n      dup3\n        /* \"#utility.yul\":2234:2261   */\n      tag_159\n      jump\t// in\n    tag_244:\n        /* \"#utility.yul\":2226:2232   */\n      dup2\n        /* \"#utility.yul\":2222:2262   */\n      add\n        /* \"#utility.yul\":2364:2370   */\n      dup2\n        /* \"#utility.yul\":2352:2362   */\n      dup2\n        /* \"#utility.yul\":2349:2371   */\n      lt\n        /* \"#utility.yul\":2328:2346   */\n      0xffffffffffffffff\n        /* \"#utility.yul\":2316:2326   */\n      dup3\n        /* \"#utility.yul\":2313:2347   */\n      gt\n        /* \"#utility.yul\":2310:2372   */\n      or\n        /* \"#utility.yul\":2307:2395   */\n      iszero\n      tag_245\n      jumpi\n        /* \"#utility.yul\":2375:2393   */\n      tag_246\n      tag_160\n      jump\t// in\n    tag_246:\n        /* \"#utility.yul\":2307:2395   */\n    tag_245:\n        /* \"#utility.yul\":2415:2425   */\n      dup1\n        /* \"#utility.yul\":2411:2413   */\n      0x40\n        /* \"#utility.yul\":2404:2426   */\n      mstore\n        /* \"#utility.yul\":2194:2432   */\n      pop\n        /* \"#utility.yul\":2151:2432   */\n      pop\n      pop\n      jump\t// out\n        /* \"#utility.yul\":2438:2567   */\n    tag_162:\n        /* \"#utility.yul\":2472:2478   */\n      0x00\n        /* \"#utility.yul\":2499:2519   */\n      tag_248\n      tag_148\n      jump\t// in\n    tag_248:\n        /* \"#utility.yul\":2489:2519   */\n      swap1\n      pop\n        /* \"#utility.yul\":2528:2561   */\n      tag_249\n        /* \"#utility.yul\":2556:2560   */\n      dup3\n        /* \"#utility.yul\":2548:2554   */\n      dup3\n        /* \"#utility.yul\":2528:2561   */\n      tag_161\n      jump\t// in\n    tag_249:\n        /* \"#utility.yul\":2438:2567   */\n      swap2\n      swap1\n      pop\n      jump\t// out\n        /* \"#utility.yul\":2573:2881   */\n    tag_163:\n        /* \"#utility.yul\":2635:2639   */\n      0x00\n        /* \"#utility.yul\":2725:2743   */\n      0xffffffffffffffff\n        /* \"#utility.yul\":2717:2723   */\n      dup3\n        /* \"#utility.yul\":2714:2744   */\n      gt\n        /* \"#utility.yul\":2711:2767   */\n      iszero\n      tag_251\n      jumpi\n        /* \"#utility.yul\":2747:2765   */\n      tag_252\n      tag_160\n      jump\t// in\n    tag_252:\n        /* \"#utility.yul\":2711:2767   */\n    tag_251:\n        /* \"#utility.yul\":2785:2814   */\n      tag_253\n        /* \"#utility.yul\":2807:2813   */\n      dup3\n        /* \"#utility.yul\":2785:2814   */\n      tag_159\n      jump\t// in\n    tag_253:\n        /* \"#utility.yul\":2777:2814   */\n      swap1\n      pop\n        /* \"#utility.yul\":2869:2873   */\n      0x20\n        /* \"#utility.yul\":2863:2867   */\n      dup2\n        /* \"#utility.yul\":2859:2874   */\n      add\n        /* \"#utility.yul\":2851:2874   */\n      swap1\n      pop\n        /* \"#utility.yul\":2573:2881   */\n      swap2\n      swap1\n      pop\n      jump\t// out\n        /* \"#utility.yul\":2887:3033   */\n    tag_164:\n        /* \"#utility.yul\":2984:2990   */\n      dup3\n        /* \"#utility.yul\":2979:2982   */\n      dup2\n        /* \"#utility.yul\":2974:2977   */\n      dup4\n        /* \"#utility.yul\":2961:2991   */\n      calldatacopy\n        /* \"#utility.yul\":3025:3026   */\n      0x00\n        /* \"#utility.yul\":3016:3022   */\n      dup4\n        /* \"#utility.yul\":3011:3014   */\n      dup4\n        /* \"#utility.yul\":3007:3023   */\n      add\n        /* \"#utility.yul\":3000:3027   */\n      mstore\n        /* \"#utility.yul\":2887:3033   */\n      pop\n      pop\n      pop\n      jump\t// out\n        /* \"#utility.yul\":3039:3464   */\n    tag_165:\n        /* \"#utility.yul\":3117:3122   */\n      0x00\n        /* \"#utility.yul\":3142:3208   */\n      tag_256\n        /* \"#utility.yul\":3158:3207   */\n      tag_257\n        /* \"#utility.yul\":3200:3206   */\n      dup5\n        /* \"#utility.yul\":3158:3207   */\n      tag_163\n      jump\t// in\n    tag_257:\n        /* \"#utility.yul\":3142:3208   */\n      tag_162\n      jump\t// in\n    tag_256:\n        /* \"#utility.yul\":3133:3208   */\n      swap1\n      pop\n        /* \"#utility.yul\":3231:3237   */\n      dup3\n        /* \"#utility.yul\":3224:3229   */\n      dup2\n        /* \"#utility.yul\":3217:3238   */\n      mstore\n        /* \"#utility.yul\":3269:3273   */\n      0x20\n        /* \"#utility.yul\":3262:3267   */\n      dup2\n        /* \"#utility.yul\":3258:3274   */\n      add\n        /* \"#utility.yul\":3307:3310   */\n      dup5\n        /* \"#utility.yul\":3298:3304   */\n      dup5\n        /* \"#utility.yul\":3293:3296   */\n      dup5\n        /* \"#utility.yul\":3289:3305   */\n      add\n        /* \"#utility.yul\":3286:3311   */\n      gt\n        /* \"#utility.yul\":3283:3395   */\n      iszero\n      tag_258\n      jumpi\n        /* \"#utility.yul\":3314:3393   */\n      tag_259\n      tag_158\n      jump\t// in\n    tag_259:\n        /* \"#utility.yul\":3283:3395   */\n    tag_258:\n        /* \"#utility.yul\":3404:3458   */\n      tag_260\n        /* \"#utility.yul\":3451:3457   */\n      dup5\n        /* \"#utility.yul\":3446:3449   */\n      dup3\n        /* \"#utility.yul\":3441:3444   */\n      dup6\n        /* \"#utility.yul\":3404:3458   */\n      tag_164\n      jump\t// in\n    tag_260:\n        /* \"#utility.yul\":3123:3464   */\n      pop\n        /* \"#utility.yul\":3039:3464   */\n      swap4\n      swap3\n      pop\n      pop\n      pop\n      jump\t// out\n        /* \"#utility.yul\":3484:3824   */\n    tag_166:\n        /* \"#utility.yul\":3540:3545   */\n      0x00\n        /* \"#utility.yul\":3589:3592   */\n      dup3\n        /* \"#utility.yul\":3582:3586   */\n      0x1f\n        /* \"#utility.yul\":3574:3580   */\n      dup4\n        /* \"#utility.yul\":3570:3587   */\n      add\n        /* \"#utility.yul\":3566:3593   */\n      slt\n        /* \"#utility.yul\":3556:3678   */\n      tag_262\n      jumpi\n        /* \"#utility.yul\":3597:3676   */\n      tag_263\n      tag_157\n      jump\t// in\n    tag_263:\n        /* \"#utility.yul\":3556:3678   */\n    tag_262:\n        /* \"#utility.yul\":3714:3720   */\n      dup2\n        /* \"#utility.yul\":3701:3721   */\n      calldataload\n        /* \"#utility.yul\":3739:3818   */\n      tag_264\n        /* \"#utility.yul\":3814:3817   */\n      dup5\n        /* \"#utility.yul\":3806:3812   */\n      dup3\n        /* \"#utility.yul\":3799:3803   */\n      0x20\n        /* \"#utility.yul\":3791:3797   */\n      dup7\n        /* \"#utility.yul\":3787:3804   */\n      add\n        /* \"#utility.yul\":3739:3818   */\n      tag_165\n      jump\t// in\n    tag_264:\n        /* \"#utility.yul\":3730:3818   */\n      swap2\n      pop\n        /* \"#utility.yul\":3546:3824   */\n      pop\n        /* \"#utility.yul\":3484:3824   */\n      swap3\n      swap2\n      pop\n      pop\n      jump\t// out\n        /* \"#utility.yul\":3830:3934   */\n    tag_167:\n        /* \"#utility.yul\":3875:3882   */\n      0x00\n        /* \"#utility.yul\":3904:3928   */\n      tag_266\n        /* \"#utility.yul\":3922:3927   */\n      dup3\n        /* \"#utility.yul\":3904:3928   */\n      tag_151\n      jump\t// in\n    tag_266:\n        /* \"#utility.yul\":3893:3928   */\n      swap1\n      pop\n        /* \"#utility.yul\":3830:3934   */\n      swap2\n      swap1\n      pop\n      jump\t// out\n        /* \"#utility.yul\":3940:4078   */\n    tag_168:\n        /* \"#utility.yul\":4021:4053   */\n      tag_268\n        /* \"#utility.yul\":4047:4052   */\n      dup2\n        /* \"#utility.yul\":4021:4053   */\n      tag_167\n      jump\t// in\n    tag_268:\n        /* \"#utility.yul\":4014:4019   */\n      dup2\n        /* \"#utility.yul\":4011:4054   */\n      eq\n        /* \"#utility.yul\":4001:4072   */\n      tag_269\n      jumpi\n        /* \"#utility.yul\":4068:4069   */\n      0x00\n        /* \"#utility.yul\":4065:4066   */\n      dup1\n        /* \"#utility.yul\":4058:4070   */\n      revert\n        /* \"#utility.yul\":4001:4072   */\n    tag_269:\n        /* \"#utility.yul\":3940:4078   */\n      pop\n      jump\t// out\n        /* \"#utility.yul\":4084:4239   */\n    tag_169:\n        /* \"#utility.yul\":4138:4143   */\n      0x00\n        /* \"#utility.yul\":4176:4182   */\n      dup2\n        /* \"#utility.yul\":4163:4183   */\n      calldataload\n        /* \"#utility.yul\":4154:4183   */\n      swap1\n      pop\n        /* \"#utility.yul\":4192:4233   */\n      tag_271\n        /* \"#utility.yul\":4227:4232   */\n      dup2\n        /* \"#utility.yul\":4192:4233   */\n      tag_168\n      jump\t// in\n    tag_271:\n        /* \"#utility.yul\":4084:4239   */\n      swap3\n      swap2\n      pop\n      pop\n      jump\t// out\n        /* \"#utility.yul\":4245:4367   */\n    tag_170:\n        /* \"#utility.yul\":4318:4342   */\n      tag_273\n        /* \"#utility.yul\":4336:4341   */\n      dup2\n        /* \"#utility.yul\":4318:4342   */\n      tag_155\n      jump\t// in\n    tag_273:\n        /* \"#utility.yul\":4311:4316   */\n      dup2\n        /* \"#utility.yul\":4308:4343   */\n      eq\n        /* \"#utility.yul\":4298:4361   */\n      tag_274\n      jumpi\n        /* \"#utility.yul\":4357:4358   */\n      0x00\n        /* \"#utility.yul\":4354:4355   */\n      dup1\n        /* \"#utility.yul\":4347:4359   */\n      revert\n        /* \"#utility.yul\":4298:4361   */\n    tag_274:\n        /* \"#utility.yul\":4245:4367   */\n      pop\n      jump\t// out\n        /* \"#utility.yul\":4373:4512   */\n    tag_171:\n        /* \"#utility.yul\":4419:4424   */\n      0x00\n        /* \"#utility.yul\":4457:4463   */\n      dup2\n        /* \"#utility.yul\":4444:4464   */\n      calldataload\n        /* \"#utility.yul\":4435:4464   */\n      swap1\n      pop\n        /* \"#utility.yul\":4473:4506   */\n      tag_276\n        /* \"#utility.yul\":4500:4505   */\n      dup2\n        /* \"#utility.yul\":4473:4506   */\n      tag_170\n      jump\t// in\n    tag_276:\n        /* \"#utility.yul\":4373:4512   */\n      swap3\n      swap2\n      pop\n      pop\n      jump\t// out\n        /* \"#utility.yul\":4518:5333   */\n    tag_36:\n        /* \"#utility.yul\":4613:4619   */\n      0x00\n        /* \"#utility.yul\":4621:4627   */\n      dup1\n        /* \"#utility.yul\":4629:4635   */\n      0x00\n        /* \"#utility.yul\":4678:4680   */\n      0x60\n        /* \"#utility.yul\":4666:4675   */\n      dup5\n        /* \"#utility.yul\":4657:4664   */\n      dup7\n        /* \"#utility.yul\":4653:4676   */\n      sub\n        /* \"#utility.yul\":4649:4681   */\n      slt\n        /* \"#utility.yul\":4646:4765   */\n      iszero\n      tag_278\n      jumpi\n        /* \"#utility.yul\":4684:4763   */\n      tag_279\n      tag_149\n      jump\t// in\n    tag_279:\n        /* \"#utility.yul\":4646:4765   */\n    tag_278:\n        /* \"#utility.yul\":4832:4833   */\n      0x00\n        /* \"#utility.yul\":4821:4830   */\n      dup5\n        /* \"#utility.yul\":4817:4834   */\n      add\n        /* \"#utility.yul\":4804:4835   */\n      calldataload\n        /* \"#utility.yul\":4862:4880   */\n      0xffffffffffffffff\n        /* \"#utility.yul\":4854:4860   */\n      dup2\n        /* \"#utility.yul\":4851:4881   */\n      gt\n        /* \"#utility.yul\":4848:4965   */\n      iszero\n      tag_280\n      jumpi\n        /* \"#utility.yul\":4884:4963   */\n      tag_281\n      tag_150\n      jump\t// in\n    tag_281:\n        /* \"#utility.yul\":4848:4965   */\n    tag_280:\n        /* \"#utility.yul\":4989:5052   */\n      tag_282\n        /* \"#utility.yul\":5044:5051   */\n      dup7\n        /* \"#utility.yul\":5035:5041   */\n      dup3\n        /* \"#utility.yul\":5024:5033   */\n      dup8\n        /* \"#utility.yul\":5020:5042   */\n      add\n        /* \"#utility.yul\":4989:5052   */\n      tag_166\n      jump\t// in\n    tag_282:\n        /* \"#utility.yul\":4979:5052   */\n      swap4\n      pop\n        /* \"#utility.yul\":4775:5062   */\n      pop\n        /* \"#utility.yul\":5101:5103   */\n      0x20\n        /* \"#utility.yul\":5127:5188   */\n      tag_283\n        /* \"#utility.yul\":5180:5187   */\n      dup7\n        /* \"#utility.yul\":5171:5177   */\n      dup3\n        /* \"#utility.yul\":5160:5169   */\n      dup8\n        /* \"#utility.yul\":5156:5178   */\n      add\n        /* \"#utility.yul\":5127:5188   */\n      tag_169\n      jump\t// in\n    tag_283:\n        /* \"#utility.yul\":5117:5188   */\n      swap3\n      pop\n        /* \"#utility.yul\":5072:5198   */\n      pop\n        /* \"#utility.yul\":5237:5239   */\n      0x40\n        /* \"#utility.yul\":5263:5316   */\n      tag_284\n        /* \"#utility.yul\":5308:5315   */\n      dup7\n        /* \"#utility.yul\":5299:5305   */\n      dup3\n        /* \"#utility.yul\":5288:5297   */\n      dup8\n        /* \"#utility.yul\":5284:5306   */\n      add\n        /* \"#utility.yul\":5263:5316   */\n      tag_171\n      jump\t// in\n    tag_284:\n        /* \"#utility.yul\":5253:5316   */\n      swap2\n      pop\n        /* \"#utility.yul\":5208:5326   */\n      pop\n        /* \"#utility.yul\":4518:5333   */\n      swap3\n      pop\n      swap3\n      pop\n      swap3\n      jump\t// out\n        /* \"#utility.yul\":5339:5457   */\n    tag_172:\n        /* \"#utility.yul\":5426:5450   */\n      tag_286\n        /* \"#utility.yul\":5444:5449   */\n      dup2\n        /* \"#utility.yul\":5426:5450   */\n      tag_152\n      jump\t// in\n    tag_286:\n        /* \"#utility.yul\":5421:5424   */\n      dup3\n        /* \"#utility.yul\":5414:5451   */\n      mstore\n        /* \"#utility.yul\":5339:5457   */\n      pop\n      pop\n      jump\t// out\n        /* \"#utility.yul\":5463:5685   */\n    tag_42:\n        /* \"#utility.yul\":5556:5560   */\n      0x00\n        /* \"#utility.yul\":5594:5596   */\n      0x20\n        /* \"#utility.yul\":5583:5592   */\n      dup3\n        /* \"#utility.yul\":5579:5597   */\n      add\n        /* \"#utility.yul\":5571:5597   */\n      swap1\n      pop\n        /* \"#utility.yul\":5607:5678   */\n      tag_288\n        /* \"#utility.yul\":5675:5676   */\n      0x00\n        /* \"#utility.yul\":5664:5673   */\n      dup4\n        /* \"#utility.yul\":5660:5677   */\n      add\n        /* \"#utility.yul\":5651:5657   */\n      dup5\n        /* \"#utility.yul\":5607:5678   */\n      tag_172\n      jump\t// in\n    tag_288:\n        /* \"#utility.yul\":5463:5685   */\n      swap3\n      swap2\n      pop\n      pop\n      jump\t// out\n        /* \"#utility.yul\":5691:6020   */\n    tag_46:\n        /* \"#utility.yul\":5750:5756   */\n      0x00\n        /* \"#utility.yul\":5799:5801   */\n      0x20\n        /* \"#utility.yul\":5787:5796   */\n      dup3\n        /* \"#utility.yul\":5778:5785   */\n      dup5\n        /* \"#utility.yul\":5774:5797   */\n      sub\n        /* \"#utility.yul\":5770:5802   */\n      slt\n        /* \"#utility.yul\":5767:5886   */\n      iszero\n      tag_290\n      jumpi\n        /* \"#utility.yul\":5805:5884   */\n      tag_291\n      tag_149\n      jump\t// in\n    tag_291:\n        /* \"#utility.yul\":5767:5886   */\n    tag_290:\n        /* \"#utility.yul\":5925:5926   */\n      0x00\n        /* \"#utility.yul\":5950:6003   */\n      tag_292\n        /* \"#utility.yul\":5995:6002   */\n      dup5\n        /* \"#utility.yul\":5986:5992   */\n      dup3\n        /* \"#utility.yul\":5975:5984   */\n      dup6\n        /* \"#utility.yul\":5971:5993   */\n      add\n        /* \"#utility.yul\":5950:6003   */\n      tag_171\n      jump\t// in\n    tag_292:\n        /* \"#utility.yul\":5940:6003   */\n      swap2\n      pop\n        /* \"#utility.yul\":5896:6013   */\n      pop\n        /* \"#utility.yul\":5691:6020   */\n      swap3\n      swap2\n      pop\n      pop\n      jump\t// out\n        /* \"#utility.yul\":6026:6125   */\n    tag_173:\n        /* \"#utility.yul\":6078:6084   */\n      0x00\n        /* \"#utility.yul\":6112:6117   */\n      dup2\n        /* \"#utility.yul\":6106:6118   */\n      mload\n        /* \"#utility.yul\":6096:6118   */\n      swap1\n      pop\n        /* \"#utility.yul\":6026:6125   */\n      swap2\n      swap1\n      pop\n      jump\t// out\n        /* \"#utility.yul\":6131:6300   */\n    tag_174:\n        /* \"#utility.yul\":6215:6226   */\n      0x00\n        /* \"#utility.yul\":6249:6255   */\n      dup3\n        /* \"#utility.yul\":6244:6247   */\n      dup3\n        /* \"#utility.yul\":6237:6256   */\n      mstore\n        /* \"#utility.yul\":6289:6293   */\n      0x20\n        /* \"#utility.yul\":6284:6287   */\n      dup3\n        /* \"#utility.yul\":6280:6294   */\n      add\n        /* \"#utility.yul\":6265:6294   */\n      swap1\n      pop\n        /* \"#utility.yul\":6131:6300   */\n      swap3\n      swap2\n      pop\n      pop\n      jump\t// out\n        /* \"#utility.yul\":6306:6552   */\n    tag_175:\n        /* \"#utility.yul\":6387:6388   */\n      0x00\n        /* \"#utility.yul\":6397:6510   */\n    tag_296:\n        /* \"#utility.yul\":6411:6417   */\n      dup4\n        /* \"#utility.yul\":6408:6409   */\n      dup2\n        /* \"#utility.yul\":6405:6418   */\n      lt\n        /* \"#utility.yul\":6397:6510   */\n      iszero\n      tag_298\n      jumpi\n        /* \"#utility.yul\":6496:6497   */\n      dup1\n        /* \"#utility.yul\":6491:6494   */\n      dup3\n        /* \"#utility.yul\":6487:6498   */\n      add\n        /* \"#utility.yul\":6481:6499   */\n      mload\n        /* \"#utility.yul\":6477:6478   */\n      dup2\n        /* \"#utility.yul\":6472:6475   */\n      dup5\n        /* \"#utility.yul\":6468:6479   */\n      add\n        /* \"#utility.yul\":6461:6500   */\n      mstore\n        /* \"#utility.yul\":6433:6435   */\n      0x20\n        /* \"#utility.yul\":6430:6431   */\n      dup2\n        /* \"#utility.yul\":6426:6436   */\n      add\n        /* \"#utility.yul\":6421:6436   */\n      swap1\n      pop\n        /* \"#utility.yul\":6397:6510   */\n      jump(tag_296)\n    tag_298:\n        /* \"#utility.yul\":6544:6545   */\n      0x00\n        /* \"#utility.yul\":6535:6541   */\n      dup5\n        /* \"#utility.yul\":6530:6533   */\n      dup5\n        /* \"#utility.yul\":6526:6542   */\n      add\n        /* \"#utility.yul\":6519:6546   */\n      mstore\n        /* \"#utility.yul\":6368:6552   */\n      pop\n        /* \"#utility.yul\":6306:6552   */\n      pop\n      pop\n      pop\n      jump\t// out\n        /* \"#utility.yul\":6558:6935   */\n    tag_176:\n        /* \"#utility.yul\":6646:6649   */\n      0x00\n        /* \"#utility.yul\":6674:6713   */\n      tag_300\n        /* \"#utility.yul\":6707:6712   */\n      dup3\n        /* \"#utility.yul\":6674:6713   */\n      tag_173\n      jump\t// in\n    tag_300:\n        /* \"#utility.yul\":6729:6800   */\n      tag_301\n        /* \"#utility.yul\":6793:6799   */\n      dup2\n        /* \"#utility.yul\":6788:6791   */\n      dup6\n        /* \"#utility.yul\":6729:6800   */\n      tag_174\n      jump\t// in\n    tag_301:\n        /* \"#utility.yul\":6722:6800   */\n      swap4\n      pop\n        /* \"#utility.yul\":6809:6874   */\n      tag_302\n        /* \"#utility.yul\":6867:6873   */\n      dup2\n        /* \"#utility.yul\":6862:6865   */\n      dup6\n        /* \"#utility.yul\":6855:6859   */\n      0x20\n        /* \"#utility.yul\":6848:6853   */\n      dup7\n        /* \"#utility.yul\":6844:6860   */\n      add\n        /* \"#utility.yul\":6809:6874   */\n      tag_175\n      jump\t// in\n    tag_302:\n        /* \"#utility.yul\":6899:6928   */\n      tag_303\n        /* \"#utility.yul\":6921:6927   */\n      dup2\n        /* \"#utility.yul\":6899:6928   */\n      tag_159\n      jump\t// in\n    tag_303:\n        /* \"#utility.yul\":6894:6897   */\n      dup5\n        /* \"#utility.yul\":6890:6929   */\n      add\n        /* \"#utility.yul\":6883:6929   */\n      swap2\n      pop\n        /* \"#utility.yul\":6650:6935   */\n      pop\n        /* \"#utility.yul\":6558:6935   */\n      swap3\n      swap2\n      pop\n      pop\n      jump\t// out\n        /* \"#utility.yul\":6941:7083   */\n    tag_177:\n        /* \"#utility.yul\":7044:7076   */\n      tag_305\n        /* \"#utility.yul\":7070:7075   */\n      dup2\n        /* \"#utility.yul\":7044:7076   */\n      tag_167\n      jump\t// in\n    tag_305:\n        /* \"#utility.yul\":7039:7042   */\n      dup3\n        /* \"#utility.yul\":7032:7077   */\n      mstore\n        /* \"#utility.yul\":6941:7083   */\n      pop\n      pop\n      jump\t// out\n        /* \"#utility.yul\":7089:7179   */\n    tag_178:\n        /* \"#utility.yul\":7123:7130   */\n      0x00\n        /* \"#utility.yul\":7166:7171   */\n      dup2\n        /* \"#utility.yul\":7159:7172   */\n      iszero\n        /* \"#utility.yul\":7152:7173   */\n      iszero\n        /* \"#utility.yul\":7141:7173   */\n      swap1\n      pop\n        /* \"#utility.yul\":7089:7179   */\n      swap2\n      swap1\n      pop\n      jump\t// out\n        /* \"#utility.yul\":7185:7294   */\n    tag_179:\n        /* \"#utility.yul\":7266:7287   */\n      tag_308\n        /* \"#utility.yul\":7281:7286   */\n      dup2\n        /* \"#utility.yul\":7266:7287   */\n      tag_178\n      jump\t// in\n    tag_308:\n        /* \"#utility.yul\":7261:7264   */\n      dup3\n        /* \"#utility.yul\":7254:7288   */\n      mstore\n        /* \"#utility.yul\":7185:7294   */\n      pop\n      pop\n      jump\t// out\n        /* \"#utility.yul\":7300:8075   */\n    tag_68:\n        /* \"#utility.yul\":7535:7539   */\n      0x00\n        /* \"#utility.yul\":7573:7576   */\n      0xa0\n        /* \"#utility.yul\":7562:7571   */\n      dup3\n        /* \"#utility.yul\":7558:7577   */\n      add\n        /* \"#utility.yul\":7550:7577   */\n      swap1\n      pop\n        /* \"#utility.yul\":7623:7632   */\n      dup2\n        /* \"#utility.yul\":7617:7621   */\n      dup2\n        /* \"#utility.yul\":7613:7633   */\n      sub\n        /* \"#utility.yul\":7609:7610   */\n      0x00\n        /* \"#utility.yul\":7598:7607   */\n      dup4\n        /* \"#utility.yul\":7594:7611   */\n      add\n        /* \"#utility.yul\":7587:7634   */\n      mstore\n        /* \"#utility.yul\":7651:7729   */\n      tag_310\n        /* \"#utility.yul\":7724:7728   */\n      dup2\n        /* \"#utility.yul\":7715:7721   */\n      dup9\n        /* \"#utility.yul\":7651:7729   */\n      tag_176\n      jump\t// in\n    tag_310:\n        /* \"#utility.yul\":7643:7729   */\n      swap1\n      pop\n        /* \"#utility.yul\":7739:7827   */\n      tag_311\n        /* \"#utility.yul\":7823:7825   */\n      0x20\n        /* \"#utility.yul\":7812:7821   */\n      dup4\n        /* \"#utility.yul\":7808:7826   */\n      add\n        /* \"#utility.yul\":7799:7805   */\n      dup8\n        /* \"#utility.yul\":7739:7827   */\n      tag_177\n      jump\t// in\n    tag_311:\n        /* \"#utility.yul\":7837:7909   */\n      tag_312\n        /* \"#utility.yul\":7905:7907   */\n      0x40\n        /* \"#utility.yul\":7894:7903   */\n      dup4\n        /* \"#utility.yul\":7890:7908   */\n      add\n        /* \"#utility.yul\":7881:7887   */\n      dup7\n        /* \"#utility.yul\":7837:7909   */\n      tag_156\n      jump\t// in\n    tag_312:\n        /* \"#utility.yul\":7919:7985   */\n      tag_313\n        /* \"#utility.yul\":7981:7983   */\n      0x60\n        /* \"#utility.yul\":7970:7979   */\n      dup4\n        /* \"#utility.yul\":7966:7984   */\n      add\n        /* \"#utility.yul\":7957:7963   */\n      dup6\n        /* \"#utility.yul\":7919:7985   */\n      tag_179\n      jump\t// in\n    tag_313:\n        /* \"#utility.yul\":7995:8068   */\n      tag_314\n        /* \"#utility.yul\":8063:8066   */\n      0x80\n        /* \"#utility.yul\":8052:8061   */\n      dup4\n        /* \"#utility.yul\":8048:8067   */\n      add\n        /* \"#utility.yul\":8039:8045   */\n      dup5\n        /* \"#utility.yul\":7995:8068   */\n      tag_156\n      jump\t// in\n    tag_314:\n        /* \"#utility.yul\":7300:8075   */\n      swap7\n      swap6\n      pop\n      pop\n      pop\n      pop\n      pop\n      pop\n      jump\t// out\n        /* \"#utility.yul\":8081:8250   */\n    tag_180:\n        /* \"#utility.yul\":8221:8242   */\n      0x446561646c696e65206861732070617373656400000000000000000000000000\n        /* \"#utility.yul\":8217:8218   */\n      0x00\n        /* \"#utility.yul\":8209:8215   */\n      dup3\n        /* \"#utility.yul\":8205:8219   */\n      add\n        /* \"#utility.yul\":8198:8243   */\n      mstore\n        /* \"#utility.yul\":8081:8250   */\n      pop\n      jump\t// out\n        /* \"#utility.yul\":8256:8622   */\n    tag_181:\n        /* \"#utility.yul\":8398:8401   */\n      0x00\n        /* \"#utility.yul\":8419:8486   */\n      tag_317\n        /* \"#utility.yul\":8483:8485   */\n      0x13\n        /* \"#utility.yul\":8478:8481   */\n      dup4\n        /* \"#utility.yul\":8419:8486   */\n      tag_174\n      jump\t// in\n    tag_317:\n        /* \"#utility.yul\":8412:8486   */\n      swap2\n      pop\n        /* \"#utility.yul\":8495:8588   */\n      tag_318\n        /* \"#utility.yul\":8584:8587   */\n      dup3\n        /* \"#utility.yul\":8495:8588   */\n      tag_180\n      jump\t// in\n    tag_318:\n        /* \"#utility.yul\":8613:8615   */\n      0x20\n        /* \"#utility.yul\":8608:8611   */\n      dup3\n        /* \"#utility.yul\":8604:8616   */\n      add\n        /* \"#utility.yul\":8597:8616   */\n      swap1\n      pop\n        /* \"#utility.yul\":8256:8622   */\n      swap2\n      swap1\n      pop\n      jump\t// out\n        /* \"#utility.yul\":8628:9047   */\n    tag_88:\n        /* \"#utility.yul\":8794:8798   */\n      0x00\n        /* \"#utility.yul\":8832:8834   */\n      0x20\n        /* \"#utility.yul\":8821:8830   */\n      dup3\n        /* \"#utility.yul\":8817:8835   */\n      add\n        /* \"#utility.yul\":8809:8835   */\n      swap1\n      pop\n        /* \"#utility.yul\":8881:8890   */\n      dup2\n        /* \"#utility.yul\":8875:8879   */\n      dup2\n        /* \"#utility.yul\":8871:8891   */\n      sub\n        /* \"#utility.yul\":8867:8868   */\n      0x00\n        /* \"#utility.yul\":8856:8865   */\n      dup4\n        /* \"#utility.yul\":8852:8869   */\n      add\n        /* \"#utility.yul\":8845:8892   */\n      mstore\n        /* \"#utility.yul\":8909:9040   */\n      tag_320\n        /* \"#utility.yul\":9035:9039   */\n      dup2\n        /* \"#utility.yul\":8909:9040   */\n      tag_181\n      jump\t// in\n    tag_320:\n        /* \"#utility.yul\":8901:9040   */\n      swap1\n      pop\n        /* \"#utility.yul\":8628:9047   */\n      swap2\n      swap1\n      pop\n      jump\t// out\n        /* \"#utility.yul\":9053:9235   */\n    tag_182:\n        /* \"#utility.yul\":9193:9227   */\n      0x4d696e696d756d20636f6e747269627574696f6e206973206e6f74206d65742e\n        /* \"#utility.yul\":9189:9190   */\n      0x00\n        /* \"#utility.yul\":9181:9187   */\n      dup3\n        /* \"#utility.yul\":9177:9191   */\n      add\n        /* \"#utility.yul\":9170:9228   */\n      mstore\n        /* \"#utility.yul\":9053:9235   */\n      pop\n      jump\t// out\n        /* \"#utility.yul\":9241:9607   */\n    tag_183:\n        /* \"#utility.yul\":9383:9386   */\n      0x00\n        /* \"#utility.yul\":9404:9471   */\n      tag_323\n        /* \"#utility.yul\":9468:9470   */\n      0x20\n        /* \"#utility.yul\":9463:9466   */\n      dup4\n        /* \"#utility.yul\":9404:9471   */\n      tag_174\n      jump\t// in\n    tag_323:\n        /* \"#utility.yul\":9397:9471   */\n      swap2\n      pop\n        /* \"#utility.yul\":9480:9573   */\n      tag_324\n        /* \"#utility.yul\":9569:9572   */\n      dup3\n        /* \"#utility.yul\":9480:9573   */\n      tag_182\n      jump\t// in\n    tag_324:\n        /* \"#utility.yul\":9598:9600   */\n      0x20\n        /* \"#utility.yul\":9593:9596   */\n      dup3\n        /* \"#utility.yul\":9589:9601   */\n      add\n        /* \"#utility.yul\":9582:9601   */\n      swap1\n      pop\n        /* \"#utility.yul\":9241:9607   */\n      swap2\n      swap1\n      pop\n      jump\t// out\n        /* \"#utility.yul\":9613:10032   */\n    tag_91:\n        /* \"#utility.yul\":9779:9783   */\n      0x00\n        /* \"#utility.yul\":9817:9819   */\n      0x20\n        /* \"#utility.yul\":9806:9815   */\n      dup3\n        /* \"#utility.yul\":9802:9820   */\n      add\n        /* \"#utility.yul\":9794:9820   */\n      swap1\n      pop\n        /* \"#utility.yul\":9866:9875   */\n      dup2\n        /* \"#utility.yul\":9860:9864   */\n      dup2\n        /* \"#utility.yul\":9856:9876   */\n      sub\n        /* \"#utility.yul\":9852:9853   */\n      0x00\n        /* \"#utility.yul\":9841:9850   */\n      dup4\n        /* \"#utility.yul\":9837:9854   */\n      add\n        /* \"#utility.yul\":9830:9877   */\n      mstore\n        /* \"#utility.yul\":9894:10025   */\n      tag_326\n        /* \"#utility.yul\":10020:10024   */\n      dup2\n        /* \"#utility.yul\":9894:10025   */\n      tag_183\n      jump\t// in\n    tag_326:\n        /* \"#utility.yul\":9886:10025   */\n      swap1\n      pop\n        /* \"#utility.yul\":9613:10032   */\n      swap2\n      swap1\n      pop\n      jump\t// out\n        /* \"#utility.yul\":10038:10218   */\n    tag_184:\n        /* \"#utility.yul\":10086:10163   */\n      0x4e487b7100000000000000000000000000000000000000000000000000000000\n        /* \"#utility.yul\":10083:10084   */\n      0x00\n        /* \"#utility.yul\":10076:10164   */\n      mstore\n        /* \"#utility.yul\":10183:10187   */\n      0x11\n        /* \"#utility.yul\":10180:10181   */\n      0x04\n        /* \"#utility.yul\":10173:10188   */\n      mstore\n        /* \"#utility.yul\":10207:10211   */\n      0x24\n        /* \"#utility.yul\":10204:10205   */\n      0x00\n        /* \"#utility.yul\":10197:10212   */\n      revert\n        /* \"#utility.yul\":10224:10457   */\n    tag_94:\n        /* \"#utility.yul\":10263:10266   */\n      0x00\n        /* \"#utility.yul\":10286:10310   */\n      tag_329\n        /* \"#utility.yul\":10304:10309   */\n      dup3\n        /* \"#utility.yul\":10286:10310   */\n      tag_155\n      jump\t// in\n    tag_329:\n        /* \"#utility.yul\":10277:10310   */\n      swap2\n      pop\n        /* \"#utility.yul\":10332:10398   */\n      0xffffffffffffffffffffffffffffffffffffffffffffffffffffffffffffffff\n        /* \"#utility.yul\":10325:10330   */\n      dup3\n        /* \"#utility.yul\":10322:10399   */\n      sub\n        /* \"#utility.yul\":10319:10422   */\n      tag_330\n      jumpi\n        /* \"#utility.yul\":10402:10420   */\n      tag_331\n      tag_184\n      jump\t// in\n    tag_331:\n        /* \"#utility.yul\":10319:10422   */\n    tag_330:\n        /* \"#utility.yul\":10449:10450   */\n      0x01\n        /* \"#utility.yul\":10442:10447   */\n      dup3\n        /* \"#utility.yul\":10438:10451   */\n      add\n        /* \"#utility.yul\":10431:10451   */\n      swap1\n      pop\n        /* \"#utility.yul\":10224:10457   */\n      swap2\n      swap1\n      pop\n      jump\t// out\n        /* \"#utility.yul\":10463:10654   */\n    tag_96:\n        /* \"#utility.yul\":10503:10506   */\n      0x00\n        /* \"#utility.yul\":10522:10542   */\n      tag_333\n        /* \"#utility.yul\":10540:10541   */\n      dup3\n        /* \"#utility.yul\":10522:10542   */\n      tag_155\n      jump\t// in\n    tag_333:\n        /* \"#utility.yul\":10517:10542   */\n      swap2\n      pop\n        /* \"#utility.yul\":10556:10576   */\n      tag_334\n        /* \"#utility.yul\":10574:10575   */\n      dup4\n        /* \"#utility.yul\":10556:10576   */\n      tag_155\n      jump\t// in\n    tag_334:\n        /* \"#utility.yul\":10551:10576   */\n      swap3\n      pop\n        /* \"#utility.yul\":10599:10600   */\n      dup3\n        /* \"#utility.yul\":10596:10597   */\n      dup3\n        /* \"#utility.yul\":10592:10601   */\n      add\n        /* \"#utility.yul\":10585:10601   */\n      swap1\n      pop\n        /* \"#utility.yul\":10620:10623   */\n      dup1\n        /* \"#utility.yul\":10617:10618   */\n      dup3\n        /* \"#utility.yul\":10614:10624   */\n      gt\n        /* \"#utility.yul\":10611:10647   */\n      iszero\n      tag_335\n      jumpi\n        /* \"#utility.yul\":10627:10645   */\n      tag_336\n      tag_184\n      jump\t// in\n    tag_336:\n        /* \"#utility.yul\":10611:10647   */\n    tag_335:\n        /* \"#utility.yul\":10463:10654   */\n      swap3\n      swap2\n      pop\n      pop\n      jump\t// out\n        /* \"#utility.yul\":10660:10882   */\n    tag_185:\n        /* \"#utility.yul\":10800:10834   */\n      0x4f6e6c79206d616e616765722063616e2063616c6c20746869732066756e6374\n        /* \"#utility.yul\":10796:10797   */\n      0x00\n        /* \"#utility.yul\":10788:10794   */\n      dup3\n        /* \"#utility.yul\":10784:10798   */\n      add\n        /* \"#utility.yul\":10777:10835   */\n      mstore\n        /* \"#utility.yul\":10869:10874   */\n      0x696f6e0000000000000000000000000000000000000000000000000000000000\n        /* \"#utility.yul\":10864:10866   */\n      0x20\n        /* \"#utility.yul\":10856:10862   */\n      dup3\n        /* \"#utility.yul\":10852:10867   */\n      add\n        /* \"#utility.yul\":10845:10875   */\n      mstore\n        /* \"#utility.yul\":10660:10882   */\n      pop\n      jump\t// out\n        /* \"#utility.yul\":10888:11254   */\n    tag_186:\n        /* \"#utility.yul\":11030:11033   */\n      0x00\n        /* \"#utility.yul\":11051:11118   */\n      tag_339\n        /* \"#utility.yul\":11115:11117   */\n      0x23\n        /* \"#utility.yul\":11110:11113   */\n      dup4\n        /* \"#utility.yul\":11051:11118   */\n      tag_174\n      jump\t// in\n    tag_339:\n        /* \"#utility.yul\":11044:11118   */\n      swap2\n      pop\n        /* \"#utility.yul\":11127:11220   */\n      tag_340\n        /* \"#utility.yul\":11216:11219   */\n      dup3\n        /* \"#utility.yul\":11127:11220   */\n      tag_185\n      jump\t// in\n    tag_340:\n        /* \"#utility.yul\":11245:11247   */\n      0x40\n        /* \"#utility.yul\":11240:11243   */\n      dup3\n        /* \"#utility.yul\":11236:11248   */\n      add\n        /* \"#utility.yul\":11229:11248   */\n      swap1\n      pop\n        /* \"#utility.yul\":10888:11254   */\n      swap2\n      swap1\n      pop\n      jump\t// out\n        /* \"#utility.yul\":11260:11679   */\n    tag_101:\n        /* \"#utility.yul\":11426:11430   */\n      0x00\n        /* \"#utility.yul\":11464:11466   */\n      0x20\n        /* \"#utility.yul\":11453:11462   */\n      dup3\n        /* \"#utility.yul\":11449:11467   */\n      add\n        /* \"#utility.yul\":11441:11467   */\n      swap1\n      pop\n        /* \"#utility.yul\":11513:11522   */\n      dup2\n        /* \"#utility.yul\":11507:11511   */\n      dup2\n        /* \"#utility.yul\":11503:11523   */\n      sub\n        /* \"#utility.yul\":11499:11500   */\n      0x00\n        /* \"#utility.yul\":11488:11497   */\n      dup4\n        /* \"#utility.yul\":11484:11501   */\n      add\n        /* \"#utility.yul\":11477:11524   */\n      mstore\n        /* \"#utility.yul\":11541:11672   */\n      tag_342\n        /* \"#utility.yul\":11667:11671   */\n      dup2\n        /* \"#utility.yul\":11541:11672   */\n      tag_186\n      jump\t// in\n    tag_342:\n        /* \"#utility.yul\":11533:11672   */\n      swap1\n      pop\n        /* \"#utility.yul\":11260:11679   */\n      swap2\n      swap1\n      pop\n      jump\t// out\n        /* \"#utility.yul\":11685:11865   */\n    tag_187:\n        /* \"#utility.yul\":11733:11810   */\n      0x4e487b7100000000000000000000000000000000000000000000000000000000\n        /* \"#utility.yul\":11730:11731   */\n      0x00\n        /* \"#utility.yul\":11723:11811   */\n      mstore\n        /* \"#utility.yul\":11830:11834   */\n      0x22\n        /* \"#utility.yul\":11827:11828   */\n      0x04\n        /* \"#utility.yul\":11820:11835   */\n      mstore\n        /* \"#utility.yul\":11854:11858   */\n      0x24\n        /* \"#utility.yul\":11851:11852   */\n      0x00\n        /* \"#utility.yul\":11844:11859   */\n      revert\n        /* \"#utility.yul\":11871:12191   */\n    tag_143:\n        /* \"#utility.yul\":11915:11921   */\n      0x00\n        /* \"#utility.yul\":11952:11953   */\n      0x02\n        /* \"#utility.yul\":11946:11950   */\n      dup3\n        /* \"#utility.yul\":11942:11954   */\n      div\n        /* \"#utility.yul\":11932:11954   */\n      swap1\n      pop\n        /* \"#utility.yul\":11999:12000   */\n      0x01\n        /* \"#utility.yul\":11993:11997   */\n      dup3\n        /* \"#utility.yul\":11989:12001   */\n      and\n        /* \"#utility.yul\":12020:12038   */\n      dup1\n        /* \"#utility.yul\":12010:12091   */\n      tag_345\n      jumpi\n        /* \"#utility.yul\":12076:12080   */\n      0x7f\n        /* \"#utility.yul\":12068:12074   */\n      dup3\n        /* \"#utility.yul\":12064:12081   */\n      and\n        /* \"#utility.yul\":12054:12081   */\n      swap2\n      pop\n        /* \"#utility.yul\":12010:12091   */\n    tag_345:\n        /* \"#utility.yul\":12138:12140   */\n      0x20\n        /* \"#utility.yul\":12130:12136   */\n      dup3\n        /* \"#utility.yul\":12127:12141   */\n      lt\n        /* \"#utility.yul\":12107:12125   */\n      dup2\n        /* \"#utility.yul\":12104:12142   */\n      sub\n        /* \"#utility.yul\":12101:12185   */\n      tag_346\n      jumpi\n        /* \"#utility.yul\":12157:12175   */\n      tag_347\n      tag_187\n      jump\t// in\n    tag_347:\n        /* \"#utility.yul\":12101:12185   */\n    tag_346:\n        /* \"#utility.yul\":11922:12191   */\n      pop\n        /* \"#utility.yul\":11871:12191   */\n      swap2\n      swap1\n      pop\n      jump\t// out\n        /* \"#utility.yul\":12197:12338   */\n    tag_188:\n        /* \"#utility.yul\":12246:12250   */\n      0x00\n        /* \"#utility.yul\":12269:12272   */\n      dup2\n        /* \"#utility.yul\":12261:12272   */\n      swap1\n      pop\n        /* \"#utility.yul\":12292:12295   */\n      dup2\n        /* \"#utility.yul\":12289:12290   */\n      0x00\n        /* \"#utility.yul\":12282:12296   */\n      mstore\n        /* \"#utility.yul\":12326:12330   */\n      0x20\n        /* \"#utility.yul\":12323:12324   */\n      0x00\n        /* \"#utility.yul\":12313:12331   */\n      keccak256\n        /* \"#utility.yul\":12305:12331   */\n      swap1\n      pop\n        /* \"#utility.yul\":12197:12338   */\n      swap2\n      swap1\n      pop\n      jump\t// out\n        /* \"#utility.yul\":12344:12437   */\n    tag_189:\n        /* \"#utility.yul\":12381:12387   */\n      0x00\n        /* \"#utility.yul\":12428:12430   */\n      0x20\n        /* \"#utility.yul\":12423:12425   */\n      0x1f\n        /* \"#utility.yul\":12416:12421   */\n      dup4\n        /* \"#utility.yul\":12412:12426   */\n      add\n        /* \"#utility.yul\":12408:12431   */\n      div\n        /* \"#utility.yul\":12398:12431   */\n      swap1\n      pop\n        /* \"#utility.yul\":12344:12437   */\n      swap2\n      swap1\n      pop\n      jump\t// out\n        /* \"#utility.yul\":12443:12550   */\n    tag_190:\n        /* \"#utility.yul\":12487:12495   */\n      0x00\n        /* \"#utility.yul\":12537:12542   */\n      dup3\n        /* \"#utility.yul\":12531:12535   */\n      dup3\n        /* \"#utility.yul\":12527:12543   */\n      shl\n        /* \"#utility.yul\":12506:12543   */\n      swap1\n      pop\n        /* \"#utility.yul\":12443:12550   */\n      swap3\n      swap2\n      pop\n      pop\n      jump\t// out\n        /* \"#utility.yul\":12556:12949   */\n    tag_191:\n        /* \"#utility.yul\":12625:12631   */\n      0x00\n        /* \"#utility.yul\":12675:12676   */\n      0x08\n        /* \"#utility.yul\":12663:12673   */\n      dup4\n        /* \"#utility.yul\":12659:12677   */\n      mul\n        /* \"#utility.yul\":12698:12795   */\n      tag_352\n        /* \"#utility.yul\":12728:12794   */\n      0xffffffffffffffffffffffffffffffffffffffffffffffffffffffffffffffff\n        /* \"#utility.yul\":12717:12726   */\n      dup3\n        /* \"#utility.yul\":12698:12795   */\n      tag_190\n      jump\t// in\n    tag_352:\n        /* \"#utility.yul\":12816:12855   */\n      tag_353\n        /* \"#utility.yul\":12846:12854   */\n      dup7\n        /* \"#utility.yul\":12835:12844   */\n      dup4\n        /* \"#utility.yul\":12816:12855   */\n      tag_190\n      jump\t// in\n    tag_353:\n        /* \"#utility.yul\":12804:12855   */\n      swap6\n      pop\n        /* \"#utility.yul\":12888:12892   */\n      dup1\n        /* \"#utility.yul\":12884:12893   */\n      not\n        /* \"#utility.yul\":12877:12882   */\n      dup5\n        /* \"#utility.yul\":12873:12894   */\n      and\n        /* \"#utility.yul\":12864:12894   */\n      swap4\n      pop\n        /* \"#utility.yul\":12937:12941   */\n      dup1\n        /* \"#utility.yul\":12927:12935   */\n      dup7\n        /* \"#utility.yul\":12923:12942   */\n      and\n        /* \"#utility.yul\":12916:12921   */\n      dup5\n        /* \"#utility.yul\":12913:12943   */\n      or\n        /* \"#utility.yul\":12903:12943   */\n      swap3\n      pop\n        /* \"#utility.yul\":12632:12949   */\n      pop\n      pop\n        /* \"#utility.yul\":12556:12949   */\n      swap4\n      swap3\n      pop\n      pop\n      pop\n      jump\t// out\n        /* \"#utility.yul\":12955:13015   */\n    tag_192:\n        /* \"#utility.yul\":12983:12986   */\n      0x00\n        /* \"#utility.yul\":13004:13009   */\n      dup2\n        /* \"#utility.yul\":12997:13009   */\n      swap1\n      pop\n        /* \"#utility.yul\":12955:13015   */\n      swap2\n      swap1\n      pop\n      jump\t// out\n        /* \"#utility.yul\":13021:13163   */\n    tag_193:\n        /* \"#utility.yul\":13071:13080   */\n      0x00\n        /* \"#utility.yul\":13104:13157   */\n      tag_356\n        /* \"#utility.yul\":13122:13156   */\n      tag_357\n        /* \"#utility.yul\":13131:13155   */\n      tag_358\n        /* \"#utility.yul\":13149:13154   */\n      dup5\n        /* \"#utility.yul\":13131:13155   */\n      tag_155\n      jump\t// in\n    tag_358:\n        /* \"#utility.yul\":13122:13156   */\n      tag_192\n      jump\t// in\n    tag_357:\n        /* \"#utility.yul\":13104:13157   */\n      tag_155\n      jump\t// in\n    tag_356:\n        /* \"#utility.yul\":13091:13157   */\n      swap1\n      pop\n        /* \"#utility.yul\":13021:13163   */\n      swap2\n      swap1\n      pop\n      jump\t// out\n        /* \"#utility.yul\":13169:13244   */\n    tag_194:\n        /* \"#utility.yul\":13212:13215   */\n      0x00\n        /* \"#utility.yul\":13233:13238   */\n      dup2\n        /* \"#utility.yul\":13226:13238   */\n      swap1\n      pop\n        /* \"#utility.yul\":13169:13244   */\n      swap2\n      swap1\n      pop\n      jump\t// out\n        /* \"#utility.yul\":13250:13519   */\n    tag_195:\n        /* \"#utility.yul\":13360:13399   */\n      tag_361\n        /* \"#utility.yul\":13391:13398   */\n      dup4\n        /* \"#utility.yul\":13360:13399   */\n      tag_193\n      jump\t// in\n    tag_361:\n        /* \"#utility.yul\":13421:13512   */\n      tag_362\n        /* \"#utility.yul\":13470:13511   */\n      tag_363\n        /* \"#utility.yul\":13494:13510   */\n      dup3\n        /* \"#utility.yul\":13470:13511   */\n      tag_194\n      jump\t// in\n    tag_363:\n        /* \"#utility.yul\":13462:13468   */\n      dup5\n        /* \"#utility.yul\":13455:13459   */\n      dup5\n        /* \"#utility.yul\":13449:13460   */\n      sload\n        /* \"#utility.yul\":13421:13512   */\n      tag_191\n      jump\t// in\n    tag_362:\n        /* \"#utility.yul\":13415:13419   */\n      dup3\n        /* \"#utility.yul\":13408:13513   */\n      sstore\n        /* \"#utility.yul\":13326:13519   */\n      pop\n        /* \"#utility.yul\":13250:13519   */\n      pop\n      pop\n      pop\n      jump\t// out\n        /* \"#utility.yul\":13525:13598   */\n    tag_196:\n        /* \"#utility.yul\":13570:13573   */\n      0x00\n        /* \"#utility.yul\":13525:13598   */\n      swap1\n      jump\t// out\n        /* \"#utility.yul\":13604:13793   */\n    tag_197:\n        /* \"#utility.yul\":13681:13713   */\n      tag_366\n      tag_196\n      jump\t// in\n    tag_366:\n        /* \"#utility.yul\":13722:13787   */\n      tag_367\n        /* \"#utility.yul\":13780:13786   */\n      dup2\n        /* \"#utility.yul\":13772:13778   */\n      dup5\n        /* \"#utility.yul\":13766:13770   */\n      dup5\n        /* \"#utility.yul\":13722:13787   */\n      tag_195\n      jump\t// in\n    tag_367:\n        /* \"#utility.yul\":13657:13793   */\n      pop\n        /* \"#utility.yul\":13604:13793   */\n      pop\n      pop\n      jump\t// out\n        /* \"#utility.yul\":13799:13985   */\n    tag_198:\n        /* \"#utility.yul\":13859:13979   */\n    tag_369:\n        /* \"#utility.yul\":13876:13879   */\n      dup2\n        /* \"#utility.yul\":13869:13874   */\n      dup2\n        /* \"#utility.yul\":13866:13880   */\n      lt\n        /* \"#utility.yul\":13859:13979   */\n      iszero\n      tag_371\n      jumpi\n        /* \"#utility.yul\":13930:13969   */\n      tag_372\n        /* \"#utility.yul\":13967:13968   */\n      0x00\n        /* \"#utility.yul\":13960:13965   */\n      dup3\n        /* \"#utility.yul\":13930:13969   */\n      tag_197\n      jump\t// in\n    tag_372:\n        /* \"#utility.yul\":13903:13904   */\n      0x01\n        /* \"#utility.yul\":13896:13901   */\n      dup2\n        /* \"#utility.yul\":13892:13905   */\n      add\n        /* \"#utility.yul\":13883:13905   */\n      swap1\n      pop\n        /* \"#utility.yul\":13859:13979   */\n      jump(tag_369)\n    tag_371:\n        /* \"#utility.yul\":13799:13985   */\n      pop\n      pop\n      jump\t// out\n        /* \"#utility.yul\":13991:14534   */\n    tag_199:\n        /* \"#utility.yul\":14092:14094   */\n      0x1f\n        /* \"#utility.yul\":14087:14090   */\n      dup3\n        /* \"#utility.yul\":14084:14095   */\n      gt\n        /* \"#utility.yul\":14081:14527   */\n      iszero\n      tag_374\n      jumpi\n        /* \"#utility.yul\":14126:14164   */\n      tag_375\n        /* \"#utility.yul\":14158:14163   */\n      dup2\n        /* \"#utility.yul\":14126:14164   */\n      tag_188\n      jump\t// in\n    tag_375:\n        /* \"#utility.yul\":14210:14239   */\n      tag_376\n        /* \"#utility.yul\":14228:14238   */\n      dup5\n        /* \"#utility.yul\":14210:14239   */\n      tag_189\n      jump\t// in\n    tag_376:\n        /* \"#utility.yul\":14200:14208   */\n      dup2\n        /* \"#utility.yul\":14196:14240   */\n      add\n        /* \"#utility.yul\":14393:14395   */\n      0x20\n        /* \"#utility.yul\":14381:14391   */\n      dup6\n        /* \"#utility.yul\":14378:14396   */\n      lt\n        /* \"#utility.yul\":14375:14424   */\n      iszero\n      tag_377\n      jumpi\n        /* \"#utility.yul\":14414:14422   */\n      dup2\n        /* \"#utility.yul\":14399:14422   */\n      swap1\n      pop\n        /* \"#utility.yul\":14375:14424   */\n    tag_377:\n        /* \"#utility.yul\":14437:14517   */\n      tag_378\n        /* \"#utility.yul\":14493:14515   */\n      tag_379\n        /* \"#utility.yul\":14511:14514   */\n      dup6\n        /* \"#utility.yul\":14493:14515   */\n      tag_189\n      jump\t// in\n    tag_379:\n        /* \"#utility.yul\":14483:14491   */\n      dup4\n        /* \"#utility.yul\":14479:14516   */\n      add\n        /* \"#utility.yul\":14466:14477   */\n      dup3\n        /* \"#utility.yul\":14437:14517   */\n      tag_198\n      jump\t// in\n    tag_378:\n        /* \"#utility.yul\":14096:14527   */\n      pop\n      pop\n        /* \"#utility.yul\":14081:14527   */\n    tag_374:\n        /* \"#utility.yul\":13991:14534   */\n      pop\n      pop\n      pop\n      jump\t// out\n        /* \"#utility.yul\":14540:14657   */\n    tag_200:\n        /* \"#utility.yul\":14594:14602   */\n      0x00\n        /* \"#utility.yul\":14644:14649   */\n      dup3\n        /* \"#utility.yul\":14638:14642   */\n      dup3\n        /* \"#utility.yul\":14634:14650   */\n      shr\n        /* \"#utility.yul\":14613:14650   */\n      swap1\n      pop\n        /* \"#utility.yul\":14540:14657   */\n      swap3\n      swap2\n      pop\n      pop\n      jump\t// out\n        /* \"#utility.yul\":14663:14832   */\n    tag_201:\n        /* \"#utility.yul\":14707:14713   */\n      0x00\n        /* \"#utility.yul\":14740:14791   */\n      tag_382\n        /* \"#utility.yul\":14788:14789   */\n      0x00\n        /* \"#utility.yul\":14784:14790   */\n      not\n        /* \"#utility.yul\":14776:14781   */\n      dup5\n        /* \"#utility.yul\":14773:14774   */\n      0x08\n        /* \"#utility.yul\":14769:14782   */\n      mul\n        /* \"#utility.yul\":14740:14791   */\n      tag_200\n      jump\t// in\n    tag_382:\n        /* \"#utility.yul\":14736:14792   */\n      not\n        /* \"#utility.yul\":14821:14825   */\n      dup1\n        /* \"#utility.yul\":14815:14819   */\n      dup4\n        /* \"#utility.yul\":14811:14826   */\n      and\n        /* \"#utility.yul\":14801:14826   */\n      swap2\n      pop\n        /* \"#utility.yul\":14714:14832   */\n      pop\n        /* \"#utility.yul\":14663:14832   */\n      swap3\n      swap2\n      pop\n      pop\n      jump\t// out\n        /* \"#utility.yul\":14837:15132   */\n    tag_202:\n        /* \"#utility.yul\":14913:14917   */\n      0x00\n        /* \"#utility.yul\":15059:15088   */\n      tag_384\n        /* \"#utility.yul\":15084:15087   */\n      dup4\n        /* \"#utility.yul\":15078:15082   */\n      dup4\n        /* \"#utility.yul\":15059:15088   */\n      tag_201\n      jump\t// in\n    tag_384:\n        /* \"#utility.yul\":15051:15088   */\n      swap2\n      pop\n        /* \"#utility.yul\":15121:15124   */\n      dup3\n        /* \"#utility.yul\":15118:15119   */\n      0x02\n        /* \"#utility.yul\":15114:15125   */\n      mul\n        /* \"#utility.yul\":15108:15112   */\n      dup3\n        /* \"#utility.yul\":15105:15126   */\n      or\n        /* \"#utility.yul\":15097:15126   */\n      swap1\n      pop\n        /* \"#utility.yul\":14837:15132   */\n      swap3\n      swap2\n      pop\n      pop\n      jump\t// out\n        /* \"#utility.yul\":15137:16532   */\n    tag_105:\n        /* \"#utility.yul\":15254:15291   */\n      tag_386\n        /* \"#utility.yul\":15287:15290   */\n      dup3\n        /* \"#utility.yul\":15254:15291   */\n      tag_173\n      jump\t// in\n    tag_386:\n        /* \"#utility.yul\":15356:15374   */\n      0xffffffffffffffff\n        /* \"#utility.yul\":15348:15354   */\n      dup2\n        /* \"#utility.yul\":15345:15375   */\n      gt\n        /* \"#utility.yul\":15342:15398   */\n      iszero\n      tag_387\n      jumpi\n        /* \"#utility.yul\":15378:15396   */\n      tag_388\n      tag_160\n      jump\t// in\n    tag_388:\n        /* \"#utility.yul\":15342:15398   */\n    tag_387:\n        /* \"#utility.yul\":15422:15460   */\n      tag_389\n        /* \"#utility.yul\":15454:15458   */\n      dup3\n        /* \"#utility.yul\":15448:15459   */\n      sload\n        /* \"#utility.yul\":15422:15460   */\n      tag_143\n      jump\t// in\n    tag_389:\n        /* \"#utility.yul\":15507:15574   */\n      tag_390\n        /* \"#utility.yul\":15567:15573   */\n      dup3\n        /* \"#utility.yul\":15559:15565   */\n      dup3\n        /* \"#utility.yul\":15553:15557   */\n      dup6\n        /* \"#utility.yul\":15507:15574   */\n      tag_199\n      jump\t// in\n    tag_390:\n        /* \"#utility.yul\":15601:15602   */\n      0x00\n        /* \"#utility.yul\":15625:15629   */\n      0x20\n        /* \"#utility.yul\":15612:15629   */\n      swap1\n      pop\n        /* \"#utility.yul\":15657:15659   */\n      0x1f\n        /* \"#utility.yul\":15649:15655   */\n      dup4\n        /* \"#utility.yul\":15646:15660   */\n      gt\n        /* \"#utility.yul\":15674:15675   */\n      0x01\n        /* \"#utility.yul\":15669:16287   */\n      dup2\n      eq\n      tag_392\n      jumpi\n        /* \"#utility.yul\":16331:16332   */\n      0x00\n        /* \"#utility.yul\":16348:16354   */\n      dup5\n        /* \"#utility.yul\":16345:16422   */\n      iszero\n      tag_393\n      jumpi\n        /* \"#utility.yul\":16397:16406   */\n      dup3\n        /* \"#utility.yul\":16392:16395   */\n      dup8\n        /* \"#utility.yul\":16388:16407   */\n      add\n        /* \"#utility.yul\":16382:16408   */\n      mload\n        /* \"#utility.yul\":16373:16408   */\n      swap1\n      pop\n        /* \"#utility.yul\":16345:16422   */\n    tag_393:\n        /* \"#utility.yul\":16448:16515   */\n      tag_394\n        /* \"#utility.yul\":16508:16514   */\n      dup6\n        /* \"#utility.yul\":16501:16506   */\n      dup3\n        /* \"#utility.yul\":16448:16515   */\n      tag_202\n      jump\t// in\n    tag_394:\n        /* \"#utility.yul\":16442:16446   */\n      dup7\n        /* \"#utility.yul\":16435:16516   */\n      sstore\n        /* \"#utility.yul\":16304:16526   */\n      pop\n        /* \"#utility.yul\":15639:16526   */\n      jump(tag_391)\n        /* \"#utility.yul\":15669:16287   */\n    tag_392:\n        /* \"#utility.yul\":15721:15725   */\n      0x1f\n        /* \"#utility.yul\":15717:15726   */\n      not\n        /* \"#utility.yul\":15709:15715   */\n      dup5\n        /* \"#utility.yul\":15705:15727   */\n      and\n        /* \"#utility.yul\":15755:15792   */\n      tag_395\n        /* \"#utility.yul\":15787:15791   */\n      dup7\n        /* \"#utility.yul\":15755:15792   */\n      tag_188\n      jump\t// in\n    tag_395:\n        /* \"#utility.yul\":15814:15815   */\n      0x00\n        /* \"#utility.yul\":15828:16036   */\n    tag_396:\n        /* \"#utility.yul\":15842:15849   */\n      dup3\n        /* \"#utility.yul\":15839:15840   */\n      dup2\n        /* \"#utility.yul\":15836:15850   */\n      lt\n        /* \"#utility.yul\":15828:16036   */\n      iszero\n      tag_398\n      jumpi\n        /* \"#utility.yul\":15921:15930   */\n      dup5\n        /* \"#utility.yul\":15916:15919   */\n      dup10\n        /* \"#utility.yul\":15912:15931   */\n      add\n        /* \"#utility.yul\":15906:15932   */\n      mload\n        /* \"#utility.yul\":15898:15904   */\n      dup3\n        /* \"#utility.yul\":15891:15933   */\n      sstore\n        /* \"#utility.yul\":15972:15973   */\n      0x01\n        /* \"#utility.yul\":15964:15970   */\n      dup3\n        /* \"#utility.yul\":15960:15974   */\n      add\n        /* \"#utility.yul\":15950:15974   */\n      swap2\n      pop\n        /* \"#utility.yul\":16019:16021   */\n      0x20\n        /* \"#utility.yul\":16008:16017   */\n      dup6\n        /* \"#utility.yul\":16004:16022   */\n      add\n        /* \"#utility.yul\":15991:16022   */\n      swap5\n      pop\n        /* \"#utility.yul\":15865:15869   */\n      0x20\n        /* \"#utility.yul\":15862:15863   */\n      dup2\n        /* \"#utility.yul\":15858:15870   */\n      add\n        /* \"#utility.yul\":15853:15870   */\n      swap1\n      pop\n        /* \"#utility.yul\":15828:16036   */\n      jump(tag_396)\n    tag_398:\n        /* \"#utility.yul\":16064:16070   */\n      dup7\n        /* \"#utility.yul\":16055:16062   */\n      dup4\n        /* \"#utility.yul\":16052:16071   */\n      lt\n        /* \"#utility.yul\":16049:16228   */\n      iszero\n      tag_399\n      jumpi\n        /* \"#utility.yul\":16122:16131   */\n      dup5\n        /* \"#utility.yul\":16117:16120   */\n      dup10\n        /* \"#utility.yul\":16113:16132   */\n      add\n        /* \"#utility.yul\":16107:16133   */\n      mload\n        /* \"#utility.yul\":16165:16213   */\n      tag_400\n        /* \"#utility.yul\":16207:16211   */\n      0x1f\n        /* \"#utility.yul\":16199:16205   */\n      dup10\n        /* \"#utility.yul\":16195:16212   */\n      and\n        /* \"#utility.yul\":16184:16193   */\n      dup3\n        /* \"#utility.yul\":16165:16213   */\n      tag_201\n      jump\t// in\n    tag_400:\n        /* \"#utility.yul\":16157:16163   */\n      dup4\n        /* \"#utility.yul\":16150:16214   */\n      sstore\n        /* \"#utility.yul\":16072:16228   */\n      pop\n        /* \"#utility.yul\":16049:16228   */\n    tag_399:\n        /* \"#utility.yul\":16274:16275   */\n      0x01\n        /* \"#utility.yul\":16270:16271   */\n      0x02\n        /* \"#utility.yul\":16262:16268   */\n      dup9\n        /* \"#utility.yul\":16258:16272   */\n      mul\n        /* \"#utility.yul\":16254:16276   */\n      add\n        /* \"#utility.yul\":16248:16252   */\n      dup9\n        /* \"#utility.yul\":16241:16277   */\n      sstore\n        /* \"#utility.yul\":15676:16287   */\n      pop\n      pop\n      pop\n        /* \"#utility.yul\":15639:16526   */\n    tag_391:\n      pop\n        /* \"#utility.yul\":15229:16532   */\n      pop\n      pop\n      pop\n        /* \"#utility.yul\":15137:16532   */\n      pop\n      pop\n      jump\t// out\n        /* \"#utility.yul\":16538:16758   */\n    tag_203:\n        /* \"#utility.yul\":16678:16712   */\n      0x596f75206d757374206265206120636f6e7472696275746f7220746f20766f74\n        /* \"#utility.yul\":16674:16675   */\n      0x00\n        /* \"#utility.yul\":16666:16672   */\n      dup3\n        /* \"#utility.yul\":16662:16676   */\n      add\n        /* \"#utility.yul\":16655:16713   */\n      mstore\n        /* \"#utility.yul\":16747:16750   */\n      0x6500000000000000000000000000000000000000000000000000000000000000\n        /* \"#utility.yul\":16742:16744   */\n      0x20\n        /* \"#utility.yul\":16734:16740   */\n      dup3\n        /* \"#utility.yul\":16730:16745   */\n      add\n        /* \"#utility.yul\":16723:16751   */\n      mstore\n        /* \"#utility.yul\":16538:16758   */\n      pop\n      jump\t// out\n        /* \"#utility.yul\":16764:17130   */\n    tag_204:\n        /* \"#utility.yul\":16906:16909   */\n      0x00\n        /* \"#utility.yul\":16927:16994   */\n      tag_403\n        /* \"#utility.yul\":16991:16993   */\n      0x21\n        /* \"#utility.yul\":16986:16989   */\n      dup4\n        /* \"#utility.yul\":16927:16994   */\n      tag_174\n      jump\t// in\n    tag_403:\n        /* \"#utility.yul\":16920:16994   */\n      swap2\n      pop\n        /* \"#utility.yul\":17003:17096   */\n      tag_404\n        /* \"#utility.yul\":17092:17095   */\n      dup3\n        /* \"#utility.yul\":17003:17096   */\n      tag_203\n      jump\t// in\n    tag_404:\n        /* \"#utility.yul\":17121:17123   */\n      0x40\n        /* \"#utility.yul\":17116:17119   */\n      dup3\n        /* \"#utility.yul\":17112:17124   */\n      add\n        /* \"#utility.yul\":17105:17124   */\n      swap1\n      pop\n        /* \"#utility.yul\":16764:17130   */\n      swap2\n      swap1\n      pop\n      jump\t// out\n        /* \"#utility.yul\":17136:17555   */\n    tag_109:\n        /* \"#utility.yul\":17302:17306   */\n      0x00\n        /* \"#utility.yul\":17340:17342   */\n      0x20\n        /* \"#utility.yul\":17329:17338   */\n      dup3\n        /* \"#utility.yul\":17325:17343   */\n      add\n        /* \"#utility.yul\":17317:17343   */\n      swap1\n      pop\n        /* \"#utility.yul\":17389:17398   */\n      dup2\n        /* \"#utility.yul\":17383:17387   */\n      dup2\n        /* \"#utility.yul\":17379:17399   */\n      sub\n        /* \"#utility.yul\":17375:17376   */\n      0x00\n        /* \"#utility.yul\":17364:17373   */\n      dup4\n        /* \"#utility.yul\":17360:17377   */\n      add\n        /* \"#utility.yul\":17353:17400   */\n      mstore\n        /* \"#utility.yul\":17417:17548   */\n      tag_406\n        /* \"#utility.yul\":17543:17547   */\n      dup2\n        /* \"#utility.yul\":17417:17548   */\n      tag_204\n      jump\t// in\n    tag_406:\n        /* \"#utility.yul\":17409:17548   */\n      swap1\n      pop\n        /* \"#utility.yul\":17136:17555   */\n      swap2\n      swap1\n      pop\n      jump\t// out\n        /* \"#utility.yul\":17561:17734   */\n    tag_205:\n        /* \"#utility.yul\":17701:17726   */\n      0x596f75206861766520616c726561647920766f7465642e000000000000000000\n        /* \"#utility.yul\":17697:17698   */\n      0x00\n        /* \"#utility.yul\":17689:17695   */\n      dup3\n        /* \"#utility.yul\":17685:17699   */\n      add\n        /* \"#utility.yul\":17678:17727   */\n      mstore\n        /* \"#utility.yul\":17561:17734   */\n      pop\n      jump\t// out\n        /* \"#utility.yul\":17740:18106   */\n    tag_206:\n        /* \"#utility.yul\":17882:17885   */\n      0x00\n        /* \"#utility.yul\":17903:17970   */\n      tag_409\n        /* \"#utility.yul\":17967:17969   */\n      0x17\n        /* \"#utility.yul\":17962:17965   */\n      dup4\n        /* \"#utility.yul\":17903:17970   */\n      tag_174\n      jump\t// in\n    tag_409:\n        /* \"#utility.yul\":17896:17970   */\n      swap2\n      pop\n        /* \"#utility.yul\":17979:18072   */\n      tag_410\n        /* \"#utility.yul\":18068:18071   */\n      dup3\n        /* \"#utility.yul\":17979:18072   */\n      tag_205\n      jump\t// in\n    tag_410:\n        /* \"#utility.yul\":18097:18099   */\n      0x20\n        /* \"#utility.yul\":18092:18095   */\n      dup3\n        /* \"#utility.yul\":18088:18100   */\n      add\n        /* \"#utility.yul\":18081:18100   */\n      swap1\n      pop\n        /* \"#utility.yul\":17740:18106   */\n      swap2\n      swap1\n      pop\n      jump\t// out\n        /* \"#utility.yul\":18112:18531   */\n    tag_112:\n        /* \"#utility.yul\":18278:18282   */\n      0x00\n        /* \"#utility.yul\":18316:18318   */\n      0x20\n        /* \"#utility.yul\":18305:18314   */\n      dup3\n        /* \"#utility.yul\":18301:18319   */\n      add\n        /* \"#utility.yul\":18293:18319   */\n      swap1\n      pop\n        /* \"#utility.yul\":18365:18374   */\n      dup2\n        /* \"#utility.yul\":18359:18363   */\n      dup2\n        /* \"#utility.yul\":18355:18375   */\n      sub\n        /* \"#utility.yul\":18351:18352   */\n      0x00\n        /* \"#utility.yul\":18340:18349   */\n      dup4\n        /* \"#utility.yul\":18336:18353   */\n      add\n        /* \"#utility.yul\":18329:18376   */\n      mstore\n        /* \"#utility.yul\":18393:18524   */\n      tag_412\n        /* \"#utility.yul\":18519:18523   */\n      dup2\n        /* \"#utility.yul\":18393:18524   */\n      tag_206\n      jump\t// in\n    tag_412:\n        /* \"#utility.yul\":18385:18524   */\n      swap1\n      pop\n        /* \"#utility.yul\":18112:18531   */\n      swap2\n      swap1\n      pop\n      jump\t// out\n        /* \"#utility.yul\":18537:18775   */\n    tag_207:\n        /* \"#utility.yul\":18677:18711   */\n      0x596f752063616e277420706572666f726d207468697320616374696f6e2c206e\n        /* \"#utility.yul\":18673:18674   */\n      0x00\n        /* \"#utility.yul\":18665:18671   */\n      dup3\n        /* \"#utility.yul\":18661:18675   */\n      add\n        /* \"#utility.yul\":18654:18712   */\n      mstore\n        /* \"#utility.yul\":18746:18767   */\n      0x6f742073756666696369656e742066756e647300000000000000000000000000\n        /* \"#utility.yul\":18741:18743   */\n      0x20\n        /* \"#utility.yul\":18733:18739   */\n      dup3\n        /* \"#utility.yul\":18729:18744   */\n      add\n        /* \"#utility.yul\":18722:18768   */\n      mstore\n        /* \"#utility.yul\":18537:18775   */\n      pop\n      jump\t// out\n        /* \"#utility.yul\":18781:19147   */\n    tag_208:\n        /* \"#utility.yul\":18923:18926   */\n      0x00\n        /* \"#utility.yul\":18944:19011   */\n      tag_415\n        /* \"#utility.yul\":19008:19010   */\n      0x33\n        /* \"#utility.yul\":19003:19006   */\n      dup4\n        /* \"#utility.yul\":18944:19011   */\n      tag_174\n      jump\t// in\n    tag_415:\n        /* \"#utility.yul\":18937:19011   */\n      swap2\n      pop\n        /* \"#utility.yul\":19020:19113   */\n      tag_416\n        /* \"#utility.yul\":19109:19112   */\n      dup3\n        /* \"#utility.yul\":19020:19113   */\n      tag_207\n      jump\t// in\n    tag_416:\n        /* \"#utility.yul\":19138:19140   */\n      0x40\n        /* \"#utility.yul\":19133:19136   */\n      dup3\n        /* \"#utility.yul\":19129:19141   */\n      add\n        /* \"#utility.yul\":19122:19141   */\n      swap1\n      pop\n        /* \"#utility.yul\":18781:19147   */\n      swap2\n      swap1\n      pop\n      jump\t// out\n        /* \"#utility.yul\":19153:19572   */\n    tag_120:\n        /* \"#utility.yul\":19319:19323   */\n      0x00\n        /* \"#utility.yul\":19357:19359   */\n      0x20\n        /* \"#utility.yul\":19346:19355   */\n      dup3\n        /* \"#utility.yul\":19342:19360   */\n      add\n        /* \"#utility.yul\":19334:19360   */\n      swap1\n      pop\n        /* \"#utility.yul\":19406:19415   */\n      dup2\n        /* \"#utility.yul\":19400:19404   */\n      dup2\n        /* \"#utility.yul\":19396:19416   */\n      sub\n        /* \"#utility.yul\":19392:19393   */\n      0x00\n        /* \"#utility.yul\":19381:19390   */\n      dup4\n        /* \"#utility.yul\":19377:19394   */\n      add\n        /* \"#utility.yul\":19370:19417   */\n      mstore\n        /* \"#utility.yul\":19434:19565   */\n      tag_418\n        /* \"#utility.yul\":19560:19564   */\n      dup2\n        /* \"#utility.yul\":19434:19565   */\n      tag_208\n      jump\t// in\n    tag_418:\n        /* \"#utility.yul\":19426:19565   */\n      swap1\n      pop\n        /* \"#utility.yul\":19153:19572   */\n      swap2\n      swap1\n      pop\n      jump\t// out\n        /* \"#utility.yul\":19578:19760   */\n    tag_209:\n        /* \"#utility.yul\":19718:19752   */\n      0x54686973207265717565737420686173206265656e20636f6d706c657465642e\n        /* \"#utility.yul\":19714:19715   */\n      0x00\n        /* \"#utility.yul\":19706:19712   */\n      dup3\n        /* \"#utility.yul\":19702:19716   */\n      add\n        /* \"#utility.yul\":19695:19753   */\n      mstore\n        /* \"#utility.yul\":19578:19760   */\n      pop\n      jump\t// out\n        /* \"#utility.yul\":19766:20132   */\n    tag_210:\n        /* \"#utility.yul\":19908:19911   */\n      0x00\n        /* \"#utility.yul\":19929:19996   */\n      tag_421\n        /* \"#utility.yul\":19993:19995   */\n      0x20\n        /* \"#utility.yul\":19988:19991   */\n      dup4\n        /* \"#utility.yul\":19929:19996   */\n      tag_174\n      jump\t// in\n    tag_421:\n        /* \"#utility.yul\":19922:19996   */\n      swap2\n      pop\n        /* \"#utility.yul\":20005:20098   */\n      tag_422\n        /* \"#utility.yul\":20094:20097   */\n      dup3\n        /* \"#utility.yul\":20005:20098   */\n      tag_209\n      jump\t// in\n    tag_422:\n        /* \"#utility.yul\":20123:20125   */\n      0x20\n        /* \"#utility.yul\":20118:20121   */\n      dup3\n        /* \"#utility.yul\":20114:20126   */\n      add\n        /* \"#utility.yul\":20107:20126   */\n      swap1\n      pop\n        /* \"#utility.yul\":19766:20132   */\n      swap2\n      swap1\n      pop\n      jump\t// out\n        /* \"#utility.yul\":20138:20557   */\n    tag_123:\n        /* \"#utility.yul\":20304:20308   */\n      0x00\n        /* \"#utility.yul\":20342:20344   */\n      0x20\n        /* \"#utility.yul\":20331:20340   */\n      dup3\n        /* \"#utility.yul\":20327:20345   */\n      add\n        /* \"#utility.yul\":20319:20345   */\n      swap1\n      pop\n        /* \"#utility.yul\":20391:20400   */\n      dup2\n        /* \"#utility.yul\":20385:20389   */\n      dup2\n        /* \"#utility.yul\":20381:20401   */\n      sub\n        /* \"#utility.yul\":20377:20378   */\n      0x00\n        /* \"#utility.yul\":20366:20375   */\n      dup4\n        /* \"#utility.yul\":20362:20379   */\n      add\n        /* \"#utility.yul\":20355:20402   */\n      mstore\n        /* \"#utility.yul\":20419:20550   */\n      tag_424\n        /* \"#utility.yul\":20545:20549   */\n      dup2\n        /* \"#utility.yul\":20419:20550   */\n      tag_210\n      jump\t// in\n    tag_424:\n        /* \"#utility.yul\":20411:20550   */\n      swap1\n      pop\n        /* \"#utility.yul\":20138:20557   */\n      swap2\n      swap1\n      pop\n      jump\t// out\n        /* \"#utility.yul\":20563:20743   */\n    tag_211:\n        /* \"#utility.yul\":20611:20688   */\n      0x4e487b7100000000000000000000000000000000000000000000000000000000\n        /* \"#utility.yul\":20608:20609   */\n      0x00\n        /* \"#utility.yul\":20601:20689   */\n      mstore\n        /* \"#utility.yul\":20708:20712   */\n      0x12\n        /* \"#utility.yul\":20705:20706   */\n      0x04\n        /* \"#utility.yul\":20698:20713   */\n      mstore\n        /* \"#utility.yul\":20732:20736   */\n      0x24\n        /* \"#utility.yul\":20729:20730   */\n      0x00\n        /* \"#utility.yul\":20722:20737   */\n      revert\n        /* \"#utility.yul\":20749:20934   */\n    tag_125:\n        /* \"#utility.yul\":20789:20790   */\n      0x00\n        /* \"#utility.yul\":20806:20826   */\n      tag_427\n        /* \"#utility.yul\":20824:20825   */\n      dup3\n        /* \"#utility.yul\":20806:20826   */\n      tag_155\n      jump\t// in\n    tag_427:\n        /* \"#utility.yul\":20801:20826   */\n      swap2\n      pop\n        /* \"#utility.yul\":20840:20860   */\n      tag_428\n        /* \"#utility.yul\":20858:20859   */\n      dup4\n        /* \"#utility.yul\":20840:20860   */\n      tag_155\n      jump\t// in\n    tag_428:\n        /* \"#utility.yul\":20835:20860   */\n      swap3\n      pop\n        /* \"#utility.yul\":20879:20880   */\n      dup3\n        /* \"#utility.yul\":20869:20904   */\n      tag_429\n      jumpi\n        /* \"#utility.yul\":20884:20902   */\n      tag_430\n      tag_211\n      jump\t// in\n    tag_430:\n        /* \"#utility.yul\":20869:20904   */\n    tag_429:\n        /* \"#utility.yul\":20926:20927   */\n      dup3\n        /* \"#utility.yul\":20923:20924   */\n      dup3\n        /* \"#utility.yul\":20919:20928   */\n      div\n        /* \"#utility.yul\":20914:20928   */\n      swap1\n      pop\n        /* \"#utility.yul\":20749:20934   */\n      swap3\n      swap2\n      pop\n      pop\n      jump\t// out\n        /* \"#utility.yul\":20940:21112   */\n    tag_212:\n        /* \"#utility.yul\":21080:21104   */\n      0x4d616a6f7269747920646f6e6f7420737570706f727400000000000000000000\n        /* \"#utility.yul\":21076:21077   */\n      0x00\n        /* \"#utility.yul\":21068:21074   */\n      dup3\n        /* \"#utility.yul\":21064:21078   */\n      add\n        /* \"#utility.yul\":21057:21105   */\n      mstore\n        /* \"#utility.yul\":20940:21112   */\n      pop\n      jump\t// out\n        /* \"#utility.yul\":21118:21484   */\n    tag_213:\n        /* \"#utility.yul\":21260:21263   */\n      0x00\n        /* \"#utility.yul\":21281:21348   */\n      tag_433\n        /* \"#utility.yul\":21345:21347   */\n      0x16\n        /* \"#utility.yul\":21340:21343   */\n      dup4\n        /* \"#utility.yul\":21281:21348   */\n      tag_174\n      jump\t// in\n    tag_433:\n        /* \"#utility.yul\":21274:21348   */\n      swap2\n      pop\n        /* \"#utility.yul\":21357:21450   */\n      tag_434\n        /* \"#utility.yul\":21446:21449   */\n      dup3\n        /* \"#utility.yul\":21357:21450   */\n      tag_212\n      jump\t// in\n    tag_434:\n        /* \"#utility.yul\":21475:21477   */\n      0x20\n        /* \"#utility.yul\":21470:21473   */\n      dup3\n        /* \"#utility.yul\":21466:21478   */\n      add\n        /* \"#utility.yul\":21459:21478   */\n      swap1\n      pop\n        /* \"#utility.yul\":21118:21484   */\n      swap2\n      swap1\n      pop\n      jump\t// out\n        /* \"#utility.yul\":21490:21909   */\n    tag_128:\n        /* \"#utility.yul\":21656:21660   */\n      0x00\n        /* \"#utility.yul\":21694:21696   */\n      0x20\n        /* \"#utility.yul\":21683:21692   */\n      dup3\n        /* \"#utility.yul\":21679:21697   */\n      add\n        /* \"#utility.yul\":21671:21697   */\n      swap1\n      pop\n        /* \"#utility.yul\":21743:21752   */\n      dup2\n        /* \"#utility.yul\":21737:21741   */\n      dup2\n        /* \"#utility.yul\":21733:21753   */\n      sub\n        /* \"#utility.yul\":21729:21730   */\n      0x00\n        /* \"#utility.yul\":21718:21727   */\n      dup4\n        /* \"#utility.yul\":21714:21731   */\n      add\n        /* \"#utility.yul\":21707:21754   */\n      mstore\n        /* \"#utility.yul\":21771:21902   */\n      tag_436\n        /* \"#utility.yul\":21897:21901   */\n      dup2\n        /* \"#utility.yul\":21771:21902   */\n      tag_213\n      jump\t// in\n    tag_436:\n        /* \"#utility.yul\":21763:21902   */\n      swap1\n      pop\n        /* \"#utility.yul\":21490:21909   */\n      swap2\n      swap1\n      pop\n      jump\t// out\n        /* \"#utility.yul\":21915:22138   */\n    tag_214:\n        /* \"#utility.yul\":22055:22089   */\n      0x596f7520617265206e6f7420656c696769626c6520746f206765742061207265\n        /* \"#utility.yul\":22051:22052   */\n      0x00\n        /* \"#utility.yul\":22043:22049   */\n      dup3\n        /* \"#utility.yul\":22039:22053   */\n      add\n        /* \"#utility.yul\":22032:22090   */\n      mstore\n        /* \"#utility.yul\":22124:22130   */\n      0x66756e6400000000000000000000000000000000000000000000000000000000\n        /* \"#utility.yul\":22119:22121   */\n      0x20\n        /* \"#utility.yul\":22111:22117   */\n      dup3\n        /* \"#utility.yul\":22107:22122   */\n      add\n        /* \"#utility.yul\":22100:22131   */\n      mstore\n        /* \"#utility.yul\":21915:22138   */\n      pop\n      jump\t// out\n        /* \"#utility.yul\":22144:22510   */\n    tag_215:\n        /* \"#utility.yul\":22286:22289   */\n      0x00\n        /* \"#utility.yul\":22307:22374   */\n      tag_439\n        /* \"#utility.yul\":22371:22373   */\n      0x24\n        /* \"#utility.yul\":22366:22369   */\n      dup4\n        /* \"#utility.yul\":22307:22374   */\n      tag_174\n      jump\t// in\n    tag_439:\n        /* \"#utility.yul\":22300:22374   */\n      swap2\n      pop\n        /* \"#utility.yul\":22383:22476   */\n      tag_440\n        /* \"#utility.yul\":22472:22475   */\n      dup3\n        /* \"#utility.yul\":22383:22476   */\n      tag_214\n      jump\t// in\n    tag_440:\n        /* \"#utility.yul\":22501:22503   */\n      0x40\n        /* \"#utility.yul\":22496:22499   */\n      dup3\n        /* \"#utility.yul\":22492:22504   */\n      add\n        /* \"#utility.yul\":22485:22504   */\n      swap1\n      pop\n        /* \"#utility.yul\":22144:22510   */\n      swap2\n      swap1\n      pop\n      jump\t// out\n        /* \"#utility.yul\":22516:22935   */\n    tag_135:\n        /* \"#utility.yul\":22682:22686   */\n      0x00\n        /* \"#utility.yul\":22720:22722   */\n      0x20\n        /* \"#utility.yul\":22709:22718   */\n      dup3\n        /* \"#utility.yul\":22705:22723   */\n      add\n        /* \"#utility.yul\":22697:22723   */\n      swap1\n      pop\n        /* \"#utility.yul\":22769:22778   */\n      dup2\n        /* \"#utility.yul\":22763:22767   */\n      dup2\n        /* \"#utility.yul\":22759:22779   */\n      sub\n        /* \"#utility.yul\":22755:22756   */\n      0x00\n        /* \"#utility.yul\":22744:22753   */\n      dup4\n        /* \"#utility.yul\":22740:22757   */\n      add\n        /* \"#utility.yul\":22733:22780   */\n      mstore\n        /* \"#utility.yul\":22797:22928   */\n      tag_442\n        /* \"#utility.yul\":22923:22927   */\n      dup2\n        /* \"#utility.yul\":22797:22928   */\n      tag_215\n      jump\t// in\n    tag_442:\n        /* \"#utility.yul\":22789:22928   */\n      swap1\n      pop\n        /* \"#utility.yul\":22516:22935   */\n      swap2\n      swap1\n      pop\n      jump\t// out\n        /* \"#utility.yul\":22941:23166   */\n    tag_216:\n        /* \"#utility.yul\":23081:23115   */\n      0x596f75206172652068617665206e6f7420636f6e747269627574656420616e79\n        /* \"#utility.yul\":23077:23078   */\n      0x00\n        /* \"#utility.yul\":23069:23075   */\n      dup3\n        /* \"#utility.yul\":23065:23079   */\n      add\n        /* \"#utility.yul\":23058:23116   */\n      mstore\n        /* \"#utility.yul\":23150:23158   */\n      0x7468696e672e0000000000000000000000000000000000000000000000000000\n        /* \"#utility.yul\":23145:23147   */\n      0x20\n        /* \"#utility.yul\":23137:23143   */\n      dup3\n        /* \"#utility.yul\":23133:23148   */\n      add\n        /* \"#utility.yul\":23126:23159   */\n      mstore\n        /* \"#utility.yul\":22941:23166   */\n      pop\n      jump\t// out\n        /* \"#utility.yul\":23172:23538   */\n    tag_217:\n        /* \"#utility.yul\":23314:23317   */\n      0x00\n        /* \"#utility.yul\":23335:23402   */\n      tag_445\n        /* \"#utility.yul\":23399:23401   */\n      0x26\n        /* \"#utility.yul\":23394:23397   */\n      dup4\n        /* \"#utility.yul\":23335:23402   */\n      tag_174\n      jump\t// in\n    tag_445:\n        /* \"#utility.yul\":23328:23402   */\n      swap2\n      pop\n        /* \"#utility.yul\":23411:23504   */\n      tag_446\n        /* \"#utility.yul\":23500:23503   */\n      dup3\n        /* \"#utility.yul\":23411:23504   */\n      tag_216\n      jump\t// in\n    tag_446:\n        /* \"#utility.yul\":23529:23531   */\n      0x40\n        /* \"#utility.yul\":23524:23527   */\n      dup3\n        /* \"#utility.yul\":23520:23532   */\n      add\n        /* \"#utility.yul\":23513:23532   */\n      swap1\n      pop\n        /* \"#utility.yul\":23172:23538   */\n      swap2\n      swap1\n      pop\n      jump\t// out\n        /* \"#utility.yul\":23544:23963   */\n    tag_138:\n        /* \"#utility.yul\":23710:23714   */\n      0x00\n        /* \"#utility.yul\":23748:23750   */\n      0x20\n        /* \"#utility.yul\":23737:23746   */\n      dup3\n        /* \"#utility.yul\":23733:23751   */\n      add\n        /* \"#utility.yul\":23725:23751   */\n      swap1\n      pop\n        /* \"#utility.yul\":23797:23806   */\n      dup2\n        /* \"#utility.yul\":23791:23795   */\n      dup2\n        /* \"#utility.yul\":23787:23807   */\n      sub\n        /* \"#utility.yul\":23783:23784   */\n      0x00\n        /* \"#utility.yul\":23772:23781   */\n      dup4\n        /* \"#utility.yul\":23768:23785   */\n      add\n        /* \"#utility.yul\":23761:23808   */\n      mstore\n        /* \"#utility.yul\":23825:23956   */\n      tag_448\n        /* \"#utility.yul\":23951:23955   */\n      dup2\n        /* \"#utility.yul\":23825:23956   */\n      tag_217\n      jump\t// in\n    tag_448:\n        /* \"#utility.yul\":23817:23956   */\n      swap1\n      pop\n        /* \"#utility.yul\":23544:23963   */\n      swap2\n      swap1\n      pop\n      jump\t// out\n\n    auxdata: 0xa26469706673582212203758868b7724ce8063a780791c55bbd2cafc39cb417c7ca7ab8a6a7ac4166c3864736f6c63430008120033\n}\n",
				"bytecode": {
					"linkReferences": {},
					"object": "60806040523480156200001157600080fd5b5060405162001bac38038062001bac8339818101604052810190620000379190620000e3565b8160048190555080426200004c919062000159565b600381905550606460028190555033600160006101000a81548173ffffffffffffffffffffffffffffffffffffffff021916908373ffffffffffffffffffffffffffffffffffffffff160217905550505062000194565b600080fd5b6000819050919050565b620000bd81620000a8565b8114620000c957600080fd5b50565b600081519050620000dd81620000b2565b92915050565b60008060408385031215620000fd57620000fc620000a3565b5b60006200010d85828601620000cc565b92505060206200012085828601620000cc565b9150509250929050565b7f4e487b7100000000000000000000000000000000000000000000000000000000600052601160045260246000fd5b60006200016682620000a8565b91506200017383620000a8565b92508282019050808211156200018e576200018d6200012a565b5b92915050565b611a0880620001a46000396000f3fe6080604052600436106100e85760003560e01c80635114cb521161008a578063937e09b111610059578063937e09b1146102b35780639fb42b1f146102de578063c59ee1dc14610309578063d4b8399214610334576100e8565b80635114cb5214610207578063590e1ae3146102305780636f9fb98a1461024757806381d12c5814610272576100e8565b80633eb7647b116100c65780633eb7647b1461015f578063481c6a75146101885780634cb6f4a5146101b35780634e260f6f146101dc576100e8565b806306e99fef146100ed5780631f6d4942146100f757806329dcb0cf14610134575b600080fd5b6100f561035f565b005b34801561010357600080fd5b5061011e60048036038101906101199190610d19565b6104b7565b60405161012b9190610d5f565b60405180910390f35b34801561014057600080fd5b506101496104cf565b6040516101569190610d5f565b60405180910390f35b34801561016b57600080fd5b5061018660048036038101906101819190610f2a565b6104d5565b005b34801561019457600080fd5b5061019d610604565b6040516101aa9190610fa8565b60405180910390f35b3480156101bf57600080fd5b506101da60048036038101906101d59190610fc3565b61062a565b005b3480156101e857600080fd5b506101f16107cf565b6040516101fe9190610d5f565b60405180910390f35b34801561021357600080fd5b5061022e60048036038101906102299190610fc3565b6107d5565b005b34801561023c57600080fd5b506102456109f7565b005b34801561025357600080fd5b5061025c610b9c565b6040516102699190610d5f565b60405180910390f35b34801561027e57600080fd5b5061029960048036038101906102949190610fc3565b610ba4565b6040516102aa959493929190611099565b60405180910390f35b3480156102bf57600080fd5b506102c8610c8f565b6040516102d59190610d5f565b60405180910390f35b3480156102ea57600080fd5b506102f3610c95565b6040516103009190610d5f565b60405180910390f35b34801561031557600080fd5b5061031e610c9b565b60405161032b9190610d5f565b60405180910390f35b34801561034057600080fd5b50610349610ca1565b6040516103569190610d5f565b60405180910390f35b60035442106103a3576040517f08c379a000000000000000000000000000000000000000000000000000000000815260040161039a9061113f565b60405180910390fd5b6002543410156103e8576040517f08c379a00000000000000000000000000000000000000000000000000000000081526004016103df906111ab565b60405180910390fd5b60008060003373ffffffffffffffffffffffffffffffffffffffff1673ffffffffffffffffffffffffffffffffffffffff16815260200190815260200160002054036104475760066000815480929190610441906111fa565b91905055505b346000803373ffffffffffffffffffffffffffffffffffffffff1673ffffffffffffffffffffffffffffffffffffffff16815260200190815260200160002060008282546104959190611242565b9250508190555034600560008282546104ae9190611242565b92505081905550565b60006020528060005260406000206000915090505481565b60035481565b600160009054906101000a900473ffffffffffffffffffffffffffffffffffffffff1673ffffffffffffffffffffffffffffffffffffffff163373ffffffffffffffffffffffffffffffffffffffff1614610565576040517f08c379a000000000000000000000000000000000000000000000000000000000815260040161055c906112e8565b60405180910390fd5b6000600760006008548152602001908152602001600020905060086000815480929190610591906111fa565b9190505550838160000190816105a79190611514565b50828160010160006101000a81548173ffffffffffffffffffffffffffffffffffffffff021916908373ffffffffffffffffffffffffffffffffffffffff1602179055508181600201819055506000816004018190555050505050565b600160009054906101000a900473ffffffffffffffffffffffffffffffffffffffff1681565b60008060003373ffffffffffffffffffffffffffffffffffffffff1673ffffffffffffffffffffffffffffffffffffffff16815260200190815260200160002054116106ab576040517f08c379a00000000000000000000000000000000000000000000000000000000081526004016106a290611658565b60405180910390fd5b6000600760008381526020019081526020016000209050600015158160050160003373ffffffffffffffffffffffffffffffffffffffff1673ffffffffffffffffffffffffffffffffffffffff16815260200190815260200160002060009054906101000a900460ff16151514610757576040517f08c379a000000000000000000000000000000000000000000000000000000000815260040161074e906116c4565b60405180910390fd5b60018160050160003373ffffffffffffffffffffffffffffffffffffffff1673ffffffffffffffffffffffffffffffffffffffff16815260200190815260200160002060006101000a81548160ff0219169083151502179055508060040160008154809291906107c6906111fa565b91905055505050565b60065481565b600160009054906101000a900473ffffffffffffffffffffffffffffffffffffffff1673ffffffffffffffffffffffffffffffffffffffff163373ffffffffffffffffffffffffffffffffffffffff1614610865576040517f08c379a000000000000000000000000000000000000000000000000000000000815260040161085c906112e8565b60405180910390fd5b60045460055410156108ac576040517f08c379a00000000000000000000000000000000000000000000000000000000081526004016108a390611756565b60405180910390fd5b6000600760008381526020019081526020016000209050600015158160030160009054906101000a900460ff1615151461091b576040517f08c379a0000000000000000000000000000000000000000000000000000000008152600401610912906117c2565b60405180910390fd5b600260065461092a9190611811565b81600401541161096f576040517f08c379a00000000000000000000000000000000000000000000000000000000081526004016109669061188e565b60405180910390fd5b8060010160009054906101000a900473ffffffffffffffffffffffffffffffffffffffff1673ffffffffffffffffffffffffffffffffffffffff166108fc82600201549081150290604051600060405180830381858888f193505050501580156109dd573d6000803e3d6000fd5b50600115158160030160009054906101000a905050505050565b60035442118015610a0b5750600454600554105b610a4a576040517f08c379a0000000000000000000000000000000000000000000000000000000008152600401610a4190611920565b60405180910390fd5b60008060003373ffffffffffffffffffffffffffffffffffffffff1673ffffffffffffffffffffffffffffffffffffffff1681526020019081526020016000205411610acb576040517f08c379a0000000000000000000000000000000000000000000000000000000008152600401610ac2906119b2565b60405180910390fd5b60003390508073ffffffffffffffffffffffffffffffffffffffff166108fc6000803373ffffffffffffffffffffffffffffffffffffffff1673ffffffffffffffffffffffffffffffffffffffff168152602001908152602001600020549081150290604051600060405180830381858888f19350505050158015610b54573d6000803e3d6000fd5b5060008060003373ffffffffffffffffffffffffffffffffffffffff1673ffffffffffffffffffffffffffffffffffffffff1681526020019081526020016000208190555050565b600047905090565b6007602052806000526040600020600091509050806000018054610bc790611337565b80601f0160208091040260200160405190810160405280929190818152602001828054610bf390611337565b8015610c405780601f10610c1557610100808354040283529160200191610c40565b820191906000526020600020905b815481529060010190602001808311610c2357829003601f168201915b5050505050908060010160009054906101000a900473ffffffffffffffffffffffffffffffffffffffff16908060020154908060030160009054906101000a900460ff16908060040154905085565b60025481565b60085481565b60055481565b60045481565b6000604051905090565b600080fd5b600080fd5b600073ffffffffffffffffffffffffffffffffffffffff82169050919050565b6000610ce682610cbb565b9050919050565b610cf681610cdb565b8114610d0157600080fd5b50565b600081359050610d1381610ced565b92915050565b600060208284031215610d2f57610d2e610cb1565b5b6000610d3d84828501610d04565b91505092915050565b6000819050919050565b610d5981610d46565b82525050565b6000602082019050610d746000830184610d50565b92915050565b600080fd5b600080fd5b6000601f19601f8301169050919050565b7f4e487b7100000000000000000000000000000000000000000000000000000000600052604160045260246000fd5b610dcd82610d84565b810181811067ffffffffffffffff82111715610dec57610deb610d95565b5b80604052505050565b6000610dff610ca7565b9050610e0b8282610dc4565b919050565b600067ffffffffffffffff821115610e2b57610e2a610d95565b5b610e3482610d84565b9050602081019050919050565b82818337600083830152505050565b6000610e63610e5e84610e10565b610df5565b905082815260208101848484011115610e7f57610e7e610d7f565b5b610e8a848285610e41565b509392505050565b600082601f830112610ea757610ea6610d7a565b5b8135610eb7848260208601610e50565b91505092915050565b6000610ecb82610cbb565b9050919050565b610edb81610ec0565b8114610ee657600080fd5b50565b600081359050610ef881610ed2565b92915050565b610f0781610d46565b8114610f1257600080fd5b50565b600081359050610f2481610efe565b92915050565b600080600060608486031215610f4357610f42610cb1565b5b600084013567ffffffffffffffff811115610f6157610f60610cb6565b5b610f6d86828701610e92565b9350506020610f7e86828701610ee9565b9250506040610f8f86828701610f15565b9150509250925092565b610fa281610cdb565b82525050565b6000602082019050610fbd6000830184610f99565b92915050565b600060208284031215610fd957610fd8610cb1565b5b6000610fe784828501610f15565b91505092915050565b600081519050919050565b600082825260208201905092915050565b60005b8381101561102a57808201518184015260208101905061100f565b60008484015250505050565b600061104182610ff0565b61104b8185610ffb565b935061105b81856020860161100c565b61106481610d84565b840191505092915050565b61107881610ec0565b82525050565b60008115159050919050565b6110938161107e565b82525050565b600060a08201905081810360008301526110b38188611036565b90506110c2602083018761106f565b6110cf6040830186610d50565b6110dc606083018561108a565b6110e96080830184610d50565b9695505050505050565b7f446561646c696e65206861732070617373656400000000000000000000000000600082015250565b6000611129601383610ffb565b9150611134826110f3565b602082019050919050565b600060208201905081810360008301526111588161111c565b9050919050565b7f4d696e696d756d20636f6e747269627574696f6e206973206e6f74206d65742e600082015250565b6000611195602083610ffb565b91506111a08261115f565b602082019050919050565b600060208201905081810360008301526111c481611188565b9050919050565b7f4e487b7100000000000000000000000000000000000000000000000000000000600052601160045260246000fd5b600061120582610d46565b91507fffffffffffffffffffffffffffffffffffffffffffffffffffffffffffffffff8203611237576112366111cb565b5b600182019050919050565b600061124d82610d46565b915061125883610d46565b92508282019050808211156112705761126f6111cb565b5b92915050565b7f4f6e6c79206d616e616765722063616e2063616c6c20746869732066756e637460008201527f696f6e0000000000000000000000000000000000000000000000000000000000602082015250565b60006112d2602383610ffb565b91506112dd82611276565b604082019050919050565b60006020820190508181036000830152611301816112c5565b9050919050565b7f4e487b7100000000000000000000000000000000000000000000000000000000600052602260045260246000fd5b6000600282049050600182168061134f57607f821691505b60208210810361136257611361611308565b5b50919050565b60008190508160005260206000209050919050565b60006020601f8301049050919050565b600082821b905092915050565b6000600883026113ca7fffffffffffffffffffffffffffffffffffffffffffffffffffffffffffffffff8261138d565b6113d4868361138d565b95508019841693508086168417925050509392505050565b6000819050919050565b600061141161140c61140784610d46565b6113ec565b610d46565b9050919050565b6000819050919050565b61142b836113f6565b61143f61143782611418565b84845461139a565b825550505050565b600090565b611454611447565b61145f818484611422565b505050565b5b818110156114835761147860008261144c565b600181019050611465565b5050565b601f8211156114c85761149981611368565b6114a28461137d565b810160208510156114b1578190505b6114c56114bd8561137d565b830182611464565b50505b505050565b600082821c905092915050565b60006114eb600019846008026114cd565b1980831691505092915050565b600061150483836114da565b9150826002028217905092915050565b61151d82610ff0565b67ffffffffffffffff81111561153657611535610d95565b5b6115408254611337565b61154b828285611487565b600060209050601f83116001811461157e576000841561156c578287015190505b61157685826114f8565b8655506115de565b601f19841661158c86611368565b60005b828110156115b45784890151825560018201915060208501945060208101905061158f565b868310156115d157848901516115cd601f8916826114da565b8355505b6001600288020188555050505b505050505050565b7f596f75206d757374206265206120636f6e7472696275746f7220746f20766f7460008201527f6500000000000000000000000000000000000000000000000000000000000000602082015250565b6000611642602183610ffb565b915061164d826115e6565b604082019050919050565b6000602082019050818103600083015261167181611635565b9050919050565b7f596f75206861766520616c726561647920766f7465642e000000000000000000600082015250565b60006116ae601783610ffb565b91506116b982611678565b602082019050919050565b600060208201905081810360008301526116dd816116a1565b9050919050565b7f596f752063616e277420706572666f726d207468697320616374696f6e2c206e60008201527f6f742073756666696369656e742066756e647300000000000000000000000000602082015250565b6000611740603383610ffb565b915061174b826116e4565b604082019050919050565b6000602082019050818103600083015261176f81611733565b9050919050565b7f54686973207265717565737420686173206265656e20636f6d706c657465642e600082015250565b60006117ac602083610ffb565b91506117b782611776565b602082019050919050565b600060208201905081810360008301526117db8161179f565b9050919050565b7f4e487b7100000000000000000000000000000000000000000000000000000000600052601260045260246000fd5b600061181c82610d46565b915061182783610d46565b925082611837576118366117e2565b5b828204905092915050565b7f4d616a6f7269747920646f6e6f7420737570706f727400000000000000000000600082015250565b6000611878601683610ffb565b915061188382611842565b602082019050919050565b600060208201905081810360008301526118a78161186b565b9050919050565b7f596f7520617265206e6f7420656c696769626c6520746f20676574206120726560008201527f66756e6400000000000000000000000000000000000000000000000000000000602082015250565b600061190a602483610ffb565b9150611915826118ae565b604082019050919050565b60006020820190508181036000830152611939816118fd565b9050919050565b7f596f75206172652068617665206e6f7420636f6e747269627574656420616e7960008201527f7468696e672e0000000000000000000000000000000000000000000000000000602082015250565b600061199c602683610ffb565b91506119a782611940565b604082019050919050565b600060208201905081810360008301526119cb8161198f565b905091905056fea26469706673582212203758868b7724ce8063a780791c55bbd2cafc39cb417c7ca7ab8a6a7ac4166c3864736f6c63430008120033",
					"opcodes": "PUSH1 0x80 PUSH1 0x40 MSTORE CALLVALUE DUP1 ISZERO PUSH3 0x11 JUMPI PUSH1 0x0 DUP1 REVERT JUMPDEST POP PUSH1 0x40 MLOAD PUSH3 0x1BAC CODESIZE SUB DUP1 PUSH3 0x1BAC DUP4 CODECOPY DUP2 DUP2 ADD PUSH1 0x40 MSTORE DUP2 ADD SWAP1 PUSH3 0x37 SWAP2 SWAP1 PUSH3 0xE3 JUMP JUMPDEST DUP2 PUSH1 0x4 DUP2 SWAP1 SSTORE POP DUP1 TIMESTAMP PUSH3 0x4C SWAP2 SWAP1 PUSH3 0x159 JUMP JUMPDEST PUSH1 0x3 DUP2 SWAP1 SSTORE POP PUSH1 0x64 PUSH1 0x2 DUP2 SWAP1 SSTORE POP CALLER PUSH1 0x1 PUSH1 0x0 PUSH2 0x100 EXP DUP2 SLOAD DUP2 PUSH20 0xFFFFFFFFFFFFFFFFFFFFFFFFFFFFFFFFFFFFFFFF MUL NOT AND SWAP1 DUP4 PUSH20 0xFFFFFFFFFFFFFFFFFFFFFFFFFFFFFFFFFFFFFFFF AND MUL OR SWAP1 SSTORE POP POP POP PUSH3 0x194 JUMP JUMPDEST PUSH1 0x0 DUP1 REVERT JUMPDEST PUSH1 0x0 DUP2 SWAP1 POP SWAP2 SWAP1 POP JUMP JUMPDEST PUSH3 0xBD DUP2 PUSH3 0xA8 JUMP JUMPDEST DUP2 EQ PUSH3 0xC9 JUMPI PUSH1 0x0 DUP1 REVERT JUMPDEST POP JUMP JUMPDEST PUSH1 0x0 DUP2 MLOAD SWAP1 POP PUSH3 0xDD DUP2 PUSH3 0xB2 JUMP JUMPDEST SWAP3 SWAP2 POP POP JUMP JUMPDEST PUSH1 0x0 DUP1 PUSH1 0x40 DUP4 DUP6 SUB SLT ISZERO PUSH3 0xFD JUMPI PUSH3 0xFC PUSH3 0xA3 JUMP JUMPDEST JUMPDEST PUSH1 0x0 PUSH3 0x10D DUP6 DUP3 DUP7 ADD PUSH3 0xCC JUMP JUMPDEST SWAP3 POP POP PUSH1 0x20 PUSH3 0x120 DUP6 DUP3 DUP7 ADD PUSH3 0xCC JUMP JUMPDEST SWAP2 POP POP SWAP3 POP SWAP3 SWAP1 POP JUMP JUMPDEST PUSH32 0x4E487B7100000000000000000000000000000000000000000000000000000000 PUSH1 0x0 MSTORE PUSH1 0x11 PUSH1 0x4 MSTORE PUSH1 0x24 PUSH1 0x0 REVERT JUMPDEST PUSH1 0x0 PUSH3 0x166 DUP3 PUSH3 0xA8 JUMP JUMPDEST SWAP2 POP PUSH3 0x173 DUP4 PUSH3 0xA8 JUMP JUMPDEST SWAP3 POP DUP3 DUP3 ADD SWAP1 POP DUP1 DUP3 GT ISZERO PUSH3 0x18E JUMPI PUSH3 0x18D PUSH3 0x12A JUMP JUMPDEST JUMPDEST SWAP3 SWAP2 POP POP JUMP JUMPDEST PUSH2 0x1A08 DUP1 PUSH3 0x1A4 PUSH1 0x0 CODECOPY PUSH1 0x0 RETURN INVALID PUSH1 0x80 PUSH1 0x40 MSTORE PUSH1 0x4 CALLDATASIZE LT PUSH2 0xE8 JUMPI PUSH1 0x0 CALLDATALOAD PUSH1 0xE0 SHR DUP1 PUSH4 0x5114CB52 GT PUSH2 0x8A JUMPI DUP1 PUSH4 0x937E09B1 GT PUSH2 0x59 JUMPI DUP1 PUSH4 0x937E09B1 EQ PUSH2 0x2B3 JUMPI DUP1 PUSH4 0x9FB42B1F EQ PUSH2 0x2DE JUMPI DUP1 PUSH4 0xC59EE1DC EQ PUSH2 0x309 JUMPI DUP1 PUSH4 0xD4B83992 EQ PUSH2 0x334 JUMPI PUSH2 0xE8 JUMP JUMPDEST DUP1 PUSH4 0x5114CB52 EQ PUSH2 0x207 JUMPI DUP1 PUSH4 0x590E1AE3 EQ PUSH2 0x230 JUMPI DUP1 PUSH4 0x6F9FB98A EQ PUSH2 0x247 JUMPI DUP1 PUSH4 0x81D12C58 EQ PUSH2 0x272 JUMPI PUSH2 0xE8 JUMP JUMPDEST DUP1 PUSH4 0x3EB7647B GT PUSH2 0xC6 JUMPI DUP1 PUSH4 0x3EB7647B EQ PUSH2 0x15F JUMPI DUP1 PUSH4 0x481C6A75 EQ PUSH2 0x188 JUMPI DUP1 PUSH4 0x4CB6F4A5 EQ PUSH2 0x1B3 JUMPI DUP1 PUSH4 0x4E260F6F EQ PUSH2 0x1DC JUMPI PUSH2 0xE8 JUMP JUMPDEST DUP1 PUSH4 0x6E99FEF EQ PUSH2 0xED JUMPI DUP1 PUSH4 0x1F6D4942 EQ PUSH2 0xF7 JUMPI DUP1 PUSH4 0x29DCB0CF EQ PUSH2 0x134 JUMPI JUMPDEST PUSH1 0x0 DUP1 REVERT JUMPDEST PUSH2 0xF5 PUSH2 0x35F JUMP JUMPDEST STOP JUMPDEST CALLVALUE DUP1 ISZERO PUSH2 0x103 JUMPI PUSH1 0x0 DUP1 REVERT JUMPDEST POP PUSH2 0x11E PUSH1 0x4 DUP1 CALLDATASIZE SUB DUP2 ADD SWAP1 PUSH2 0x119 SWAP2 SWAP1 PUSH2 0xD19 JUMP JUMPDEST PUSH2 0x4B7 JUMP JUMPDEST PUSH1 0x40 MLOAD PUSH2 0x12B SWAP2 SWAP1 PUSH2 0xD5F JUMP JUMPDEST PUSH1 0x40 MLOAD DUP1 SWAP2 SUB SWAP1 RETURN JUMPDEST CALLVALUE DUP1 ISZERO PUSH2 0x140 JUMPI PUSH1 0x0 DUP1 REVERT JUMPDEST POP PUSH2 0x149 PUSH2 0x4CF JUMP JUMPDEST PUSH1 0x40 MLOAD PUSH2 0x156 SWAP2 SWAP1 PUSH2 0xD5F JUMP JUMPDEST PUSH1 0x40 MLOAD DUP1 SWAP2 SUB SWAP1 RETURN JUMPDEST CALLVALUE DUP1 ISZERO PUSH2 0x16B JUMPI PUSH1 0x0 DUP1 REVERT JUMPDEST POP PUSH2 0x186 PUSH1 0x4 DUP1 CALLDATASIZE SUB DUP2 ADD SWAP1 PUSH2 0x181 SWAP2 SWAP1 PUSH2 0xF2A JUMP JUMPDEST PUSH2 0x4D5 JUMP JUMPDEST STOP JUMPDEST CALLVALUE DUP1 ISZERO PUSH2 0x194 JUMPI PUSH1 0x0 DUP1 REVERT JUMPDEST POP PUSH2 0x19D PUSH2 0x604 JUMP JUMPDEST PUSH1 0x40 MLOAD PUSH2 0x1AA SWAP2 SWAP1 PUSH2 0xFA8 JUMP JUMPDEST PUSH1 0x40 MLOAD DUP1 SWAP2 SUB SWAP1 RETURN JUMPDEST CALLVALUE DUP1 ISZERO PUSH2 0x1BF JUMPI PUSH1 0x0 DUP1 REVERT JUMPDEST POP PUSH2 0x1DA PUSH1 0x4 DUP1 CALLDATASIZE SUB DUP2 ADD SWAP1 PUSH2 0x1D5 SWAP2 SWAP1 PUSH2 0xFC3 JUMP JUMPDEST PUSH2 0x62A JUMP JUMPDEST STOP JUMPDEST CALLVALUE DUP1 ISZERO PUSH2 0x1E8 JUMPI PUSH1 0x0 DUP1 REVERT JUMPDEST POP PUSH2 0x1F1 PUSH2 0x7CF JUMP JUMPDEST PUSH1 0x40 MLOAD PUSH2 0x1FE SWAP2 SWAP1 PUSH2 0xD5F JUMP JUMPDEST PUSH1 0x40 MLOAD DUP1 SWAP2 SUB SWAP1 RETURN JUMPDEST CALLVALUE DUP1 ISZERO PUSH2 0x213 JUMPI PUSH1 0x0 DUP1 REVERT JUMPDEST POP PUSH2 0x22E PUSH1 0x4 DUP1 CALLDATASIZE SUB DUP2 ADD SWAP1 PUSH2 0x229 SWAP2 SWAP1 PUSH2 0xFC3 JUMP JUMPDEST PUSH2 0x7D5 JUMP JUMPDEST STOP JUMPDEST CALLVALUE DUP1 ISZERO PUSH2 0x23C JUMPI PUSH1 0x0 DUP1 REVERT JUMPDEST POP PUSH2 0x245 PUSH2 0x9F7 JUMP JUMPDEST STOP JUMPDEST CALLVALUE DUP1 ISZERO PUSH2 0x253 JUMPI PUSH1 0x0 DUP1 REVERT JUMPDEST POP PUSH2 0x25C PUSH2 0xB9C JUMP JUMPDEST PUSH1 0x40 MLOAD PUSH2 0x269 SWAP2 SWAP1 PUSH2 0xD5F JUMP JUMPDEST PUSH1 0x40 MLOAD DUP1 SWAP2 SUB SWAP1 RETURN JUMPDEST CALLVALUE DUP1 ISZERO PUSH2 0x27E JUMPI PUSH1 0x0 DUP1 REVERT JUMPDEST POP PUSH2 0x299 PUSH1 0x4 DUP1 CALLDATASIZE SUB DUP2 ADD SWAP1 PUSH2 0x294 SWAP2 SWAP1 PUSH2 0xFC3 JUMP JUMPDEST PUSH2 0xBA4 JUMP JUMPDEST PUSH1 0x40 MLOAD PUSH2 0x2AA SWAP6 SWAP5 SWAP4 SWAP3 SWAP2 SWAP1 PUSH2 0x1099 JUMP JUMPDEST PUSH1 0x40 MLOAD DUP1 SWAP2 SUB SWAP1 RETURN JUMPDEST CALLVALUE DUP1 ISZERO PUSH2 0x2BF JUMPI PUSH1 0x0 DUP1 REVERT JUMPDEST POP PUSH2 0x2C8 PUSH2 0xC8F JUMP JUMPDEST PUSH1 0x40 MLOAD PUSH2 0x2D5 SWAP2 SWAP1 PUSH2 0xD5F JUMP JUMPDEST PUSH1 0x40 MLOAD DUP1 SWAP2 SUB SWAP1 RETURN JUMPDEST CALLVALUE DUP1 ISZERO PUSH2 0x2EA JUMPI PUSH1 0x0 DUP1 REVERT JUMPDEST POP PUSH2 0x2F3 PUSH2 0xC95 JUMP JUMPDEST PUSH1 0x40 MLOAD PUSH2 0x300 SWAP2 SWAP1 PUSH2 0xD5F JUMP JUMPDEST PUSH1 0x40 MLOAD DUP1 SWAP2 SUB SWAP1 RETURN JUMPDEST CALLVALUE DUP1 ISZERO PUSH2 0x315 JUMPI PUSH1 0x0 DUP1 REVERT JUMPDEST POP PUSH2 0x31E PUSH2 0xC9B JUMP JUMPDEST PUSH1 0x40 MLOAD PUSH2 0x32B SWAP2 SWAP1 PUSH2 0xD5F JUMP JUMPDEST PUSH1 0x40 MLOAD DUP1 SWAP2 SUB SWAP1 RETURN JUMPDEST CALLVALUE DUP1 ISZERO PUSH2 0x340 JUMPI PUSH1 0x0 DUP1 REVERT JUMPDEST POP PUSH2 0x349 PUSH2 0xCA1 JUMP JUMPDEST PUSH1 0x40 MLOAD PUSH2 0x356 SWAP2 SWAP1 PUSH2 0xD5F JUMP JUMPDEST PUSH1 0x40 MLOAD DUP1 SWAP2 SUB SWAP1 RETURN JUMPDEST PUSH1 0x3 SLOAD TIMESTAMP LT PUSH2 0x3A3 JUMPI PUSH1 0x40 MLOAD PUSH32 0x8C379A000000000000000000000000000000000000000000000000000000000 DUP2 MSTORE PUSH1 0x4 ADD PUSH2 0x39A SWAP1 PUSH2 0x113F JUMP JUMPDEST PUSH1 0x40 MLOAD DUP1 SWAP2 SUB SWAP1 REVERT JUMPDEST PUSH1 0x2 SLOAD CALLVALUE LT ISZERO PUSH2 0x3E8 JUMPI PUSH1 0x40 MLOAD PUSH32 0x8C379A000000000000000000000000000000000000000000000000000000000 DUP2 MSTORE PUSH1 0x4 ADD PUSH2 0x3DF SWAP1 PUSH2 0x11AB JUMP JUMPDEST PUSH1 0x40 MLOAD DUP1 SWAP2 SUB SWAP1 REVERT JUMPDEST PUSH1 0x0 DUP1 PUSH1 0x0 CALLER PUSH20 0xFFFFFFFFFFFFFFFFFFFFFFFFFFFFFFFFFFFFFFFF AND PUSH20 0xFFFFFFFFFFFFFFFFFFFFFFFFFFFFFFFFFFFFFFFF AND DUP2 MSTORE PUSH1 0x20 ADD SWAP1 DUP2 MSTORE PUSH1 0x20 ADD PUSH1 0x0 KECCAK256 SLOAD SUB PUSH2 0x447 JUMPI PUSH1 0x6 PUSH1 0x0 DUP2 SLOAD DUP1 SWAP3 SWAP2 SWAP1 PUSH2 0x441 SWAP1 PUSH2 0x11FA JUMP JUMPDEST SWAP2 SWAP1 POP SSTORE POP JUMPDEST CALLVALUE PUSH1 0x0 DUP1 CALLER PUSH20 0xFFFFFFFFFFFFFFFFFFFFFFFFFFFFFFFFFFFFFFFF AND PUSH20 0xFFFFFFFFFFFFFFFFFFFFFFFFFFFFFFFFFFFFFFFF AND DUP2 MSTORE PUSH1 0x20 ADD SWAP1 DUP2 MSTORE PUSH1 0x20 ADD PUSH1 0x0 KECCAK256 PUSH1 0x0 DUP3 DUP3 SLOAD PUSH2 0x495 SWAP2 SWAP1 PUSH2 0x1242 JUMP JUMPDEST SWAP3 POP POP DUP2 SWAP1 SSTORE POP CALLVALUE PUSH1 0x5 PUSH1 0x0 DUP3 DUP3 SLOAD PUSH2 0x4AE SWAP2 SWAP1 PUSH2 0x1242 JUMP JUMPDEST SWAP3 POP POP DUP2 SWAP1 SSTORE POP JUMP JUMPDEST PUSH1 0x0 PUSH1 0x20 MSTORE DUP1 PUSH1 0x0 MSTORE PUSH1 0x40 PUSH1 0x0 KECCAK256 PUSH1 0x0 SWAP2 POP SWAP1 POP SLOAD DUP2 JUMP JUMPDEST PUSH1 0x3 SLOAD DUP2 JUMP JUMPDEST PUSH1 0x1 PUSH1 0x0 SWAP1 SLOAD SWAP1 PUSH2 0x100 EXP SWAP1 DIV PUSH20 0xFFFFFFFFFFFFFFFFFFFFFFFFFFFFFFFFFFFFFFFF AND PUSH20 0xFFFFFFFFFFFFFFFFFFFFFFFFFFFFFFFFFFFFFFFF AND CALLER PUSH20 0xFFFFFFFFFFFFFFFFFFFFFFFFFFFFFFFFFFFFFFFF AND EQ PUSH2 0x565 JUMPI PUSH1 0x40 MLOAD PUSH32 0x8C379A000000000000000000000000000000000000000000000000000000000 DUP2 MSTORE PUSH1 0x4 ADD PUSH2 0x55C SWAP1 PUSH2 0x12E8 JUMP JUMPDEST PUSH1 0x40 MLOAD DUP1 SWAP2 SUB SWAP1 REVERT JUMPDEST PUSH1 0x0 PUSH1 0x7 PUSH1 0x0 PUSH1 0x8 SLOAD DUP2 MSTORE PUSH1 0x20 ADD SWAP1 DUP2 MSTORE PUSH1 0x20 ADD PUSH1 0x0 KECCAK256 SWAP1 POP PUSH1 0x8 PUSH1 0x0 DUP2 SLOAD DUP1 SWAP3 SWAP2 SWAP1 PUSH2 0x591 SWAP1 PUSH2 0x11FA JUMP JUMPDEST SWAP2 SWAP1 POP SSTORE POP DUP4 DUP2 PUSH1 0x0 ADD SWAP1 DUP2 PUSH2 0x5A7 SWAP2 SWAP1 PUSH2 0x1514 JUMP JUMPDEST POP DUP3 DUP2 PUSH1 0x1 ADD PUSH1 0x0 PUSH2 0x100 EXP DUP2 SLOAD DUP2 PUSH20 0xFFFFFFFFFFFFFFFFFFFFFFFFFFFFFFFFFFFFFFFF MUL NOT AND SWAP1 DUP4 PUSH20 0xFFFFFFFFFFFFFFFFFFFFFFFFFFFFFFFFFFFFFFFF AND MUL OR SWAP1 SSTORE POP DUP2 DUP2 PUSH1 0x2 ADD DUP2 SWAP1 SSTORE POP PUSH1 0x0 DUP2 PUSH1 0x4 ADD DUP2 SWAP1 SSTORE POP POP POP POP POP JUMP JUMPDEST PUSH1 0x1 PUSH1 0x0 SWAP1 SLOAD SWAP1 PUSH2 0x100 EXP SWAP1 DIV PUSH20 0xFFFFFFFFFFFFFFFFFFFFFFFFFFFFFFFFFFFFFFFF AND DUP2 JUMP JUMPDEST PUSH1 0x0 DUP1 PUSH1 0x0 CALLER PUSH20 0xFFFFFFFFFFFFFFFFFFFFFFFFFFFFFFFFFFFFFFFF AND PUSH20 0xFFFFFFFFFFFFFFFFFFFFFFFFFFFFFFFFFFFFFFFF AND DUP2 MSTORE PUSH1 0x20 ADD SWAP1 DUP2 MSTORE PUSH1 0x20 ADD PUSH1 0x0 KECCAK256 SLOAD GT PUSH2 0x6AB JUMPI PUSH1 0x40 MLOAD PUSH32 0x8C379A000000000000000000000000000000000000000000000000000000000 DUP2 MSTORE PUSH1 0x4 ADD PUSH2 0x6A2 SWAP1 PUSH2 0x1658 JUMP JUMPDEST PUSH1 0x40 MLOAD DUP1 SWAP2 SUB SWAP1 REVERT JUMPDEST PUSH1 0x0 PUSH1 0x7 PUSH1 0x0 DUP4 DUP2 MSTORE PUSH1 0x20 ADD SWAP1 DUP2 MSTORE PUSH1 0x20 ADD PUSH1 0x0 KECCAK256 SWAP1 POP PUSH1 0x0 ISZERO ISZERO DUP2 PUSH1 0x5 ADD PUSH1 0x0 CALLER PUSH20 0xFFFFFFFFFFFFFFFFFFFFFFFFFFFFFFFFFFFFFFFF AND PUSH20 0xFFFFFFFFFFFFFFFFFFFFFFFFFFFFFFFFFFFFFFFF AND DUP2 MSTORE PUSH1 0x20 ADD SWAP1 DUP2 MSTORE PUSH1 0x20 ADD PUSH1 0x0 KECCAK256 PUSH1 0x0 SWAP1 SLOAD SWAP1 PUSH2 0x100 EXP SWAP1 DIV PUSH1 0xFF AND ISZERO ISZERO EQ PUSH2 0x757 JUMPI PUSH1 0x40 MLOAD PUSH32 0x8C379A000000000000000000000000000000000000000000000000000000000 DUP2 MSTORE PUSH1 0x4 ADD PUSH2 0x74E SWAP1 PUSH2 0x16C4 JUMP JUMPDEST PUSH1 0x40 MLOAD DUP1 SWAP2 SUB SWAP1 REVERT JUMPDEST PUSH1 0x1 DUP2 PUSH1 0x5 ADD PUSH1 0x0 CALLER PUSH20 0xFFFFFFFFFFFFFFFFFFFFFFFFFFFFFFFFFFFFFFFF AND PUSH20 0xFFFFFFFFFFFFFFFFFFFFFFFFFFFFFFFFFFFFFFFF AND DUP2 MSTORE PUSH1 0x20 ADD SWAP1 DUP2 MSTORE PUSH1 0x20 ADD PUSH1 0x0 KECCAK256 PUSH1 0x0 PUSH2 0x100 EXP DUP2 SLOAD DUP2 PUSH1 0xFF MUL NOT AND SWAP1 DUP4 ISZERO ISZERO MUL OR SWAP1 SSTORE POP DUP1 PUSH1 0x4 ADD PUSH1 0x0 DUP2 SLOAD DUP1 SWAP3 SWAP2 SWAP1 PUSH2 0x7C6 SWAP1 PUSH2 0x11FA JUMP JUMPDEST SWAP2 SWAP1 POP SSTORE POP POP POP JUMP JUMPDEST PUSH1 0x6 SLOAD DUP2 JUMP JUMPDEST PUSH1 0x1 PUSH1 0x0 SWAP1 SLOAD SWAP1 PUSH2 0x100 EXP SWAP1 DIV PUSH20 0xFFFFFFFFFFFFFFFFFFFFFFFFFFFFFFFFFFFFFFFF AND PUSH20 0xFFFFFFFFFFFFFFFFFFFFFFFFFFFFFFFFFFFFFFFF AND CALLER PUSH20 0xFFFFFFFFFFFFFFFFFFFFFFFFFFFFFFFFFFFFFFFF AND EQ PUSH2 0x865 JUMPI PUSH1 0x40 MLOAD PUSH32 0x8C379A000000000000000000000000000000000000000000000000000000000 DUP2 MSTORE PUSH1 0x4 ADD PUSH2 0x85C SWAP1 PUSH2 0x12E8 JUMP JUMPDEST PUSH1 0x40 MLOAD DUP1 SWAP2 SUB SWAP1 REVERT JUMPDEST PUSH1 0x4 SLOAD PUSH1 0x5 SLOAD LT ISZERO PUSH2 0x8AC JUMPI PUSH1 0x40 MLOAD PUSH32 0x8C379A000000000000000000000000000000000000000000000000000000000 DUP2 MSTORE PUSH1 0x4 ADD PUSH2 0x8A3 SWAP1 PUSH2 0x1756 JUMP JUMPDEST PUSH1 0x40 MLOAD DUP1 SWAP2 SUB SWAP1 REVERT JUMPDEST PUSH1 0x0 PUSH1 0x7 PUSH1 0x0 DUP4 DUP2 MSTORE PUSH1 0x20 ADD SWAP1 DUP2 MSTORE PUSH1 0x20 ADD PUSH1 0x0 KECCAK256 SWAP1 POP PUSH1 0x0 ISZERO ISZERO DUP2 PUSH1 0x3 ADD PUSH1 0x0 SWAP1 SLOAD SWAP1 PUSH2 0x100 EXP SWAP1 DIV PUSH1 0xFF AND ISZERO ISZERO EQ PUSH2 0x91B JUMPI PUSH1 0x40 MLOAD PUSH32 0x8C379A000000000000000000000000000000000000000000000000000000000 DUP2 MSTORE PUSH1 0x4 ADD PUSH2 0x912 SWAP1 PUSH2 0x17C2 JUMP JUMPDEST PUSH1 0x40 MLOAD DUP1 SWAP2 SUB SWAP1 REVERT JUMPDEST PUSH1 0x2 PUSH1 0x6 SLOAD PUSH2 0x92A SWAP2 SWAP1 PUSH2 0x1811 JUMP JUMPDEST DUP2 PUSH1 0x4 ADD SLOAD GT PUSH2 0x96F JUMPI PUSH1 0x40 MLOAD PUSH32 0x8C379A000000000000000000000000000000000000000000000000000000000 DUP2 MSTORE PUSH1 0x4 ADD PUSH2 0x966 SWAP1 PUSH2 0x188E JUMP JUMPDEST PUSH1 0x40 MLOAD DUP1 SWAP2 SUB SWAP1 REVERT JUMPDEST DUP1 PUSH1 0x1 ADD PUSH1 0x0 SWAP1 SLOAD SWAP1 PUSH2 0x100 EXP SWAP1 DIV PUSH20 0xFFFFFFFFFFFFFFFFFFFFFFFFFFFFFFFFFFFFFFFF AND PUSH20 0xFFFFFFFFFFFFFFFFFFFFFFFFFFFFFFFFFFFFFFFF AND PUSH2 0x8FC DUP3 PUSH1 0x2 ADD SLOAD SWAP1 DUP2 ISZERO MUL SWAP1 PUSH1 0x40 MLOAD PUSH1 0x0 PUSH1 0x40 MLOAD DUP1 DUP4 SUB DUP2 DUP6 DUP9 DUP9 CALL SWAP4 POP POP POP POP ISZERO DUP1 ISZERO PUSH2 0x9DD JUMPI RETURNDATASIZE PUSH1 0x0 DUP1 RETURNDATACOPY RETURNDATASIZE PUSH1 0x0 REVERT JUMPDEST POP PUSH1 0x1 ISZERO ISZERO DUP2 PUSH1 0x3 ADD PUSH1 0x0 SWAP1 SLOAD SWAP1 PUSH2 0x100 EXP SWAP1 POP POP POP POP POP JUMP JUMPDEST PUSH1 0x3 SLOAD TIMESTAMP GT DUP1 ISZERO PUSH2 0xA0B JUMPI POP PUSH1 0x4 SLOAD PUSH1 0x5 SLOAD LT JUMPDEST PUSH2 0xA4A JUMPI PUSH1 0x40 MLOAD PUSH32 0x8C379A000000000000000000000000000000000000000000000000000000000 DUP2 MSTORE PUSH1 0x4 ADD PUSH2 0xA41 SWAP1 PUSH2 0x1920 JUMP JUMPDEST PUSH1 0x40 MLOAD DUP1 SWAP2 SUB SWAP1 REVERT JUMPDEST PUSH1 0x0 DUP1 PUSH1 0x0 CALLER PUSH20 0xFFFFFFFFFFFFFFFFFFFFFFFFFFFFFFFFFFFFFFFF AND PUSH20 0xFFFFFFFFFFFFFFFFFFFFFFFFFFFFFFFFFFFFFFFF AND DUP2 MSTORE PUSH1 0x20 ADD SWAP1 DUP2 MSTORE PUSH1 0x20 ADD PUSH1 0x0 KECCAK256 SLOAD GT PUSH2 0xACB JUMPI PUSH1 0x40 MLOAD PUSH32 0x8C379A000000000000000000000000000000000000000000000000000000000 DUP2 MSTORE PUSH1 0x4 ADD PUSH2 0xAC2 SWAP1 PUSH2 0x19B2 JUMP JUMPDEST PUSH1 0x40 MLOAD DUP1 SWAP2 SUB SWAP1 REVERT JUMPDEST PUSH1 0x0 CALLER SWAP1 POP DUP1 PUSH20 0xFFFFFFFFFFFFFFFFFFFFFFFFFFFFFFFFFFFFFFFF AND PUSH2 0x8FC PUSH1 0x0 DUP1 CALLER PUSH20 0xFFFFFFFFFFFFFFFFFFFFFFFFFFFFFFFFFFFFFFFF AND PUSH20 0xFFFFFFFFFFFFFFFFFFFFFFFFFFFFFFFFFFFFFFFF AND DUP2 MSTORE PUSH1 0x20 ADD SWAP1 DUP2 MSTORE PUSH1 0x20 ADD PUSH1 0x0 KECCAK256 SLOAD SWAP1 DUP2 ISZERO MUL SWAP1 PUSH1 0x40 MLOAD PUSH1 0x0 PUSH1 0x40 MLOAD DUP1 DUP4 SUB DUP2 DUP6 DUP9 DUP9 CALL SWAP4 POP POP POP POP ISZERO DUP1 ISZERO PUSH2 0xB54 JUMPI RETURNDATASIZE PUSH1 0x0 DUP1 RETURNDATACOPY RETURNDATASIZE PUSH1 0x0 REVERT JUMPDEST POP PUSH1 0x0 DUP1 PUSH1 0x0 CALLER PUSH20 0xFFFFFFFFFFFFFFFFFFFFFFFFFFFFFFFFFFFFFFFF AND PUSH20 0xFFFFFFFFFFFFFFFFFFFFFFFFFFFFFFFFFFFFFFFF AND DUP2 MSTORE PUSH1 0x20 ADD SWAP1 DUP2 MSTORE PUSH1 0x20 ADD PUSH1 0x0 KECCAK256 DUP2 SWAP1 SSTORE POP POP JUMP JUMPDEST PUSH1 0x0 SELFBALANCE SWAP1 POP SWAP1 JUMP JUMPDEST PUSH1 0x7 PUSH1 0x20 MSTORE DUP1 PUSH1 0x0 MSTORE PUSH1 0x40 PUSH1 0x0 KECCAK256 PUSH1 0x0 SWAP2 POP SWAP1 POP DUP1 PUSH1 0x0 ADD DUP1 SLOAD PUSH2 0xBC7 SWAP1 PUSH2 0x1337 JUMP JUMPDEST DUP1 PUSH1 0x1F ADD PUSH1 0x20 DUP1 SWAP2 DIV MUL PUSH1 0x20 ADD PUSH1 0x40 MLOAD SWAP1 DUP2 ADD PUSH1 0x40 MSTORE DUP1 SWAP3 SWAP2 SWAP1 DUP2 DUP2 MSTORE PUSH1 0x20 ADD DUP3 DUP1 SLOAD PUSH2 0xBF3 SWAP1 PUSH2 0x1337 JUMP JUMPDEST DUP1 ISZERO PUSH2 0xC40 JUMPI DUP1 PUSH1 0x1F LT PUSH2 0xC15 JUMPI PUSH2 0x100 DUP1 DUP4 SLOAD DIV MUL DUP4 MSTORE SWAP2 PUSH1 0x20 ADD SWAP2 PUSH2 0xC40 JUMP JUMPDEST DUP3 ADD SWAP2 SWAP1 PUSH1 0x0 MSTORE PUSH1 0x20 PUSH1 0x0 KECCAK256 SWAP1 JUMPDEST DUP2 SLOAD DUP2 MSTORE SWAP1 PUSH1 0x1 ADD SWAP1 PUSH1 0x20 ADD DUP1 DUP4 GT PUSH2 0xC23 JUMPI DUP3 SWAP1 SUB PUSH1 0x1F AND DUP3 ADD SWAP2 JUMPDEST POP POP POP POP POP SWAP1 DUP1 PUSH1 0x1 ADD PUSH1 0x0 SWAP1 SLOAD SWAP1 PUSH2 0x100 EXP SWAP1 DIV PUSH20 0xFFFFFFFFFFFFFFFFFFFFFFFFFFFFFFFFFFFFFFFF AND SWAP1 DUP1 PUSH1 0x2 ADD SLOAD SWAP1 DUP1 PUSH1 0x3 ADD PUSH1 0x0 SWAP1 SLOAD SWAP1 PUSH2 0x100 EXP SWAP1 DIV PUSH1 0xFF AND SWAP1 DUP1 PUSH1 0x4 ADD SLOAD SWAP1 POP DUP6 JUMP JUMPDEST PUSH1 0x2 SLOAD DUP2 JUMP JUMPDEST PUSH1 0x8 SLOAD DUP2 JUMP JUMPDEST PUSH1 0x5 SLOAD DUP2 JUMP JUMPDEST PUSH1 0x4 SLOAD DUP2 JUMP JUMPDEST PUSH1 0x0 PUSH1 0x40 MLOAD SWAP1 POP SWAP1 JUMP JUMPDEST PUSH1 0x0 DUP1 REVERT JUMPDEST PUSH1 0x0 DUP1 REVERT JUMPDEST PUSH1 0x0 PUSH20 0xFFFFFFFFFFFFFFFFFFFFFFFFFFFFFFFFFFFFFFFF DUP3 AND SWAP1 POP SWAP2 SWAP1 POP JUMP JUMPDEST PUSH1 0x0 PUSH2 0xCE6 DUP3 PUSH2 0xCBB JUMP JUMPDEST SWAP1 POP SWAP2 SWAP1 POP JUMP JUMPDEST PUSH2 0xCF6 DUP2 PUSH2 0xCDB JUMP JUMPDEST DUP2 EQ PUSH2 0xD01 JUMPI PUSH1 0x0 DUP1 REVERT JUMPDEST POP JUMP JUMPDEST PUSH1 0x0 DUP2 CALLDATALOAD SWAP1 POP PUSH2 0xD13 DUP2 PUSH2 0xCED JUMP JUMPDEST SWAP3 SWAP2 POP POP JUMP JUMPDEST PUSH1 0x0 PUSH1 0x20 DUP3 DUP5 SUB SLT ISZERO PUSH2 0xD2F JUMPI PUSH2 0xD2E PUSH2 0xCB1 JUMP JUMPDEST JUMPDEST PUSH1 0x0 PUSH2 0xD3D DUP5 DUP3 DUP6 ADD PUSH2 0xD04 JUMP JUMPDEST SWAP2 POP POP SWAP3 SWAP2 POP POP JUMP JUMPDEST PUSH1 0x0 DUP2 SWAP1 POP SWAP2 SWAP1 POP JUMP JUMPDEST PUSH2 0xD59 DUP2 PUSH2 0xD46 JUMP JUMPDEST DUP3 MSTORE POP POP JUMP JUMPDEST PUSH1 0x0 PUSH1 0x20 DUP3 ADD SWAP1 POP PUSH2 0xD74 PUSH1 0x0 DUP4 ADD DUP5 PUSH2 0xD50 JUMP JUMPDEST SWAP3 SWAP2 POP POP JUMP JUMPDEST PUSH1 0x0 DUP1 REVERT JUMPDEST PUSH1 0x0 DUP1 REVERT JUMPDEST PUSH1 0x0 PUSH1 0x1F NOT PUSH1 0x1F DUP4 ADD AND SWAP1 POP SWAP2 SWAP1 POP JUMP JUMPDEST PUSH32 0x4E487B7100000000000000000000000000000000000000000000000000000000 PUSH1 0x0 MSTORE PUSH1 0x41 PUSH1 0x4 MSTORE PUSH1 0x24 PUSH1 0x0 REVERT JUMPDEST PUSH2 0xDCD DUP3 PUSH2 0xD84 JUMP JUMPDEST DUP2 ADD DUP2 DUP2 LT PUSH8 0xFFFFFFFFFFFFFFFF DUP3 GT OR ISZERO PUSH2 0xDEC JUMPI PUSH2 0xDEB PUSH2 0xD95 JUMP JUMPDEST JUMPDEST DUP1 PUSH1 0x40 MSTORE POP POP POP JUMP JUMPDEST PUSH1 0x0 PUSH2 0xDFF PUSH2 0xCA7 JUMP JUMPDEST SWAP1 POP PUSH2 0xE0B DUP3 DUP3 PUSH2 0xDC4 JUMP JUMPDEST SWAP2 SWAP1 POP JUMP JUMPDEST PUSH1 0x0 PUSH8 0xFFFFFFFFFFFFFFFF DUP3 GT ISZERO PUSH2 0xE2B JUMPI PUSH2 0xE2A PUSH2 0xD95 JUMP JUMPDEST JUMPDEST PUSH2 0xE34 DUP3 PUSH2 0xD84 JUMP JUMPDEST SWAP1 POP PUSH1 0x20 DUP2 ADD SWAP1 POP SWAP2 SWAP1 POP JUMP JUMPDEST DUP3 DUP2 DUP4 CALLDATACOPY PUSH1 0x0 DUP4 DUP4 ADD MSTORE POP POP POP JUMP JUMPDEST PUSH1 0x0 PUSH2 0xE63 PUSH2 0xE5E DUP5 PUSH2 0xE10 JUMP JUMPDEST PUSH2 0xDF5 JUMP JUMPDEST SWAP1 POP DUP3 DUP2 MSTORE PUSH1 0x20 DUP2 ADD DUP5 DUP5 DUP5 ADD GT ISZERO PUSH2 0xE7F JUMPI PUSH2 0xE7E PUSH2 0xD7F JUMP JUMPDEST JUMPDEST PUSH2 0xE8A DUP5 DUP3 DUP6 PUSH2 0xE41 JUMP JUMPDEST POP SWAP4 SWAP3 POP POP POP JUMP JUMPDEST PUSH1 0x0 DUP3 PUSH1 0x1F DUP4 ADD SLT PUSH2 0xEA7 JUMPI PUSH2 0xEA6 PUSH2 0xD7A JUMP JUMPDEST JUMPDEST DUP2 CALLDATALOAD PUSH2 0xEB7 DUP5 DUP3 PUSH1 0x20 DUP7 ADD PUSH2 0xE50 JUMP JUMPDEST SWAP2 POP POP SWAP3 SWAP2 POP POP JUMP JUMPDEST PUSH1 0x0 PUSH2 0xECB DUP3 PUSH2 0xCBB JUMP JUMPDEST SWAP1 POP SWAP2 SWAP1 POP JUMP JUMPDEST PUSH2 0xEDB DUP2 PUSH2 0xEC0 JUMP JUMPDEST DUP2 EQ PUSH2 0xEE6 JUMPI PUSH1 0x0 DUP1 REVERT JUMPDEST POP JUMP JUMPDEST PUSH1 0x0 DUP2 CALLDATALOAD SWAP1 POP PUSH2 0xEF8 DUP2 PUSH2 0xED2 JUMP JUMPDEST SWAP3 SWAP2 POP POP JUMP JUMPDEST PUSH2 0xF07 DUP2 PUSH2 0xD46 JUMP JUMPDEST DUP2 EQ PUSH2 0xF12 JUMPI PUSH1 0x0 DUP1 REVERT JUMPDEST POP JUMP JUMPDEST PUSH1 0x0 DUP2 CALLDATALOAD SWAP1 POP PUSH2 0xF24 DUP2 PUSH2 0xEFE JUMP JUMPDEST SWAP3 SWAP2 POP POP JUMP JUMPDEST PUSH1 0x0 DUP1 PUSH1 0x0 PUSH1 0x60 DUP5 DUP7 SUB SLT ISZERO PUSH2 0xF43 JUMPI PUSH2 0xF42 PUSH2 0xCB1 JUMP JUMPDEST JUMPDEST PUSH1 0x0 DUP5 ADD CALLDATALOAD PUSH8 0xFFFFFFFFFFFFFFFF DUP2 GT ISZERO PUSH2 0xF61 JUMPI PUSH2 0xF60 PUSH2 0xCB6 JUMP JUMPDEST JUMPDEST PUSH2 0xF6D DUP7 DUP3 DUP8 ADD PUSH2 0xE92 JUMP JUMPDEST SWAP4 POP POP PUSH1 0x20 PUSH2 0xF7E DUP7 DUP3 DUP8 ADD PUSH2 0xEE9 JUMP JUMPDEST SWAP3 POP POP PUSH1 0x40 PUSH2 0xF8F DUP7 DUP3 DUP8 ADD PUSH2 0xF15 JUMP JUMPDEST SWAP2 POP POP SWAP3 POP SWAP3 POP SWAP3 JUMP JUMPDEST PUSH2 0xFA2 DUP2 PUSH2 0xCDB JUMP JUMPDEST DUP3 MSTORE POP POP JUMP JUMPDEST PUSH1 0x0 PUSH1 0x20 DUP3 ADD SWAP1 POP PUSH2 0xFBD PUSH1 0x0 DUP4 ADD DUP5 PUSH2 0xF99 JUMP JUMPDEST SWAP3 SWAP2 POP POP JUMP JUMPDEST PUSH1 0x0 PUSH1 0x20 DUP3 DUP5 SUB SLT ISZERO PUSH2 0xFD9 JUMPI PUSH2 0xFD8 PUSH2 0xCB1 JUMP JUMPDEST JUMPDEST PUSH1 0x0 PUSH2 0xFE7 DUP5 DUP3 DUP6 ADD PUSH2 0xF15 JUMP JUMPDEST SWAP2 POP POP SWAP3 SWAP2 POP POP JUMP JUMPDEST PUSH1 0x0 DUP2 MLOAD SWAP1 POP SWAP2 SWAP1 POP JUMP JUMPDEST PUSH1 0x0 DUP3 DUP3 MSTORE PUSH1 0x20 DUP3 ADD SWAP1 POP SWAP3 SWAP2 POP POP JUMP JUMPDEST PUSH1 0x0 JUMPDEST DUP4 DUP2 LT ISZERO PUSH2 0x102A JUMPI DUP1 DUP3 ADD MLOAD DUP2 DUP5 ADD MSTORE PUSH1 0x20 DUP2 ADD SWAP1 POP PUSH2 0x100F JUMP JUMPDEST PUSH1 0x0 DUP5 DUP5 ADD MSTORE POP POP POP POP JUMP JUMPDEST PUSH1 0x0 PUSH2 0x1041 DUP3 PUSH2 0xFF0 JUMP JUMPDEST PUSH2 0x104B DUP2 DUP6 PUSH2 0xFFB JUMP JUMPDEST SWAP4 POP PUSH2 0x105B DUP2 DUP6 PUSH1 0x20 DUP7 ADD PUSH2 0x100C JUMP JUMPDEST PUSH2 0x1064 DUP2 PUSH2 0xD84 JUMP JUMPDEST DUP5 ADD SWAP2 POP POP SWAP3 SWAP2 POP POP JUMP JUMPDEST PUSH2 0x1078 DUP2 PUSH2 0xEC0 JUMP JUMPDEST DUP3 MSTORE POP POP JUMP JUMPDEST PUSH1 0x0 DUP2 ISZERO ISZERO SWAP1 POP SWAP2 SWAP1 POP JUMP JUMPDEST PUSH2 0x1093 DUP2 PUSH2 0x107E JUMP JUMPDEST DUP3 MSTORE POP POP JUMP JUMPDEST PUSH1 0x0 PUSH1 0xA0 DUP3 ADD SWAP1 POP DUP2 DUP2 SUB PUSH1 0x0 DUP4 ADD MSTORE PUSH2 0x10B3 DUP2 DUP9 PUSH2 0x1036 JUMP JUMPDEST SWAP1 POP PUSH2 0x10C2 PUSH1 0x20 DUP4 ADD DUP8 PUSH2 0x106F JUMP JUMPDEST PUSH2 0x10CF PUSH1 0x40 DUP4 ADD DUP7 PUSH2 0xD50 JUMP JUMPDEST PUSH2 0x10DC PUSH1 0x60 DUP4 ADD DUP6 PUSH2 0x108A JUMP JUMPDEST PUSH2 0x10E9 PUSH1 0x80 DUP4 ADD DUP5 PUSH2 0xD50 JUMP JUMPDEST SWAP7 SWAP6 POP POP POP POP POP POP JUMP JUMPDEST PUSH32 0x446561646C696E65206861732070617373656400000000000000000000000000 PUSH1 0x0 DUP3 ADD MSTORE POP JUMP JUMPDEST PUSH1 0x0 PUSH2 0x1129 PUSH1 0x13 DUP4 PUSH2 0xFFB JUMP JUMPDEST SWAP2 POP PUSH2 0x1134 DUP3 PUSH2 0x10F3 JUMP JUMPDEST PUSH1 0x20 DUP3 ADD SWAP1 POP SWAP2 SWAP1 POP JUMP JUMPDEST PUSH1 0x0 PUSH1 0x20 DUP3 ADD SWAP1 POP DUP2 DUP2 SUB PUSH1 0x0 DUP4 ADD MSTORE PUSH2 0x1158 DUP2 PUSH2 0x111C JUMP JUMPDEST SWAP1 POP SWAP2 SWAP1 POP JUMP JUMPDEST PUSH32 0x4D696E696D756D20636F6E747269627574696F6E206973206E6F74206D65742E PUSH1 0x0 DUP3 ADD MSTORE POP JUMP JUMPDEST PUSH1 0x0 PUSH2 0x1195 PUSH1 0x20 DUP4 PUSH2 0xFFB JUMP JUMPDEST SWAP2 POP PUSH2 0x11A0 DUP3 PUSH2 0x115F JUMP JUMPDEST PUSH1 0x20 DUP3 ADD SWAP1 POP SWAP2 SWAP1 POP JUMP JUMPDEST PUSH1 0x0 PUSH1 0x20 DUP3 ADD SWAP1 POP DUP2 DUP2 SUB PUSH1 0x0 DUP4 ADD MSTORE PUSH2 0x11C4 DUP2 PUSH2 0x1188 JUMP JUMPDEST SWAP1 POP SWAP2 SWAP1 POP JUMP JUMPDEST PUSH32 0x4E487B7100000000000000000000000000000000000000000000000000000000 PUSH1 0x0 MSTORE PUSH1 0x11 PUSH1 0x4 MSTORE PUSH1 0x24 PUSH1 0x0 REVERT JUMPDEST PUSH1 0x0 PUSH2 0x1205 DUP3 PUSH2 0xD46 JUMP JUMPDEST SWAP2 POP PUSH32 0xFFFFFFFFFFFFFFFFFFFFFFFFFFFFFFFFFFFFFFFFFFFFFFFFFFFFFFFFFFFFFFFF DUP3 SUB PUSH2 0x1237 JUMPI PUSH2 0x1236 PUSH2 0x11CB JUMP JUMPDEST JUMPDEST PUSH1 0x1 DUP3 ADD SWAP1 POP SWAP2 SWAP1 POP JUMP JUMPDEST PUSH1 0x0 PUSH2 0x124D DUP3 PUSH2 0xD46 JUMP JUMPDEST SWAP2 POP PUSH2 0x1258 DUP4 PUSH2 0xD46 JUMP JUMPDEST SWAP3 POP DUP3 DUP3 ADD SWAP1 POP DUP1 DUP3 GT ISZERO PUSH2 0x1270 JUMPI PUSH2 0x126F PUSH2 0x11CB JUMP JUMPDEST JUMPDEST SWAP3 SWAP2 POP POP JUMP JUMPDEST PUSH32 0x4F6E6C79206D616E616765722063616E2063616C6C20746869732066756E6374 PUSH1 0x0 DUP3 ADD MSTORE PUSH32 0x696F6E0000000000000000000000000000000000000000000000000000000000 PUSH1 0x20 DUP3 ADD MSTORE POP JUMP JUMPDEST PUSH1 0x0 PUSH2 0x12D2 PUSH1 0x23 DUP4 PUSH2 0xFFB JUMP JUMPDEST SWAP2 POP PUSH2 0x12DD DUP3 PUSH2 0x1276 JUMP JUMPDEST PUSH1 0x40 DUP3 ADD SWAP1 POP SWAP2 SWAP1 POP JUMP JUMPDEST PUSH1 0x0 PUSH1 0x20 DUP3 ADD SWAP1 POP DUP2 DUP2 SUB PUSH1 0x0 DUP4 ADD MSTORE PUSH2 0x1301 DUP2 PUSH2 0x12C5 JUMP JUMPDEST SWAP1 POP SWAP2 SWAP1 POP JUMP JUMPDEST PUSH32 0x4E487B7100000000000000000000000000000000000000000000000000000000 PUSH1 0x0 MSTORE PUSH1 0x22 PUSH1 0x4 MSTORE PUSH1 0x24 PUSH1 0x0 REVERT JUMPDEST PUSH1 0x0 PUSH1 0x2 DUP3 DIV SWAP1 POP PUSH1 0x1 DUP3 AND DUP1 PUSH2 0x134F JUMPI PUSH1 0x7F DUP3 AND SWAP2 POP JUMPDEST PUSH1 0x20 DUP3 LT DUP2 SUB PUSH2 0x1362 JUMPI PUSH2 0x1361 PUSH2 0x1308 JUMP JUMPDEST JUMPDEST POP SWAP2 SWAP1 POP JUMP JUMPDEST PUSH1 0x0 DUP2 SWAP1 POP DUP2 PUSH1 0x0 MSTORE PUSH1 0x20 PUSH1 0x0 KECCAK256 SWAP1 POP SWAP2 SWAP1 POP JUMP JUMPDEST PUSH1 0x0 PUSH1 0x20 PUSH1 0x1F DUP4 ADD DIV SWAP1 POP SWAP2 SWAP1 POP JUMP JUMPDEST PUSH1 0x0 DUP3 DUP3 SHL SWAP1 POP SWAP3 SWAP2 POP POP JUMP JUMPDEST PUSH1 0x0 PUSH1 0x8 DUP4 MUL PUSH2 0x13CA PUSH32 0xFFFFFFFFFFFFFFFFFFFFFFFFFFFFFFFFFFFFFFFFFFFFFFFFFFFFFFFFFFFFFFFF DUP3 PUSH2 0x138D JUMP JUMPDEST PUSH2 0x13D4 DUP7 DUP4 PUSH2 0x138D JUMP JUMPDEST SWAP6 POP DUP1 NOT DUP5 AND SWAP4 POP DUP1 DUP7 AND DUP5 OR SWAP3 POP POP POP SWAP4 SWAP3 POP POP POP JUMP JUMPDEST PUSH1 0x0 DUP2 SWAP1 POP SWAP2 SWAP1 POP JUMP JUMPDEST PUSH1 0x0 PUSH2 0x1411 PUSH2 0x140C PUSH2 0x1407 DUP5 PUSH2 0xD46 JUMP JUMPDEST PUSH2 0x13EC JUMP JUMPDEST PUSH2 0xD46 JUMP JUMPDEST SWAP1 POP SWAP2 SWAP1 POP JUMP JUMPDEST PUSH1 0x0 DUP2 SWAP1 POP SWAP2 SWAP1 POP JUMP JUMPDEST PUSH2 0x142B DUP4 PUSH2 0x13F6 JUMP JUMPDEST PUSH2 0x143F PUSH2 0x1437 DUP3 PUSH2 0x1418 JUMP JUMPDEST DUP5 DUP5 SLOAD PUSH2 0x139A JUMP JUMPDEST DUP3 SSTORE POP POP POP POP JUMP JUMPDEST PUSH1 0x0 SWAP1 JUMP JUMPDEST PUSH2 0x1454 PUSH2 0x1447 JUMP JUMPDEST PUSH2 0x145F DUP2 DUP5 DUP5 PUSH2 0x1422 JUMP JUMPDEST POP POP POP JUMP JUMPDEST JUMPDEST DUP2 DUP2 LT ISZERO PUSH2 0x1483 JUMPI PUSH2 0x1478 PUSH1 0x0 DUP3 PUSH2 0x144C JUMP JUMPDEST PUSH1 0x1 DUP2 ADD SWAP1 POP PUSH2 0x1465 JUMP JUMPDEST POP POP JUMP JUMPDEST PUSH1 0x1F DUP3 GT ISZERO PUSH2 0x14C8 JUMPI PUSH2 0x1499 DUP2 PUSH2 0x1368 JUMP JUMPDEST PUSH2 0x14A2 DUP5 PUSH2 0x137D JUMP JUMPDEST DUP2 ADD PUSH1 0x20 DUP6 LT ISZERO PUSH2 0x14B1 JUMPI DUP2 SWAP1 POP JUMPDEST PUSH2 0x14C5 PUSH2 0x14BD DUP6 PUSH2 0x137D JUMP JUMPDEST DUP4 ADD DUP3 PUSH2 0x1464 JUMP JUMPDEST POP POP JUMPDEST POP POP POP JUMP JUMPDEST PUSH1 0x0 DUP3 DUP3 SHR SWAP1 POP SWAP3 SWAP2 POP POP JUMP JUMPDEST PUSH1 0x0 PUSH2 0x14EB PUSH1 0x0 NOT DUP5 PUSH1 0x8 MUL PUSH2 0x14CD JUMP JUMPDEST NOT DUP1 DUP4 AND SWAP2 POP POP SWAP3 SWAP2 POP POP JUMP JUMPDEST PUSH1 0x0 PUSH2 0x1504 DUP4 DUP4 PUSH2 0x14DA JUMP JUMPDEST SWAP2 POP DUP3 PUSH1 0x2 MUL DUP3 OR SWAP1 POP SWAP3 SWAP2 POP POP JUMP JUMPDEST PUSH2 0x151D DUP3 PUSH2 0xFF0 JUMP JUMPDEST PUSH8 0xFFFFFFFFFFFFFFFF DUP2 GT ISZERO PUSH2 0x1536 JUMPI PUSH2 0x1535 PUSH2 0xD95 JUMP JUMPDEST JUMPDEST PUSH2 0x1540 DUP3 SLOAD PUSH2 0x1337 JUMP JUMPDEST PUSH2 0x154B DUP3 DUP3 DUP6 PUSH2 0x1487 JUMP JUMPDEST PUSH1 0x0 PUSH1 0x20 SWAP1 POP PUSH1 0x1F DUP4 GT PUSH1 0x1 DUP2 EQ PUSH2 0x157E JUMPI PUSH1 0x0 DUP5 ISZERO PUSH2 0x156C JUMPI DUP3 DUP8 ADD MLOAD SWAP1 POP JUMPDEST PUSH2 0x1576 DUP6 DUP3 PUSH2 0x14F8 JUMP JUMPDEST DUP7 SSTORE POP PUSH2 0x15DE JUMP JUMPDEST PUSH1 0x1F NOT DUP5 AND PUSH2 0x158C DUP7 PUSH2 0x1368 JUMP JUMPDEST PUSH1 0x0 JUMPDEST DUP3 DUP2 LT ISZERO PUSH2 0x15B4 JUMPI DUP5 DUP10 ADD MLOAD DUP3 SSTORE PUSH1 0x1 DUP3 ADD SWAP2 POP PUSH1 0x20 DUP6 ADD SWAP5 POP PUSH1 0x20 DUP2 ADD SWAP1 POP PUSH2 0x158F JUMP JUMPDEST DUP7 DUP4 LT ISZERO PUSH2 0x15D1 JUMPI DUP5 DUP10 ADD MLOAD PUSH2 0x15CD PUSH1 0x1F DUP10 AND DUP3 PUSH2 0x14DA JUMP JUMPDEST DUP4 SSTORE POP JUMPDEST PUSH1 0x1 PUSH1 0x2 DUP9 MUL ADD DUP9 SSTORE POP POP POP JUMPDEST POP POP POP POP POP POP JUMP JUMPDEST PUSH32 0x596F75206D757374206265206120636F6E7472696275746F7220746F20766F74 PUSH1 0x0 DUP3 ADD MSTORE PUSH32 0x6500000000000000000000000000000000000000000000000000000000000000 PUSH1 0x20 DUP3 ADD MSTORE POP JUMP JUMPDEST PUSH1 0x0 PUSH2 0x1642 PUSH1 0x21 DUP4 PUSH2 0xFFB JUMP JUMPDEST SWAP2 POP PUSH2 0x164D DUP3 PUSH2 0x15E6 JUMP JUMPDEST PUSH1 0x40 DUP3 ADD SWAP1 POP SWAP2 SWAP1 POP JUMP JUMPDEST PUSH1 0x0 PUSH1 0x20 DUP3 ADD SWAP1 POP DUP2 DUP2 SUB PUSH1 0x0 DUP4 ADD MSTORE PUSH2 0x1671 DUP2 PUSH2 0x1635 JUMP JUMPDEST SWAP1 POP SWAP2 SWAP1 POP JUMP JUMPDEST PUSH32 0x596F75206861766520616C726561647920766F7465642E000000000000000000 PUSH1 0x0 DUP3 ADD MSTORE POP JUMP JUMPDEST PUSH1 0x0 PUSH2 0x16AE PUSH1 0x17 DUP4 PUSH2 0xFFB JUMP JUMPDEST SWAP2 POP PUSH2 0x16B9 DUP3 PUSH2 0x1678 JUMP JUMPDEST PUSH1 0x20 DUP3 ADD SWAP1 POP SWAP2 SWAP1 POP JUMP JUMPDEST PUSH1 0x0 PUSH1 0x20 DUP3 ADD SWAP1 POP DUP2 DUP2 SUB PUSH1 0x0 DUP4 ADD MSTORE PUSH2 0x16DD DUP2 PUSH2 0x16A1 JUMP JUMPDEST SWAP1 POP SWAP2 SWAP1 POP JUMP JUMPDEST PUSH32 0x596F752063616E277420706572666F726D207468697320616374696F6E2C206E PUSH1 0x0 DUP3 ADD MSTORE PUSH32 0x6F742073756666696369656E742066756E647300000000000000000000000000 PUSH1 0x20 DUP3 ADD MSTORE POP JUMP JUMPDEST PUSH1 0x0 PUSH2 0x1740 PUSH1 0x33 DUP4 PUSH2 0xFFB JUMP JUMPDEST SWAP2 POP PUSH2 0x174B DUP3 PUSH2 0x16E4 JUMP JUMPDEST PUSH1 0x40 DUP3 ADD SWAP1 POP SWAP2 SWAP1 POP JUMP JUMPDEST PUSH1 0x0 PUSH1 0x20 DUP3 ADD SWAP1 POP DUP2 DUP2 SUB PUSH1 0x0 DUP4 ADD MSTORE PUSH2 0x176F DUP2 PUSH2 0x1733 JUMP JUMPDEST SWAP1 POP SWAP2 SWAP1 POP JUMP JUMPDEST PUSH32 0x54686973207265717565737420686173206265656E20636F6D706C657465642E PUSH1 0x0 DUP3 ADD MSTORE POP JUMP JUMPDEST PUSH1 0x0 PUSH2 0x17AC PUSH1 0x20 DUP4 PUSH2 0xFFB JUMP JUMPDEST SWAP2 POP PUSH2 0x17B7 DUP3 PUSH2 0x1776 JUMP JUMPDEST PUSH1 0x20 DUP3 ADD SWAP1 POP SWAP2 SWAP1 POP JUMP JUMPDEST PUSH1 0x0 PUSH1 0x20 DUP3 ADD SWAP1 POP DUP2 DUP2 SUB PUSH1 0x0 DUP4 ADD MSTORE PUSH2 0x17DB DUP2 PUSH2 0x179F JUMP JUMPDEST SWAP1 POP SWAP2 SWAP1 POP JUMP JUMPDEST PUSH32 0x4E487B7100000000000000000000000000000000000000000000000000000000 PUSH1 0x0 MSTORE PUSH1 0x12 PUSH1 0x4 MSTORE PUSH1 0x24 PUSH1 0x0 REVERT JUMPDEST PUSH1 0x0 PUSH2 0x181C DUP3 PUSH2 0xD46 JUMP JUMPDEST SWAP2 POP PUSH2 0x1827 DUP4 PUSH2 0xD46 JUMP JUMPDEST SWAP3 POP DUP3 PUSH2 0x1837 JUMPI PUSH2 0x1836 PUSH2 0x17E2 JUMP JUMPDEST JUMPDEST DUP3 DUP3 DIV SWAP1 POP SWAP3 SWAP2 POP POP JUMP JUMPDEST PUSH32 0x4D616A6F7269747920646F6E6F7420737570706F727400000000000000000000 PUSH1 0x0 DUP3 ADD MSTORE POP JUMP JUMPDEST PUSH1 0x0 PUSH2 0x1878 PUSH1 0x16 DUP4 PUSH2 0xFFB JUMP JUMPDEST SWAP2 POP PUSH2 0x1883 DUP3 PUSH2 0x1842 JUMP JUMPDEST PUSH1 0x20 DUP3 ADD SWAP1 POP SWAP2 SWAP1 POP JUMP JUMPDEST PUSH1 0x0 PUSH1 0x20 DUP3 ADD SWAP1 POP DUP2 DUP2 SUB PUSH1 0x0 DUP4 ADD MSTORE PUSH2 0x18A7 DUP2 PUSH2 0x186B JUMP JUMPDEST SWAP1 POP SWAP2 SWAP1 POP JUMP JUMPDEST PUSH32 0x596F7520617265206E6F7420656C696769626C6520746F206765742061207265 PUSH1 0x0 DUP3 ADD MSTORE PUSH32 0x66756E6400000000000000000000000000000000000000000000000000000000 PUSH1 0x20 DUP3 ADD MSTORE POP JUMP JUMPDEST PUSH1 0x0 PUSH2 0x190A PUSH1 0x24 DUP4 PUSH2 0xFFB JUMP JUMPDEST SWAP2 POP PUSH2 0x1915 DUP3 PUSH2 0x18AE JUMP JUMPDEST PUSH1 0x40 DUP3 ADD SWAP1 POP SWAP2 SWAP1 POP JUMP JUMPDEST PUSH1 0x0 PUSH1 0x20 DUP3 ADD SWAP1 POP DUP2 DUP2 SUB PUSH1 0x0 DUP4 ADD MSTORE PUSH2 0x1939 DUP2 PUSH2 0x18FD JUMP JUMPDEST SWAP1 POP SWAP2 SWAP1 POP JUMP JUMPDEST PUSH32 0x596F75206172652068617665206E6F7420636F6E747269627574656420616E79 PUSH1 0x0 DUP3 ADD MSTORE PUSH32 0x7468696E672E0000000000000000000000000000000000000000000000000000 PUSH1 0x20 DUP3 ADD MSTORE POP JUMP JUMPDEST PUSH1 0x0 PUSH2 0x199C PUSH1 0x26 DUP4 PUSH2 0xFFB JUMP JUMPDEST SWAP2 POP PUSH2 0x19A7 DUP3 PUSH2 0x1940 JUMP JUMPDEST PUSH1 0x40 DUP3 ADD SWAP1 POP SWAP2 SWAP1 POP JUMP JUMPDEST PUSH1 0x0 PUSH1 0x20 DUP3 ADD SWAP1 POP DUP2 DUP2 SUB PUSH1 0x0 DUP4 ADD MSTORE PUSH2 0x19CB DUP2 PUSH2 0x198F JUMP JUMPDEST SWAP1 POP SWAP2 SWAP1 POP JUMP INVALID LOG2 PUSH5 0x6970667358 0x22 SLT KECCAK256 CALLDATACOPY PC DUP7 DUP12 PUSH24 0x24CE8063A780791C55BBD2CAFC39CB417C7CA7AB8A6A7AC4 AND PUSH13 0x3864736F6C6343000812003300 "
				},
				"gasEstimates": {
					"creation": {
						"codeDepositCost": "1332800",
						"executionCost": "infinite",
						"totalCost": "infinite"
					},
					"external": {
						"contributors(address)": "2860",
						"createRequests(string,address,uint256)": "infinite",
						"deadline()": "2497",
						"getContractBalance()": "406",
						"makePayment(uint256)": "infinite",
						"manager()": "2559",
						"minimumContribution()": "2451",
						"noOfContributors()": "2518",
						"numRequests()": "2473",
						"raisedAmount()": "2495",
						"refund()": "infinite",
						"requests(uint256)": "infinite",
						"sendEth()": "infinite",
						"target()": "2517",
						"voteRequest(uint256)": "infinite"
					}
				},
				"methodIdentifiers": {
					"contributors(address)": "1f6d4942",
					"createRequests(string,address,uint256)": "3eb7647b",
					"deadline()": "29dcb0cf",
					"getContractBalance()": "6f9fb98a",
					"makePayment(uint256)": "5114cb52",
					"manager()": "481c6a75",
					"minimumContribution()": "937e09b1",
					"noOfContributors()": "4e260f6f",
					"numRequests()": "9fb42b1f",
					"raisedAmount()": "c59ee1dc",
					"refund()": "590e1ae3",
					"requests(uint256)": "81d12c58",
					"sendEth()": "06e99fef",
					"target()": "d4b83992",
					"voteRequest(uint256)": "4cb6f4a5"
				}
			},
			"storageLayout": {
				"storage": [
					{
						"astId": 5,
						"contract": "CrowdFunding.sol:CrowdFunding",
						"label": "contributors",
						"offset": 0,
						"slot": "0",
						"type": "t_mapping(t_address,t_uint256)"
					},
					{
						"astId": 7,
						"contract": "CrowdFunding.sol:CrowdFunding",
						"label": "manager",
						"offset": 0,
						"slot": "1",
						"type": "t_address"
					},
					{
						"astId": 9,
						"contract": "CrowdFunding.sol:CrowdFunding",
						"label": "minimumContribution",
						"offset": 0,
						"slot": "2",
						"type": "t_uint256"
					},
					{
						"astId": 11,
						"contract": "CrowdFunding.sol:CrowdFunding",
						"label": "deadline",
						"offset": 0,
						"slot": "3",
						"type": "t_uint256"
					},
					{
						"astId": 13,
						"contract": "CrowdFunding.sol:CrowdFunding",
						"label": "target",
						"offset": 0,
						"slot": "4",
						"type": "t_uint256"
					},
					{
						"astId": 15,
						"contract": "CrowdFunding.sol:CrowdFunding",
						"label": "raisedAmount",
						"offset": 0,
						"slot": "5",
						"type": "t_uint256"
					},
					{
						"astId": 17,
						"contract": "CrowdFunding.sol:CrowdFunding",
						"label": "noOfContributors",
						"offset": 0,
						"slot": "6",
						"type": "t_uint256"
					},
					{
						"astId": 65,
						"contract": "CrowdFunding.sol:CrowdFunding",
						"label": "requests",
						"offset": 0,
						"slot": "7",
						"type": "t_mapping(t_uint256,t_struct(Request)32_storage)"
					},
					{
						"astId": 67,
						"contract": "CrowdFunding.sol:CrowdFunding",
						"label": "numRequests",
						"offset": 0,
						"slot": "8",
						"type": "t_uint256"
					}
				],
				"types": {
					"t_address": {
						"encoding": "inplace",
						"label": "address",
						"numberOfBytes": "20"
					},
					"t_address_payable": {
						"encoding": "inplace",
						"label": "address payable",
						"numberOfBytes": "20"
					},
					"t_bool": {
						"encoding": "inplace",
						"label": "bool",
						"numberOfBytes": "1"
					},
					"t_mapping(t_address,t_bool)": {
						"encoding": "mapping",
						"key": "t_address",
						"label": "mapping(address => bool)",
						"numberOfBytes": "32",
						"value": "t_bool"
					},
					"t_mapping(t_address,t_uint256)": {
						"encoding": "mapping",
						"key": "t_address",
						"label": "mapping(address => uint256)",
						"numberOfBytes": "32",
						"value": "t_uint256"
					},
					"t_mapping(t_uint256,t_struct(Request)32_storage)": {
						"encoding": "mapping",
						"key": "t_uint256",
						"label": "mapping(uint256 => struct CrowdFunding.Request)",
						"numberOfBytes": "32",
						"value": "t_struct(Request)32_storage"
					},
					"t_string_storage": {
						"encoding": "bytes",
						"label": "string",
						"numberOfBytes": "32"
					},
					"t_struct(Request)32_storage": {
						"encoding": "inplace",
						"label": "struct CrowdFunding.Request",
						"members": [
							{
								"astId": 19,
								"contract": "CrowdFunding.sol:CrowdFunding",
								"label": "description",
								"offset": 0,
								"slot": "0",
								"type": "t_string_storage"
							},
							{
								"astId": 21,
								"contract": "CrowdFunding.sol:CrowdFunding",
								"label": "recipient",
								"offset": 0,
								"slot": "1",
								"type": "t_address_payable"
							},
							{
								"astId": 23,
								"contract": "CrowdFunding.sol:CrowdFunding",
								"label": "value",
								"offset": 0,
								"slot": "2",
								"type": "t_uint256"
							},
							{
								"astId": 25,
								"contract": "CrowdFunding.sol:CrowdFunding",
								"label": "completed",
								"offset": 0,
								"slot": "3",
								"type": "t_bool"
							},
							{
								"astId": 27,
								"contract": "CrowdFunding.sol:CrowdFunding",
								"label": "noOfVoters",
								"offset": 0,
								"slot": "4",
								"type": "t_uint256"
							},
							{
								"astId": 31,
								"contract": "CrowdFunding.sol:CrowdFunding",
								"label": "voters",
								"offset": 0,
								"slot": "5",
								"type": "t_mapping(t_address,t_bool)"
							}
						],
						"numberOfBytes": "192"
					},
					"t_uint256": {
						"encoding": "inplace",
						"label": "uint256",
						"numberOfBytes": "32"
					}
				}
			},
			"userdoc": {
				"kind": "user",
				"methods": {},
				"version": 1
			}
		}
	}
}